{"abi":[{"type":"constructor","inputs":[],"stateMutability":"nonpayable"},{"name":"ServiceProviders","type":"function","inputs":[{"name":"","type":"address","internalType":"address"}],"outputs":[{"name":"id","type":"uint256","internalType":"uint256"},{"name":"Address","type":"address","internalType":"address payable"},{"name":"name","type":"string","internalType":"string"},{"name":"city","type":"string","internalType":"string"},{"name":"phone","type":"string","internalType":"string"},{"name":"email","type":"string","internalType":"string"},{"name":"charges","type":"uint256","internalType":"uint256"},{"name":"service_type","type":"uint256","internalType":"uint256"},{"name":"status","type":"bool","internalType":"bool"}],"constant":true,"stateMutability":"view"},{"name":"Users","type":"function","inputs":[{"name":"","type":"address","internalType":"address"}],"outputs":[{"name":"id","type":"uint256","internalType":"uint256"},{"name":"Address","type":"address","internalType":"address payable"},{"name":"home_address","type":"string","internalType":"string"},{"name":"sp","type":"address","internalType":"address payable"},{"name":"name","type":"string","internalType":"string"},{"name":"city","type":"string","internalType":"string"},{"name":"email","type":"string","internalType":"string"},{"name":"phone","type":"string","internalType":"string"},{"name":"serv","type":"bool","internalType":"bool"},{"name":"ongiong_service","type":"bool","internalType":"bool"},{"name":"messagealert","type":"bool","internalType":"bool"}],"constant":true,"stateMutability":"view"},{"name":"admin","type":"function","inputs":[],"outputs":[{"name":"","type":"address","internalType":"address payable"}],"constant":true,"stateMutability":"view"},{"name":"service_providers","type":"function","inputs":[{"name":"","type":"uint256","internalType":"uint256"}],"outputs":[{"name":"","type":"address","internalType":"address payable"}],"constant":true,"stateMutability":"view"},{"name":"sp_Addresses","type":"function","inputs":[{"name":"","type":"uint256","internalType":"uint256"}],"outputs":[{"name":"","type":"address","internalType":"address payable"}],"constant":true,"stateMutability":"view"},{"name":"user_Addresses","type":"function","inputs":[{"name":"","type":"uint256","internalType":"uint256"}],"outputs":[{"name":"","type":"address","internalType":"address payable"}],"constant":true,"stateMutability":"view"},{"name":"deposit","type":"function","inputs":[{"name":"amount","type":"uint256","internalType":"uint256"}],"outputs":[],"payable":true,"stateMutability":"payable"},{"name":"addUser","type":"function","inputs":[{"name":"name","type":"string","internalType":"string"},{"name":"home_address","type":"string","internalType":"string"},{"name":"city","type":"string","internalType":"string"},{"name":"email","type":"string","internalType":"string"},{"name":"phone","type":"string","internalType":"string"}],"outputs":[],"payable":true,"stateMutability":"payable"},{"name":"getAllUsers","type":"function","inputs":[],"outputs":[{"name":"","type":"address[]","internalType":"address payable[]"}],"constant":true,"stateMutability":"view"},{"name":"userExist","type":"function","inputs":[{"name":"Address","type":"address","internalType":"address payable"}],"outputs":[{"name":"","type":"bool","internalType":"bool"}],"constant":true,"stateMutability":"view"},{"name":"serviceProviderExist","type":"function","inputs":[{"name":"Address","type":"address","internalType":"address payable"}],"outputs":[{"name":"","type":"bool","internalType":"bool"}],"constant":true,"stateMutability":"view"},{"name":"addServiceProvider","type":"function","inputs":[{"name":"name","type":"string","internalType":"string"},{"name":"city","type":"string","internalType":"string"},{"name":"email","type":"string","internalType":"string"},{"name":"phone","type":"string","internalType":"string"},{"name":"charges","type":"uint256","internalType":"uint256"},{"name":"service_type","type":"uint256","internalType":"uint256"}],"outputs":[],"payable":true,"stateMutability":"payable"},{"name":"render_List","type":"function","inputs":[{"name":"service_type","type":"uint256","internalType":"uint256"}],"outputs":[],"stateMutability":"nonpayable"},{"name":"return_rendered_List","type":"function","inputs":[],"outputs":[{"name":"","type":"address[]","internalType":"address payable[]"}],"constant":true,"stateMutability":"view"},{"name":"getAllServiceProviders","type":"function","inputs":[],"outputs":[{"name":"","type":"address[]","internalType":"address payable[]"}],"constant":true,"stateMutability":"view"},{"name":"requestService","type":"function","inputs":[{"name":"sp","type":"address","internalType":"address payable"}],"outputs":[],"payable":true,"stateMutability":"payable"},{"name":"servicecompleted","type":"function","inputs":[],"outputs":[],"payable":true,"stateMutability":"payable"},{"name":"service_choice","type":"function","inputs":[{"name":"user","type":"address","internalType":"address payable"}],"outputs":[],"stateMutability":"nonpayable"},{"name":"service_off","type":"function","inputs":[],"outputs":[],"payable":true,"stateMutability":"payable"},{"name":"getBalance","type":"function","inputs":[{"name":"user","type":"address","internalType":"address payable"},{"name":"sp","type":"address","internalType":"address payable"}],"outputs":[],"payable":true,"stateMutability":"payable"},{"name":"return_my_users","type":"function","inputs":[{"name":"sp","type":"address","internalType":"address payable"}],"outputs":[{"name":"","type":"address[]","internalType":"address payable[]"}],"constant":true,"stateMutability":"view"},{"name":"userRequestedFor","type":"function","inputs":[{"name":"user","type":"address","internalType":"address payable"}],"outputs":[{"name":"","type":"address","internalType":"address payable"}],"constant":true,"stateMutability":"view"}],"devdoc":{"kind":"dev","methods":{},"version":1},"source":"// SPDX-License-Identifier: MIT\npragma solidity >=0.7.0 <0.9.0;\n\ncontract Model {\n\n    address payable public admin;\n    function deposit(uint256 amount) payable public {\n        require(msg.value == amount);\n        // nothing else to do!\n    }\n\n    constructor(){\n        usersCount =0;\n        admin = payable(msg.sender);\n        address payable sp = payable(0);\n        usersCount++;\n        address payable x = payable(0xdCad3a6d3569DF655070DEd06cb7A1b2Ccd1D3AF);\n        user_Addresses.push(x);\n        Users[x] = User(usersCount,x,\"ABCD\",sp,\"Bhuwnesh\",\"Bangalore\",\"bhuwnesh.126@gm.com\",\"263139\",false,false,false);\n        x = payable(0x626C16139e73fa877Ec4B2BBaD02C824C8e95bc0);\n        user_Addresses.push(x);\n        usersCount++;\n        Users[x] = User(usersCount,x,\"ABCD\",sp,\"Bhuwnesh\",\"Bangalore\",\"bhuwnesh.126@gm.com\",\"263139\",false,false,false);\n        x = payable(0x55dBD85Eb48a426a9075c059Fb719Ca843a1e8eE);\n        user_Addresses.push(x);\n        usersCount++;\n        Users[x] = User(usersCount,x,\"ABCD\",sp,\"Bhuwnesh\",\"Bangalore\",\"bhuwnesh.126@gm.com\",\"263139\",false,false,false);\n        x = payable(0x0BBC5d5D3D89B3a213c420A9630c72C0966c8b71);\n        user_Addresses.push(x);\n        usersCount++;\n        Users[x] = User(usersCount,x,\"ABCD\",sp,\"Bhuwnesh\",\"Bangalore\",\"bhuwnesh.126@gm.com\",\"263139\",false,false,false);\n        x = payable(0xC6d640ce6A7431bE86Eda5AF05873662aA560d40);\n        user_Addresses.push(x);\n        usersCount++;\n        Users[x] = User(usersCount,x,\"ABCD\",sp,\"Bhuwnesh\",\"Bangalore\",\"bhuwnesh.126@gm.com\",\"263139\",false,false,false);\n\n        address payable[] memory sp2 = new address payable[](0);\n        serviceProviderCount = 0;\n        serviceProviderCount++;\n        x = payable(0x5D2Cf9B829EA3D1D428AeE131909d2b63921eeaC);\n        sp_Addresses.push(x);\n        ServiceProviders[x] = Service_Provider(serviceProviderCount,x,\"Sajal Singh\",\"Bangalore\",sp2, 'sajal.singh@outlook.com','+917579245939',1200000000, 1,true);\n\n        serviceProviderCount++;\n        x = payable(0x0f341A3FFD5af4F2112a201f109a482445fb97AE);\n        sp_Addresses.push(x);\n        ServiceProviders[x] = Service_Provider(serviceProviderCount,x,\"Dada Singh\",\"Bangalore\",sp2, 'dada.singh@outlook.in','+919687545667',1200000000, 2,true);\n\n        serviceProviderCount++;\n        x = payable(0x110A50271a65EE265a4b4457aC412C76c9791678);\n        sp_Addresses.push(x);\n        ServiceProviders[x] = Service_Provider(serviceProviderCount,x,\"Saurabh Singh\",\"Bangalore\",sp2, 'saurabh@outlook.com','+918909524009',1200000000, 2,true);\n\n        serviceProviderCount++;\n        x = payable(0xD3B7f2A8e0EDa1b2C6a0B49c6C79Ca9a3996C2AA);\n        sp_Addresses.push(x);\n        ServiceProviders[x] = Service_Provider(serviceProviderCount,x,\"Anjan Shetty\",\"Bangalore\",sp2, 'anjan@iiitb.org.in','+919411107360',1200000000, 2,true);\n\n\n        serviceProviderCount++;\n            x = payable(0xd39cD70F514a0814c2Fc59350e11AA0EbA2b8CE8);\n        sp_Addresses.push(x);\n        ServiceProviders[x] = Service_Provider(serviceProviderCount,x,\"Dada Dungeon\",\"Bangalore\",sp2, 'emaiol','obofddsfa',1200000000, 2,true);\n\n\n\n    }\n// structure for Users\n    // structure for Users\n    struct User {\n        uint id;\n        address payable Address;\n        string home_address;\n        address payable sp;\n        string name;\n        string city;\n        string email;\n        string phone;\n        bool serv;\n        bool ongiong_service;\n        bool messagealert;\n\n    }\n\n\n    // structure for Service Provider\n    struct Service_Provider {\n        uint id;\n        address payable Address;\n        string name;\n        string city;\n        address payable [] service_seeker;\n        string phone;\n        string email;\n        uint charges;\n        uint service_type;\n        bool status;\n\n    }\n\n\n    address payable[] public service_providers;\n    address payable[] public  user_Addresses;\n    address payable[] public sp_Addresses;\n    uint usersId = 0;\n    uint serviceProviderId = 0;\n    uint usersCount = 0;\n    uint serviceProviderCount = 0;\n\n    mapping(address => User) public Users;\n    mapping(address => Service_Provider) public ServiceProviders;\n\n    // Function to add Users\n    function addUser(string memory name,string memory home_address, string memory city, string memory email, string memory phone) public payable {\n        usersCount++;\n        usersId++;\n        address payable Address = payable(msg.sender);\n        address payable sp = payable(0);\n        bool serv=false;\n        bool ongiong_service=false;\n        bool messagealert=false;\n        user_Addresses.push(Address);\n        Users[Address] = User(usersId, Address, home_address, sp, name, city, email, phone,serv,ongiong_service,messagealert);\n    }\n\n    // Function to return the array of addresses of Users\n    function getAllUsers() public view returns (address payable [] memory){\n        return user_Addresses;\n    }\n\n    // to check if user exist already or not.\n    function userExist(address payable Address) public view returns (bool){\n        if (Users[Address].id > 0) {\n            return true;\n        }\n        else\n            return false;\n    }\n\n    // Function to check if service provider already exist.\n\n    function serviceProviderExist(address payable Address) public view returns (bool){\n        if (ServiceProviders[Address].id > 0) {\n            return true;\n        }\n        else\n            return false;\n    }\n\n\n    // Function to add service providers\n    function addServiceProvider(string memory name, string memory city, string memory email, string memory phone, uint charges, uint service_type) public payable {\n        serviceProviderCount++;\n        serviceProviderId++;\n        bool status =true;\n        address payable Address = payable(msg.sender);\n        sp_Addresses.push(Address);\n        address payable [] memory service_seeker;\n        ServiceProviders[Address] = Service_Provider(serviceProviderId, Address, name, city, service_seeker, email, phone, charges, service_type,status);\n\n\n    }\n    // function to return a service provider list to user\n    function render_List(uint service_type) public {\n        service_providers = new address payable [](0);\n        uint i = 0;\n        for (i = 0; i < sp_Addresses.length; ++i) {\n            if (ServiceProviders[sp_Addresses[i]].service_type == service_type) {\n\n                service_providers.push(sp_Addresses[i]);}\n        }\n\n    }\n\n    function return_rendered_List() public view returns (address payable[] memory){\n        return service_providers;\n    }\n    //function to return the array of addresses of Service Providers\n    function getAllServiceProviders() public view returns (address payable [] memory){\n        return sp_Addresses;\n    }\n    // function for checking ether value and registeration of user to particular service Providers\n    function requestService(address payable sp) public payable {\n        address payable user;\n\n        user = payable(msg.sender);\n\n        if (msg.value != ServiceProviders[sp].charges) {\n            user.transfer(msg.value);\n\n        }\n        else {\n            Users[user].sp = sp;\n            ServiceProviders[sp].service_seeker.push(user);\n            Users[user].serv=true;\n            Users[user].messagealert = false;\n\n\n        }\n\n    }\n\n    function servicecompleted() public payable {\n        address payable user;\n        user = payable(msg.sender);\n        uint i = 0;\n        uint length = ServiceProviders[Users[user].sp].service_seeker.length;\n        // loop to check whether user is present in service provider list or not\n        for (; i < length; i++)\n        {\n            if (ServiceProviders[Users[user].sp].service_seeker[i] == user)\n                break;\n        }\n        // if user not present then we transfer 0 to the service provider\n        if (i == ServiceProviders[Users[user].sp].service_seeker.length)\n            Users[user].sp.transfer(0);\n        else {\n            uint amount = (100 * ServiceProviders[Users[user].sp].charges - 95 * ServiceProviders[Users[user].sp].charges) / 100;\n            admin.transfer(amount);\n            Users[user].sp.transfer((90 * ServiceProviders[Users[user].sp].charges) / 100);\n            // this to delete the user from service provider list\n            ServiceProviders[Users[user].sp].service_seeker[i] = ServiceProviders[Users[user].sp].service_seeker[length - 1];\n            ServiceProviders[Users[user].sp].service_seeker[length - 1] = user;\n            ServiceProviders[Users[user].sp].service_seeker.pop();\n            Users[user].serv=false;\n            Users[user].ongiong_service=false;\n\n        }\n\n    }\n    function service_choice(address payable user)public{\n\n        Users[user].ongiong_service=true;\n\n\n    }\n\n\n    function service_off() public payable{\n        address payable sp;\n        sp=payable(msg.sender);\n        if(ServiceProviders[sp].status==true)\n        {\n            ServiceProviders[sp].status=false;\n            uint i=0;\n            address payable user;\n            for(;i<ServiceProviders[sp].service_seeker.length;)\n            {\n\n                user=ServiceProviders[sp].service_seeker[i];\n                if(Users[user].ongiong_service==false)\n                {   uint length=ServiceProviders[sp].service_seeker.length;\n                    Users[user].serv=false;\n                    Users[user].messagealert=true;\n                    getBalance(user,sp);\n\n                    ServiceProviders[sp].service_seeker[i]= ServiceProviders[sp].service_seeker[length-1] ;\n                    ServiceProviders[sp].service_seeker[length-1] =user;\n                    ServiceProviders[sp].service_seeker.pop();\n                }\n                else\n                {\n                    i++;\n                }\n            }\n        }\n        else\n            ServiceProviders[sp].status=true;\n\n\n    }\n\n    function getBalance(address payable user,address payable sp) public payable{\n        user.transfer(address(this).balance-(address(this).balance-ServiceProviders[sp].charges));\n    }\n    function return_my_users(address payable sp) public view returns(address payable [] memory){\n        return ServiceProviders[sp].service_seeker;\n    }\n\n    function userRequestedFor(address payable user) public view returns(address payable){\n        return Users[user].sp;\n    }\n\n}","userdoc":{"kind":"user","methods":{},"version":1},"bytecode":"0x608060405260006004556000600555600060065560006007553480156200002557600080fd5b506000600681905550336000806101000a81548173ffffffffffffffffffffffffffffffffffffffff021916908373ffffffffffffffffffffffffffffffffffffffff160217905550600060066000815480929190620000859062002649565b9190505550600073dcad3a6d3569df655070ded06cb7a1b2ccd1d3af90506002819080600181540180825580915050600190039060005260206000200160009091909190916101000a81548173ffffffffffffffffffffffffffffffffffffffff021916908373ffffffffffffffffffffffffffffffffffffffff16021790555060405180610160016040528060065481526020018273ffffffffffffffffffffffffffffffffffffffff1681526020016040518060400160405280600481526020017f414243440000000000000000000000000000000000000000000000000000000081525081526020018373ffffffffffffffffffffffffffffffffffffffff1681526020016040518060400160405280600881526020017f426875776e65736800000000000000000000000000000000000000000000000081525081526020016040518060400160405280600981526020017f42616e67616c6f7265000000000000000000000000000000000000000000000081525081526020016040518060400160405280601381526020017f626875776e6573682e31323640676d2e636f6d0000000000000000000000000081525081526020016040518060400160405280600681526020017f3236333133390000000000000000000000000000000000000000000000000000815250815260200160001515815260200160001515815260200160001515815250600860008373ffffffffffffffffffffffffffffffffffffffff1673ffffffffffffffffffffffffffffffffffffffff1681526020019081526020016000206000820151816000015560208201518160010160006101000a81548173ffffffffffffffffffffffffffffffffffffffff021916908373ffffffffffffffffffffffffffffffffffffffff160217905550604082015181600201908051906020019062000340929190620024ca565b5060608201518160030160006101000a81548173ffffffffffffffffffffffffffffffffffffffff021916908373ffffffffffffffffffffffffffffffffffffffff1602179055506080820151816004019080519060200190620003a6929190620024ca565b5060a0820151816005019080519060200190620003c5929190620024ca565b5060c0820151816006019080519060200190620003e4929190620024ca565b5060e082015181600701908051906020019062000403929190620024ca565b506101008201518160080160006101000a81548160ff0219169083151502179055506101208201518160080160016101000a81548160ff0219169083151502179055506101408201518160080160026101000a81548160ff02191690831515021790555090505073626c16139e73fa877ec4b2bbad02c824c8e95bc090506002819080600181540180825580915050600190039060005260206000200160009091909190916101000a81548173ffffffffffffffffffffffffffffffffffffffff021916908373ffffffffffffffffffffffffffffffffffffffff16021790555060066000815480929190620004f99062002649565b919050555060405180610160016040528060065481526020018273ffffffffffffffffffffffffffffffffffffffff1681526020016040518060400160405280600481526020017f414243440000000000000000000000000000000000000000000000000000000081525081526020018373ffffffffffffffffffffffffffffffffffffffff1681526020016040518060400160405280600881526020017f426875776e65736800000000000000000000000000000000000000000000000081525081526020016040518060400160405280600981526020017f42616e67616c6f7265000000000000000000000000000000000000000000000081525081526020016040518060400160405280601381526020017f626875776e6573682e31323640676d2e636f6d0000000000000000000000000081525081526020016040518060400160405280600681526020017f3236333133390000000000000000000000000000000000000000000000000000815250815260200160001515815260200160001515815260200160001515815250600860008373ffffffffffffffffffffffffffffffffffffffff1673ffffffffffffffffffffffffffffffffffffffff1681526020019081526020016000206000820151816000015560208201518160010160006101000a81548173ffffffffffffffffffffffffffffffffffffffff021916908373ffffffffffffffffffffffffffffffffffffffff160217905550604082015181600201908051906020019062000738929190620024ca565b5060608201518160030160006101000a81548173ffffffffffffffffffffffffffffffffffffffff021916908373ffffffffffffffffffffffffffffffffffffffff16021790555060808201518160040190805190602001906200079e929190620024ca565b5060a0820151816005019080519060200190620007bd929190620024ca565b5060c0820151816006019080519060200190620007dc929190620024ca565b5060e0820151816007019080519060200190620007fb929190620024ca565b506101008201518160080160006101000a81548160ff0219169083151502179055506101208201518160080160016101000a81548160ff0219169083151502179055506101408201518160080160026101000a81548160ff0219169083151502179055509050507355dbd85eb48a426a9075c059fb719ca843a1e8ee90506002819080600181540180825580915050600190039060005260206000200160009091909190916101000a81548173ffffffffffffffffffffffffffffffffffffffff021916908373ffffffffffffffffffffffffffffffffffffffff16021790555060066000815480929190620008f19062002649565b919050555060405180610160016040528060065481526020018273ffffffffffffffffffffffffffffffffffffffff1681526020016040518060400160405280600481526020017f414243440000000000000000000000000000000000000000000000000000000081525081526020018373ffffffffffffffffffffffffffffffffffffffff1681526020016040518060400160405280600881526020017f426875776e65736800000000000000000000000000000000000000000000000081525081526020016040518060400160405280600981526020017f42616e67616c6f7265000000000000000000000000000000000000000000000081525081526020016040518060400160405280601381526020017f626875776e6573682e31323640676d2e636f6d0000000000000000000000000081525081526020016040518060400160405280600681526020017f3236333133390000000000000000000000000000000000000000000000000000815250815260200160001515815260200160001515815260200160001515815250600860008373ffffffffffffffffffffffffffffffffffffffff1673ffffffffffffffffffffffffffffffffffffffff1681526020019081526020016000206000820151816000015560208201518160010160006101000a81548173ffffffffffffffffffffffffffffffffffffffff021916908373ffffffffffffffffffffffffffffffffffffffff160217905550604082015181600201908051906020019062000b30929190620024ca565b5060608201518160030160006101000a81548173ffffffffffffffffffffffffffffffffffffffff021916908373ffffffffffffffffffffffffffffffffffffffff160217905550608082015181600401908051906020019062000b96929190620024ca565b5060a082015181600501908051906020019062000bb5929190620024ca565b5060c082015181600601908051906020019062000bd4929190620024ca565b5060e082015181600701908051906020019062000bf3929190620024ca565b506101008201518160080160006101000a81548160ff0219169083151502179055506101208201518160080160016101000a81548160ff0219169083151502179055506101408201518160080160026101000a81548160ff021916908315150217905550905050730bbc5d5d3d89b3a213c420a9630c72c0966c8b7190506002819080600181540180825580915050600190039060005260206000200160009091909190916101000a81548173ffffffffffffffffffffffffffffffffffffffff021916908373ffffffffffffffffffffffffffffffffffffffff1602179055506006600081548092919062000ce99062002649565b919050555060405180610160016040528060065481526020018273ffffffffffffffffffffffffffffffffffffffff1681526020016040518060400160405280600481526020017f414243440000000000000000000000000000000000000000000000000000000081525081526020018373ffffffffffffffffffffffffffffffffffffffff1681526020016040518060400160405280600881526020017f426875776e65736800000000000000000000000000000000000000000000000081525081526020016040518060400160405280600981526020017f42616e67616c6f7265000000000000000000000000000000000000000000000081525081526020016040518060400160405280601381526020017f626875776e6573682e31323640676d2e636f6d0000000000000000000000000081525081526020016040518060400160405280600681526020017f3236333133390000000000000000000000000000000000000000000000000000815250815260200160001515815260200160001515815260200160001515815250600860008373ffffffffffffffffffffffffffffffffffffffff1673ffffffffffffffffffffffffffffffffffffffff1681526020019081526020016000206000820151816000015560208201518160010160006101000a81548173ffffffffffffffffffffffffffffffffffffffff021916908373ffffffffffffffffffffffffffffffffffffffff160217905550604082015181600201908051906020019062000f28929190620024ca565b5060608201518160030160006101000a81548173ffffffffffffffffffffffffffffffffffffffff021916908373ffffffffffffffffffffffffffffffffffffffff160217905550608082015181600401908051906020019062000f8e929190620024ca565b5060a082015181600501908051906020019062000fad929190620024ca565b5060c082015181600601908051906020019062000fcc929190620024ca565b5060e082015181600701908051906020019062000feb929190620024ca565b506101008201518160080160006101000a81548160ff0219169083151502179055506101208201518160080160016101000a81548160ff0219169083151502179055506101408201518160080160026101000a81548160ff02191690831515021790555090505073c6d640ce6a7431be86eda5af05873662aa560d4090506002819080600181540180825580915050600190039060005260206000200160009091909190916101000a81548173ffffffffffffffffffffffffffffffffffffffff021916908373ffffffffffffffffffffffffffffffffffffffff16021790555060066000815480929190620010e19062002649565b919050555060405180610160016040528060065481526020018273ffffffffffffffffffffffffffffffffffffffff1681526020016040518060400160405280600481526020017f414243440000000000000000000000000000000000000000000000000000000081525081526020018373ffffffffffffffffffffffffffffffffffffffff1681526020016040518060400160405280600881526020017f426875776e65736800000000000000000000000000000000000000000000000081525081526020016040518060400160405280600981526020017f42616e67616c6f7265000000000000000000000000000000000000000000000081525081526020016040518060400160405280601381526020017f626875776e6573682e31323640676d2e636f6d0000000000000000000000000081525081526020016040518060400160405280600681526020017f3236333133390000000000000000000000000000000000000000000000000000815250815260200160001515815260200160001515815260200160001515815250600860008373ffffffffffffffffffffffffffffffffffffffff1673ffffffffffffffffffffffffffffffffffffffff1681526020019081526020016000206000820151816000015560208201518160010160006101000a81548173ffffffffffffffffffffffffffffffffffffffff021916908373ffffffffffffffffffffffffffffffffffffffff160217905550604082015181600201908051906020019062001320929190620024ca565b5060608201518160030160006101000a81548173ffffffffffffffffffffffffffffffffffffffff021916908373ffffffffffffffffffffffffffffffffffffffff160217905550608082015181600401908051906020019062001386929190620024ca565b5060a0820151816005019080519060200190620013a5929190620024ca565b5060c0820151816006019080519060200190620013c4929190620024ca565b5060e0820151816007019080519060200190620013e3929190620024ca565b506101008201518160080160006101000a81548160ff0219169083151502179055506101208201518160080160016101000a81548160ff0219169083151502179055506101408201518160080160026101000a81548160ff02191690831515021790555090505060008067ffffffffffffffff8111156200148d577f4e487b7100000000000000000000000000000000000000000000000000000000600052604160045260246000fd5b604051908082528060200260200182016040528015620014bc5781602001602082028036833780820191505090505b509050600060078190555060076000815480929190620014dc9062002649565b9190505550735d2cf9b829ea3d1d428aee131909d2b63921eeac91506003829080600181540180825580915050600190039060005260206000200160009091909190916101000a81548173ffffffffffffffffffffffffffffffffffffffff021916908373ffffffffffffffffffffffffffffffffffffffff16021790555060405180610140016040528060075481526020018373ffffffffffffffffffffffffffffffffffffffff1681526020016040518060400160405280600b81526020017f53616a616c2053696e676800000000000000000000000000000000000000000081525081526020016040518060400160405280600981526020017f42616e67616c6f7265000000000000000000000000000000000000000000000081525081526020018281526020016040518060400160405280601781526020017f73616a616c2e73696e6768406f75746c6f6f6b2e636f6d00000000000000000081525081526020016040518060400160405280600d81526020017f2b3931373537393234353933390000000000000000000000000000000000000081525081526020016347868c0081526020016001815260200160011515815250600960008473ffffffffffffffffffffffffffffffffffffffff1673ffffffffffffffffffffffffffffffffffffffff1681526020019081526020016000206000820151816000015560208201518160010160006101000a81548173ffffffffffffffffffffffffffffffffffffffff021916908373ffffffffffffffffffffffffffffffffffffffff160217905550604082015181600201908051906020019062001743929190620024ca565b50606082015181600301908051906020019062001762929190620024ca565b506080820151816004019080519060200190620017819291906200255b565b5060a0820151816005019080519060200190620017a0929190620024ca565b5060c0820151816006019080519060200190620017bf929190620024ca565b5060e0820151816007015561010082015181600801556101208201518160090160006101000a81548160ff021916908315150217905550905050600760008154809291906200180e9062002649565b9190505550730f341a3ffd5af4f2112a201f109a482445fb97ae91506003829080600181540180825580915050600190039060005260206000200160009091909190916101000a81548173ffffffffffffffffffffffffffffffffffffffff021916908373ffffffffffffffffffffffffffffffffffffffff16021790555060405180610140016040528060075481526020018373ffffffffffffffffffffffffffffffffffffffff1681526020016040518060400160405280600a81526020017f446164612053696e67680000000000000000000000000000000000000000000081525081526020016040518060400160405280600981526020017f42616e67616c6f7265000000000000000000000000000000000000000000000081525081526020018281526020016040518060400160405280601581526020017f646164612e73696e6768406f75746c6f6f6b2e696e000000000000000000000081525081526020016040518060400160405280600d81526020017f2b3931393638373534353636370000000000000000000000000000000000000081525081526020016347868c0081526020016002815260200160011515815250600960008473ffffffffffffffffffffffffffffffffffffffff1673ffffffffffffffffffffffffffffffffffffffff1681526020019081526020016000206000820151816000015560208201518160010160006101000a81548173ffffffffffffffffffffffffffffffffffffffff021916908373ffffffffffffffffffffffffffffffffffffffff160217905550604082015181600201908051906020019062001a75929190620024ca565b50606082015181600301908051906020019062001a94929190620024ca565b50608082015181600401908051906020019062001ab39291906200255b565b5060a082015181600501908051906020019062001ad2929190620024ca565b5060c082015181600601908051906020019062001af1929190620024ca565b5060e0820151816007015561010082015181600801556101208201518160090160006101000a81548160ff0219169083151502179055509050506007600081548092919062001b409062002649565b919050555073110a50271a65ee265a4b4457ac412c76c979167891506003829080600181540180825580915050600190039060005260206000200160009091909190916101000a81548173ffffffffffffffffffffffffffffffffffffffff021916908373ffffffffffffffffffffffffffffffffffffffff16021790555060405180610140016040528060075481526020018373ffffffffffffffffffffffffffffffffffffffff1681526020016040518060400160405280600d81526020017f536175726162682053696e67680000000000000000000000000000000000000081525081526020016040518060400160405280600981526020017f42616e67616c6f7265000000000000000000000000000000000000000000000081525081526020018281526020016040518060400160405280601381526020017f73617572616268406f75746c6f6f6b2e636f6d0000000000000000000000000081525081526020016040518060400160405280600d81526020017f2b3931383930393532343030390000000000000000000000000000000000000081525081526020016347868c0081526020016002815260200160011515815250600960008473ffffffffffffffffffffffffffffffffffffffff1673ffffffffffffffffffffffffffffffffffffffff1681526020019081526020016000206000820151816000015560208201518160010160006101000a81548173ffffffffffffffffffffffffffffffffffffffff021916908373ffffffffffffffffffffffffffffffffffffffff160217905550604082015181600201908051906020019062001da7929190620024ca565b50606082015181600301908051906020019062001dc6929190620024ca565b50608082015181600401908051906020019062001de59291906200255b565b5060a082015181600501908051906020019062001e04929190620024ca565b5060c082015181600601908051906020019062001e23929190620024ca565b5060e0820151816007015561010082015181600801556101208201518160090160006101000a81548160ff0219169083151502179055509050506007600081548092919062001e729062002649565b919050555073d3b7f2a8e0eda1b2c6a0b49c6c79ca9a3996c2aa91506003829080600181540180825580915050600190039060005260206000200160009091909190916101000a81548173ffffffffffffffffffffffffffffffffffffffff021916908373ffffffffffffffffffffffffffffffffffffffff16021790555060405180610140016040528060075481526020018373ffffffffffffffffffffffffffffffffffffffff1681526020016040518060400160405280600c81526020017f416e6a616e20536865747479000000000000000000000000000000000000000081525081526020016040518060400160405280600981526020017f42616e67616c6f7265000000000000000000000000000000000000000000000081525081526020018281526020016040518060400160405280601281526020017f616e6a616e4069696974622e6f72672e696e000000000000000000000000000081525081526020016040518060400160405280600d81526020017f2b3931393431313130373336300000000000000000000000000000000000000081525081526020016347868c0081526020016002815260200160011515815250600960008473ffffffffffffffffffffffffffffffffffffffff1673ffffffffffffffffffffffffffffffffffffffff1681526020019081526020016000206000820151816000015560208201518160010160006101000a81548173ffffffffffffffffffffffffffffffffffffffff021916908373ffffffffffffffffffffffffffffffffffffffff1602179055506040820151816002019080519060200190620020d9929190620024ca565b506060820151816003019080519060200190620020f8929190620024ca565b506080820151816004019080519060200190620021179291906200255b565b5060a082015181600501908051906020019062002136929190620024ca565b5060c082015181600601908051906020019062002155929190620024ca565b5060e0820151816007015561010082015181600801556101208201518160090160006101000a81548160ff02191690831515021790555090505060076000815480929190620021a49062002649565b919050555073d39cd70f514a0814c2fc59350e11aa0eba2b8ce891506003829080600181540180825580915050600190039060005260206000200160009091909190916101000a81548173ffffffffffffffffffffffffffffffffffffffff021916908373ffffffffffffffffffffffffffffffffffffffff16021790555060405180610140016040528060075481526020018373ffffffffffffffffffffffffffffffffffffffff1681526020016040518060400160405280600c81526020017f446164612044756e67656f6e000000000000000000000000000000000000000081525081526020016040518060400160405280600981526020017f42616e67616c6f7265000000000000000000000000000000000000000000000081525081526020018281526020016040518060400160405280600681526020017f656d61696f6c000000000000000000000000000000000000000000000000000081525081526020016040518060400160405280600981526020017f6f626f666464736661000000000000000000000000000000000000000000000081525081526020016347868c0081526020016002815260200160011515815250600960008473ffffffffffffffffffffffffffffffffffffffff1673ffffffffffffffffffffffffffffffffffffffff1681526020019081526020016000206000820151816000015560208201518160010160006101000a81548173ffffffffffffffffffffffffffffffffffffffff021916908373ffffffffffffffffffffffffffffffffffffffff16021790555060408201518160020190805190602001906200240b929190620024ca565b5060608201518160030190805190602001906200242a929190620024ca565b506080820151816004019080519060200190620024499291906200255b565b5060a082015181600501908051906020019062002468929190620024ca565b5060c082015181600601908051906020019062002487929190620024ca565b5060e0820151816007015561010082015181600801556101208201518160090160006101000a81548160ff021916908315150217905550905050505050620026f5565b828054620024d89062002613565b90600052602060002090601f016020900481019282620024fc576000855562002548565b82601f106200251757805160ff191683800117855562002548565b8280016001018555821562002548579182015b82811115620025475782518255916020019190600101906200252a565b5b509050620025579190620025ea565b5090565b828054828255906000526020600020908101928215620025d7579160200282015b82811115620025d65782518260006101000a81548173ffffffffffffffffffffffffffffffffffffffff021916908373ffffffffffffffffffffffffffffffffffffffff160217905550916020019190600101906200257c565b5b509050620025e69190620025ea565b5090565b5b8082111562002605576000816000905550600101620025eb565b5090565b6000819050919050565b600060028204905060018216806200262c57607f821691505b60208210811415620026435762002642620026c6565b5b50919050565b6000620026568262002609565b91507fffffffffffffffffffffffffffffffffffffffffffffffffffffffffffffffff8214156200268c576200268b62002697565b5b600182019050919050565b7f4e487b7100000000000000000000000000000000000000000000000000000000600052601160045260246000fd5b7f4e487b7100000000000000000000000000000000000000000000000000000000600052602260045260246000fd5b61382680620027056000396000f3fe6080604052600436106101355760003560e01c8063ab7e7cf6116100ab578063d52e528e1161006f578063d52e528e14610420578063e02c8dd314610449578063e2842d7914610453578063f234687d1461047e578063f46fb1b6146104bb578063f851a440146104e457610135565b8063ab7e7cf614610352578063b37a3d821461038f578063b6b55f25146103ab578063c29b50bb146103c7578063d4fac45d1461040457610135565b80635dafcda7116100fd5780635dafcda7146101e457806372eb7b6014610221578063757bf8cd146102665780637bc9883c146102915780639741edef146102ce57806399b956a01461030b57610135565b806304a15d741461013a57806308fb670c14610165578063159e875d1461016f5780631d1bea79146101ac57806350a1e16a146101c8575b600080fd5b34801561014657600080fd5b5061014f61050f565b60405161015c9190613278565b60405180910390f35b61016d61059d565b005b34801561017b57600080fd5b5061019660048036038101906101919190612f0c565b611184565b6040516101a3919061329a565b60405180910390f35b6101c660048036038101906101c19190613060565b6111e3565b005b6101e260048036038101906101dd9190612f0c565b611448565b005b3480156101f057600080fd5b5061020b60048036038101906102069190612f0c565b6116c1565b604051610218919061325d565b60405180910390f35b34801561022d57600080fd5b5061024860048036038101906102439190612ee3565b61172d565b60405161025d99989796959493929190613383565b60405180910390f35b34801561027257600080fd5b5061027b6119c8565b6040516102889190613278565b60405180910390f35b34801561029d57600080fd5b506102b860048036038101906102b39190613149565b611a56565b6040516102c5919061325d565b60405180910390f35b3480156102da57600080fd5b506102f560048036038101906102f09190613149565b611a95565b604051610302919061325d565b60405180910390f35b34801561031757600080fd5b50610332600480360381019061032d9190612ee3565b611ad4565b6040516103499b9a999897969594939291906132b5565b60405180910390f35b34801561035e57600080fd5b5061037960048036038101906103749190612f0c565b611e3d565b604051610386919061329a565b60405180910390f35b6103a960048036038101906103a49190612f71565b611e9c565b005b6103c560048036038101906103c09190613149565b612194565b005b3480156103d357600080fd5b506103ee60048036038101906103e99190612f0c565b6121a3565b6040516103fb9190613278565b60405180910390f35b61041e60048036038101906104199190612f35565b612273565b005b34801561042c57600080fd5b5061044760048036038101906104429190612f0c565b612316565b005b610451612374565b005b34801561045f57600080fd5b506104686129fd565b6040516104759190613278565b60405180910390f35b34801561048a57600080fd5b506104a560048036038101906104a09190613149565b612a8b565b6040516104b2919061325d565b60405180910390f35b3480156104c757600080fd5b506104e260048036038101906104dd9190613149565b612aca565b005b3480156104f057600080fd5b506104f9612ceb565b604051610506919061325d565b60405180910390f35b6060600380548060200260200160405190810160405280929190818152602001828054801561059357602002820191906000526020600020905b8160009054906101000a900473ffffffffffffffffffffffffffffffffffffffff1673ffffffffffffffffffffffffffffffffffffffff1681526020019060010190808311610549575b5050505050905090565b600033905060008060096000600860008673ffffffffffffffffffffffffffffffffffffffff1673ffffffffffffffffffffffffffffffffffffffff16815260200190815260200160002060030160009054906101000a900473ffffffffffffffffffffffffffffffffffffffff1673ffffffffffffffffffffffffffffffffffffffff1673ffffffffffffffffffffffffffffffffffffffff1681526020019081526020016000206004018054905090505b808210156107aa578273ffffffffffffffffffffffffffffffffffffffff1660096000600860008773ffffffffffffffffffffffffffffffffffffffff1673ffffffffffffffffffffffffffffffffffffffff16815260200190815260200160002060030160009054906101000a900473ffffffffffffffffffffffffffffffffffffffff1673ffffffffffffffffffffffffffffffffffffffff1673ffffffffffffffffffffffffffffffffffffffff168152602001908152602001600020600401838154811061074b577f4e487b7100000000000000000000000000000000000000000000000000000000600052603260045260246000fd5b9060005260206000200160009054906101000a900473ffffffffffffffffffffffffffffffffffffffff1673ffffffffffffffffffffffffffffffffffffffff161415610797576107aa565b81806107a290613695565b925050610650565b60096000600860008673ffffffffffffffffffffffffffffffffffffffff1673ffffffffffffffffffffffffffffffffffffffff16815260200190815260200160002060030160009054906101000a900473ffffffffffffffffffffffffffffffffffffffff1673ffffffffffffffffffffffffffffffffffffffff1673ffffffffffffffffffffffffffffffffffffffff1681526020019081526020016000206004018054905082141561090857600860008473ffffffffffffffffffffffffffffffffffffffff1673ffffffffffffffffffffffffffffffffffffffff16815260200190815260200160002060030160009054906101000a900473ffffffffffffffffffffffffffffffffffffffff1673ffffffffffffffffffffffffffffffffffffffff166108fc60009081150290604051600060405180830381858888f19350505050158015610902573d6000803e3d6000fd5b5061117f565b6000606460096000600860008873ffffffffffffffffffffffffffffffffffffffff1673ffffffffffffffffffffffffffffffffffffffff16815260200190815260200160002060030160009054906101000a900473ffffffffffffffffffffffffffffffffffffffff1673ffffffffffffffffffffffffffffffffffffffff1673ffffffffffffffffffffffffffffffffffffffff16815260200190815260200160002060070154605f6109bd9190613508565b60096000600860008973ffffffffffffffffffffffffffffffffffffffff1673ffffffffffffffffffffffffffffffffffffffff16815260200190815260200160002060030160009054906101000a900473ffffffffffffffffffffffffffffffffffffffff1673ffffffffffffffffffffffffffffffffffffffff1673ffffffffffffffffffffffffffffffffffffffff168152602001908152602001600020600701546064610a6e9190613508565b610a789190613562565b610a8291906134d7565b905060008054906101000a900473ffffffffffffffffffffffffffffffffffffffff1673ffffffffffffffffffffffffffffffffffffffff166108fc829081150290604051600060405180830381858888f19350505050158015610aea573d6000803e3d6000fd5b50600860008573ffffffffffffffffffffffffffffffffffffffff1673ffffffffffffffffffffffffffffffffffffffff16815260200190815260200160002060030160009054906101000a900473ffffffffffffffffffffffffffffffffffffffff1673ffffffffffffffffffffffffffffffffffffffff166108fc606460096000600860008a73ffffffffffffffffffffffffffffffffffffffff1673ffffffffffffffffffffffffffffffffffffffff16815260200190815260200160002060030160009054906101000a900473ffffffffffffffffffffffffffffffffffffffff1673ffffffffffffffffffffffffffffffffffffffff1673ffffffffffffffffffffffffffffffffffffffff16815260200190815260200160002060070154605a610c1a9190613508565b610c2491906134d7565b9081150290604051600060405180830381858888f19350505050158015610c4f573d6000803e3d6000fd5b5060096000600860008773ffffffffffffffffffffffffffffffffffffffff1673ffffffffffffffffffffffffffffffffffffffff16815260200190815260200160002060030160009054906101000a900473ffffffffffffffffffffffffffffffffffffffff1673ffffffffffffffffffffffffffffffffffffffff1673ffffffffffffffffffffffffffffffffffffffff168152602001908152602001600020600401600183610d019190613562565b81548110610d38577f4e487b7100000000000000000000000000000000000000000000000000000000600052603260045260246000fd5b9060005260206000200160009054906101000a900473ffffffffffffffffffffffffffffffffffffffff1660096000600860008873ffffffffffffffffffffffffffffffffffffffff1673ffffffffffffffffffffffffffffffffffffffff16815260200190815260200160002060030160009054906101000a900473ffffffffffffffffffffffffffffffffffffffff1673ffffffffffffffffffffffffffffffffffffffff1673ffffffffffffffffffffffffffffffffffffffff1681526020019081526020016000206004018481548110610e3f577f4e487b7100000000000000000000000000000000000000000000000000000000600052603260045260246000fd5b9060005260206000200160006101000a81548173ffffffffffffffffffffffffffffffffffffffff021916908373ffffffffffffffffffffffffffffffffffffffff1602179055508360096000600860008873ffffffffffffffffffffffffffffffffffffffff1673ffffffffffffffffffffffffffffffffffffffff16815260200190815260200160002060030160009054906101000a900473ffffffffffffffffffffffffffffffffffffffff1673ffffffffffffffffffffffffffffffffffffffff1673ffffffffffffffffffffffffffffffffffffffff168152602001908152602001600020600401600184610f399190613562565b81548110610f70577f4e487b7100000000000000000000000000000000000000000000000000000000600052603260045260246000fd5b9060005260206000200160006101000a81548173ffffffffffffffffffffffffffffffffffffffff021916908373ffffffffffffffffffffffffffffffffffffffff16021790555060096000600860008773ffffffffffffffffffffffffffffffffffffffff1673ffffffffffffffffffffffffffffffffffffffff16815260200190815260200160002060030160009054906101000a900473ffffffffffffffffffffffffffffffffffffffff1673ffffffffffffffffffffffffffffffffffffffff1673ffffffffffffffffffffffffffffffffffffffff168152602001908152602001600020600401805480611092577f4e487b7100000000000000000000000000000000000000000000000000000000600052603160045260246000fd5b6001900381819060005260206000200160006101000a81549073ffffffffffffffffffffffffffffffffffffffff021916905590556000600860008673ffffffffffffffffffffffffffffffffffffffff1673ffffffffffffffffffffffffffffffffffffffff16815260200190815260200160002060080160006101000a81548160ff0219169083151502179055506000600860008673ffffffffffffffffffffffffffffffffffffffff1673ffffffffffffffffffffffffffffffffffffffff16815260200190815260200160002060080160016101000a81548160ff021916908315150217905550505b505050565b600080600960008473ffffffffffffffffffffffffffffffffffffffff1673ffffffffffffffffffffffffffffffffffffffff1681526020019081526020016000206000015411156111d957600190506111de565b600090505b919050565b600760008154809291906111f690613695565b91905055506005600081548092919061120e90613695565b919050555060006001905060003390506003819080600181540180825580915050600190039060005260206000200160009091909190916101000a81548173ffffffffffffffffffffffffffffffffffffffff021916908373ffffffffffffffffffffffffffffffffffffffff160217905550606060405180610140016040528060055481526020018373ffffffffffffffffffffffffffffffffffffffff1681526020018a8152602001898152602001828152602001888152602001878152602001868152602001858152602001841515815250600960008473ffffffffffffffffffffffffffffffffffffffff1673ffffffffffffffffffffffffffffffffffffffff1681526020019081526020016000206000820151816000015560208201518160010160006101000a81548173ffffffffffffffffffffffffffffffffffffffff021916908373ffffffffffffffffffffffffffffffffffffffff160217905550604082015181600201908051906020019061138f929190612d0f565b5060608201518160030190805190602001906113ac929190612d0f565b5060808201518160040190805190602001906113c9929190612d95565b5060a08201518160050190805190602001906113e6929190612d0f565b5060c0820151816006019080519060200190611403929190612d0f565b5060e0820151816007015561010082015181600801556101208201518160090160006101000a81548160ff021916908315150217905550905050505050505050505050565b6000339050600960008373ffffffffffffffffffffffffffffffffffffffff1673ffffffffffffffffffffffffffffffffffffffff1681526020019081526020016000206007015434146114e2578073ffffffffffffffffffffffffffffffffffffffff166108fc349081150290604051600060405180830381858888f193505050501580156114dc573d6000803e3d6000fd5b506116bd565b81600860008373ffffffffffffffffffffffffffffffffffffffff1673ffffffffffffffffffffffffffffffffffffffff16815260200190815260200160002060030160006101000a81548173ffffffffffffffffffffffffffffffffffffffff021916908373ffffffffffffffffffffffffffffffffffffffff160217905550600960008373ffffffffffffffffffffffffffffffffffffffff1673ffffffffffffffffffffffffffffffffffffffff168152602001908152602001600020600401819080600181540180825580915050600190039060005260206000200160009091909190916101000a81548173ffffffffffffffffffffffffffffffffffffffff021916908373ffffffffffffffffffffffffffffffffffffffff1602179055506001600860008373ffffffffffffffffffffffffffffffffffffffff1673ffffffffffffffffffffffffffffffffffffffff16815260200190815260200160002060080160006101000a81548160ff0219169083151502179055506000600860008373ffffffffffffffffffffffffffffffffffffffff1673ffffffffffffffffffffffffffffffffffffffff16815260200190815260200160002060080160026101000a81548160ff0219169083151502179055505b5050565b6000600860008373ffffffffffffffffffffffffffffffffffffffff1673ffffffffffffffffffffffffffffffffffffffff16815260200190815260200160002060030160009054906101000a900473ffffffffffffffffffffffffffffffffffffffff169050919050565b60096020528060005260406000206000915090508060000154908060010160009054906101000a900473ffffffffffffffffffffffffffffffffffffffff169080600201805461177c90613632565b80601f01602080910402602001604051908101604052809291908181526020018280546117a890613632565b80156117f55780601f106117ca576101008083540402835291602001916117f5565b820191906000526020600020905b8154815290600101906020018083116117d857829003601f168201915b50505050509080600301805461180a90613632565b80601f016020809104026020016040519081016040528092919081815260200182805461183690613632565b80156118835780601f1061185857610100808354040283529160200191611883565b820191906000526020600020905b81548152906001019060200180831161186657829003601f168201915b50505050509080600501805461189890613632565b80601f01602080910402602001604051908101604052809291908181526020018280546118c490613632565b80156119115780601f106118e657610100808354040283529160200191611911565b820191906000526020600020905b8154815290600101906020018083116118f457829003601f168201915b50505050509080600601805461192690613632565b80601f016020809104026020016040519081016040528092919081815260200182805461195290613632565b801561199f5780601f106119745761010080835404028352916020019161199f565b820191906000526020600020905b81548152906001019060200180831161198257829003601f168201915b5050505050908060070154908060080154908060090160009054906101000a900460ff16905089565b60606001805480602002602001604051908101604052809291908181526020018280548015611a4c57602002820191906000526020600020905b8160009054906101000a900473ffffffffffffffffffffffffffffffffffffffff1673ffffffffffffffffffffffffffffffffffffffff1681526020019060010190808311611a02575b5050505050905090565b60038181548110611a6657600080fd5b906000526020600020016000915054906101000a900473ffffffffffffffffffffffffffffffffffffffff1681565b60018181548110611aa557600080fd5b906000526020600020016000915054906101000a900473ffffffffffffffffffffffffffffffffffffffff1681565b60086020528060005260406000206000915090508060000154908060010160009054906101000a900473ffffffffffffffffffffffffffffffffffffffff1690806002018054611b2390613632565b80601f0160208091040260200160405190810160405280929190818152602001828054611b4f90613632565b8015611b9c5780601f10611b7157610100808354040283529160200191611b9c565b820191906000526020600020905b815481529060010190602001808311611b7f57829003601f168201915b5050505050908060030160009054906101000a900473ffffffffffffffffffffffffffffffffffffffff1690806004018054611bd790613632565b80601f0160208091040260200160405190810160405280929190818152602001828054611c0390613632565b8015611c505780601f10611c2557610100808354040283529160200191611c50565b820191906000526020600020905b815481529060010190602001808311611c3357829003601f168201915b505050505090806005018054611c6590613632565b80601f0160208091040260200160405190810160405280929190818152602001828054611c9190613632565b8015611cde5780601f10611cb357610100808354040283529160200191611cde565b820191906000526020600020905b815481529060010190602001808311611cc157829003601f168201915b505050505090806006018054611cf390613632565b80601f0160208091040260200160405190810160405280929190818152602001828054611d1f90613632565b8015611d6c5780601f10611d4157610100808354040283529160200191611d6c565b820191906000526020600020905b815481529060010190602001808311611d4f57829003601f168201915b505050505090806007018054611d8190613632565b80601f0160208091040260200160405190810160405280929190818152602001828054611dad90613632565b8015611dfa5780601f10611dcf57610100808354040283529160200191611dfa565b820191906000526020600020905b815481529060010190602001808311611ddd57829003601f168201915b5050505050908060080160009054906101000a900460ff16908060080160019054906101000a900460ff16908060080160029054906101000a900460ff1690508b565b600080600860008473ffffffffffffffffffffffffffffffffffffffff1673ffffffffffffffffffffffffffffffffffffffff168152602001908152602001600020600001541115611e925760019050611e97565b600090505b919050565b60066000815480929190611eaf90613695565b919050555060046000815480929190611ec790613695565b919050555060003390506000806000806002859080600181540180825580915050600190039060005260206000200160009091909190916101000a81548173ffffffffffffffffffffffffffffffffffffffff021916908373ffffffffffffffffffffffffffffffffffffffff16021790555060405180610160016040528060045481526020018673ffffffffffffffffffffffffffffffffffffffff1681526020018a81526020018573ffffffffffffffffffffffffffffffffffffffff1681526020018b815260200189815260200188815260200187815260200184151581526020018315158152602001821515815250600860008773ffffffffffffffffffffffffffffffffffffffff1673ffffffffffffffffffffffffffffffffffffffff1681526020019081526020016000206000820151816000015560208201518160010160006101000a81548173ffffffffffffffffffffffffffffffffffffffff021916908373ffffffffffffffffffffffffffffffffffffffff1602179055506040820151816002019080519060200190612066929190612d0f565b5060608201518160030160006101000a81548173ffffffffffffffffffffffffffffffffffffffff021916908373ffffffffffffffffffffffffffffffffffffffff16021790555060808201518160040190805190602001906120ca929190612d0f565b5060a08201518160050190805190602001906120e7929190612d0f565b5060c0820151816006019080519060200190612104929190612d0f565b5060e0820151816007019080519060200190612121929190612d0f565b506101008201518160080160006101000a81548160ff0219169083151502179055506101208201518160080160016101000a81548160ff0219169083151502179055506101408201518160080160026101000a81548160ff02191690831515021790555090505050505050505050505050565b8034146121a057600080fd5b50565b6060600960008373ffffffffffffffffffffffffffffffffffffffff1673ffffffffffffffffffffffffffffffffffffffff16815260200190815260200160002060040180548060200260200160405190810160405280929190818152602001828054801561226757602002820191906000526020600020905b8160009054906101000a900473ffffffffffffffffffffffffffffffffffffffff1673ffffffffffffffffffffffffffffffffffffffff168152602001906001019080831161221d575b50505050509050919050565b8173ffffffffffffffffffffffffffffffffffffffff166108fc600960008473ffffffffffffffffffffffffffffffffffffffff1673ffffffffffffffffffffffffffffffffffffffff16815260200190815260200160002060070154476122db9190613562565b476122e69190613562565b9081150290604051600060405180830381858888f19350505050158015612311573d6000803e3d6000fd5b505050565b6001600860008373ffffffffffffffffffffffffffffffffffffffff1673ffffffffffffffffffffffffffffffffffffffff16815260200190815260200160002060080160016101000a81548160ff02191690831515021790555050565b600033905060011515600960008373ffffffffffffffffffffffffffffffffffffffff1673ffffffffffffffffffffffffffffffffffffffff16815260200190815260200160002060090160009054906101000a900460ff161515141561299e576000600960008373ffffffffffffffffffffffffffffffffffffffff1673ffffffffffffffffffffffffffffffffffffffff16815260200190815260200160002060090160006101000a81548160ff0219169083151502179055506000805b600960008473ffffffffffffffffffffffffffffffffffffffff1673ffffffffffffffffffffffffffffffffffffffff1681526020019081526020016000206004018054905082101561299757600960008473ffffffffffffffffffffffffffffffffffffffff1673ffffffffffffffffffffffffffffffffffffffff16815260200190815260200160002060040182815481106124fb577f4e487b7100000000000000000000000000000000000000000000000000000000600052603260045260246000fd5b9060005260206000200160009054906101000a900473ffffffffffffffffffffffffffffffffffffffff16905060001515600860008373ffffffffffffffffffffffffffffffffffffffff1673ffffffffffffffffffffffffffffffffffffffff16815260200190815260200160002060080160019054906101000a900460ff1615151415612983576000600960008573ffffffffffffffffffffffffffffffffffffffff1673ffffffffffffffffffffffffffffffffffffffff1681526020019081526020016000206004018054905090506000600860008473ffffffffffffffffffffffffffffffffffffffff1673ffffffffffffffffffffffffffffffffffffffff16815260200190815260200160002060080160006101000a81548160ff0219169083151502179055506001600860008473ffffffffffffffffffffffffffffffffffffffff1673ffffffffffffffffffffffffffffffffffffffff16815260200190815260200160002060080160026101000a81548160ff02191690831515021790555061268e8285612273565b600960008573ffffffffffffffffffffffffffffffffffffffff1673ffffffffffffffffffffffffffffffffffffffff1681526020019081526020016000206004016001826126dd9190613562565b81548110612714577f4e487b7100000000000000000000000000000000000000000000000000000000600052603260045260246000fd5b9060005260206000200160009054906101000a900473ffffffffffffffffffffffffffffffffffffffff16600960008673ffffffffffffffffffffffffffffffffffffffff1673ffffffffffffffffffffffffffffffffffffffff16815260200190815260200160002060040184815481106127b9577f4e487b7100000000000000000000000000000000000000000000000000000000600052603260045260246000fd5b9060005260206000200160006101000a81548173ffffffffffffffffffffffffffffffffffffffff021916908373ffffffffffffffffffffffffffffffffffffffff16021790555081600960008673ffffffffffffffffffffffffffffffffffffffff1673ffffffffffffffffffffffffffffffffffffffff1681526020019081526020016000206004016001836128519190613562565b81548110612888577f4e487b7100000000000000000000000000000000000000000000000000000000600052603260045260246000fd5b9060005260206000200160006101000a81548173ffffffffffffffffffffffffffffffffffffffff021916908373ffffffffffffffffffffffffffffffffffffffff160217905550600960008573ffffffffffffffffffffffffffffffffffffffff1673ffffffffffffffffffffffffffffffffffffffff168152602001908152602001600020600401805480612948577f4e487b7100000000000000000000000000000000000000000000000000000000600052603160045260246000fd5b6001900381819060005260206000200160006101000a81549073ffffffffffffffffffffffffffffffffffffffff0219169055905550612992565b818061298e90613695565b9250505b612434565b50506129fa565b6001600960008373ffffffffffffffffffffffffffffffffffffffff1673ffffffffffffffffffffffffffffffffffffffff16815260200190815260200160002060090160006101000a81548160ff0219169083151502179055505b50565b60606002805480602002602001604051908101604052809291908181526020018280548015612a8157602002820191906000526020600020905b8160009054906101000a900473ffffffffffffffffffffffffffffffffffffffff1673ffffffffffffffffffffffffffffffffffffffff1681526020019060010190808311612a37575b5050505050905090565b60028181548110612a9b57600080fd5b906000526020600020016000915054906101000a900473ffffffffffffffffffffffffffffffffffffffff1681565b600067ffffffffffffffff811115612b0b577f4e487b7100000000000000000000000000000000000000000000000000000000600052604160045260246000fd5b604051908082528060200260200182016040528015612b395781602001602082028036833780820191505090505b5060019080519060200190612b4f929190612d95565b5060005b600380549050811015612ce757816009600060038481548110612b9f577f4e487b7100000000000000000000000000000000000000000000000000000000600052603260045260246000fd5b9060005260206000200160009054906101000a900473ffffffffffffffffffffffffffffffffffffffff1673ffffffffffffffffffffffffffffffffffffffff1673ffffffffffffffffffffffffffffffffffffffff168152602001908152602001600020600801541415612cd657600160038281548110612c4a577f4e487b7100000000000000000000000000000000000000000000000000000000600052603260045260246000fd5b9060005260206000200160009054906101000a900473ffffffffffffffffffffffffffffffffffffffff169080600181540180825580915050600190039060005260206000200160009091909190916101000a81548173ffffffffffffffffffffffffffffffffffffffff021916908373ffffffffffffffffffffffffffffffffffffffff1602179055505b80612ce090613695565b9050612b53565b5050565b60008054906101000a900473ffffffffffffffffffffffffffffffffffffffff1681565b828054612d1b90613632565b90600052602060002090601f016020900481019282612d3d5760008555612d84565b82601f10612d5657805160ff1916838001178555612d84565b82800160010185558215612d84579182015b82811115612d83578251825591602001919060010190612d68565b5b509050612d919190612e1f565b5090565b828054828255906000526020600020908101928215612e0e579160200282015b82811115612e0d5782518260006101000a81548173ffffffffffffffffffffffffffffffffffffffff021916908373ffffffffffffffffffffffffffffffffffffffff16021790555091602001919060010190612db5565b5b509050612e1b9190612e1f565b5090565b5b80821115612e38576000816000905550600101612e20565b5090565b6000612e4f612e4a84613451565b61342c565b905082815260208101848484011115612e6757600080fd5b612e728482856135f0565b509392505050565b600081359050612e89816137ab565b92915050565b600081359050612e9e816137c2565b92915050565b600082601f830112612eb557600080fd5b8135612ec5848260208601612e3c565b91505092915050565b600081359050612edd816137d9565b92915050565b600060208284031215612ef557600080fd5b6000612f0384828501612e7a565b91505092915050565b600060208284031215612f1e57600080fd5b6000612f2c84828501612e8f565b91505092915050565b60008060408385031215612f4857600080fd5b6000612f5685828601612e8f565b9250506020612f6785828601612e8f565b9150509250929050565b600080600080600060a08688031215612f8957600080fd5b600086013567ffffffffffffffff811115612fa357600080fd5b612faf88828901612ea4565b955050602086013567ffffffffffffffff811115612fcc57600080fd5b612fd888828901612ea4565b945050604086013567ffffffffffffffff811115612ff557600080fd5b61300188828901612ea4565b935050606086013567ffffffffffffffff81111561301e57600080fd5b61302a88828901612ea4565b925050608086013567ffffffffffffffff81111561304757600080fd5b61305388828901612ea4565b9150509295509295909350565b60008060008060008060c0878903121561307957600080fd5b600087013567ffffffffffffffff81111561309357600080fd5b61309f89828a01612ea4565b965050602087013567ffffffffffffffff8111156130bc57600080fd5b6130c889828a01612ea4565b955050604087013567ffffffffffffffff8111156130e557600080fd5b6130f189828a01612ea4565b945050606087013567ffffffffffffffff81111561310e57600080fd5b61311a89828a01612ea4565b935050608061312b89828a01612ece565b92505060a061313c89828a01612ece565b9150509295509295509295565b60006020828403121561315b57600080fd5b600061316984828501612ece565b91505092915050565b600061317e838361318a565b60208301905092915050565b613193816135a8565b82525050565b6131a2816135a8565b82525050565b60006131b382613492565b6131bd81856134b5565b93506131c883613482565b8060005b838110156131f95781516131e08882613172565b97506131eb836134a8565b9250506001810190506131cc565b5085935050505092915050565b61320f816135ba565b82525050565b60006132208261349d565b61322a81856134c6565b935061323a8185602086016135ff565b6132438161379a565b840191505092915050565b613257816135e6565b82525050565b60006020820190506132726000830184613199565b92915050565b6000602082019050818103600083015261329281846131a8565b905092915050565b60006020820190506132af6000830184613206565b92915050565b6000610160820190506132cb600083018e61324e565b6132d8602083018d613199565b81810360408301526132ea818c613215565b90506132f9606083018b613199565b818103608083015261330b818a613215565b905081810360a083015261331f8189613215565b905081810360c08301526133338188613215565b905081810360e08301526133478187613215565b9050613357610100830186613206565b613365610120830185613206565b613373610140830184613206565b9c9b505050505050505050505050565b600061012082019050613399600083018c61324e565b6133a6602083018b613199565b81810360408301526133b8818a613215565b905081810360608301526133cc8189613215565b905081810360808301526133e08188613215565b905081810360a08301526133f48187613215565b905061340360c083018661324e565b61341060e083018561324e565b61341e610100830184613206565b9a9950505050505050505050565b6000613436613447565b90506134428282613664565b919050565b6000604051905090565b600067ffffffffffffffff82111561346c5761346b61376b565b5b6134758261379a565b9050602081019050919050565b6000819050602082019050919050565b600081519050919050565b600081519050919050565b6000602082019050919050565b600082825260208201905092915050565b600082825260208201905092915050565b60006134e2826135e6565b91506134ed836135e6565b9250826134fd576134fc61370d565b5b828204905092915050565b6000613513826135e6565b915061351e836135e6565b9250817fffffffffffffffffffffffffffffffffffffffffffffffffffffffffffffffff0483118215151615613557576135566136de565b5b828202905092915050565b600061356d826135e6565b9150613578836135e6565b92508282101561358b5761358a6136de565b5b828203905092915050565b60006135a1826135c6565b9050919050565b60006135b3826135c6565b9050919050565b60008115159050919050565b600073ffffffffffffffffffffffffffffffffffffffff82169050919050565b6000819050919050565b82818337600083830152505050565b60005b8381101561361d578082015181840152602081019050613602565b8381111561362c576000848401525b50505050565b6000600282049050600182168061364a57607f821691505b6020821081141561365e5761365d61373c565b5b50919050565b61366d8261379a565b810181811067ffffffffffffffff8211171561368c5761368b61376b565b5b80604052505050565b60006136a0826135e6565b91507fffffffffffffffffffffffffffffffffffffffffffffffffffffffffffffffff8214156136d3576136d26136de565b5b600182019050919050565b7f4e487b7100000000000000000000000000000000000000000000000000000000600052601160045260246000fd5b7f4e487b7100000000000000000000000000000000000000000000000000000000600052601260045260246000fd5b7f4e487b7100000000000000000000000000000000000000000000000000000000600052602260045260246000fd5b7f4e487b7100000000000000000000000000000000000000000000000000000000600052604160045260246000fd5b6000601f19601f8301169050919050565b6137b481613596565b81146137bf57600080fd5b50565b6137cb816135a8565b81146137d657600080fd5b50565b6137e2816135e6565b81146137ed57600080fd5b5056fea264697066735822122054404a83ddc89c1542a8438b408086bc3cec7301674135225e49a6300608720864736f6c63430008020033","compiler":{"name":"solc","version":"0.8.2+commit.661d1103.Emscripten.clang"},"updatedAt":"2021-04-21T03:54:27.254Z","sourcePath":"/home/builduser/teams_workingdir/repo/contracts/Model.sol","networkType":"ethereum","contractName":"Model","schemaVersion":"3.3.4","immutableReferences":{}}