{
  "contractName": "Model",
  "abi": [
    {
      "inputs": [],
      "stateMutability": "nonpayable",
      "type": "constructor"
    },
    {
      "inputs": [
        {
          "internalType": "address",
          "name": "",
          "type": "address"
        }
      ],
      "name": "ServiceProviders",
      "outputs": [
        {
          "internalType": "uint256",
          "name": "id",
          "type": "uint256"
        },
        {
          "internalType": "address payable",
          "name": "Address",
          "type": "address"
        },
        {
          "internalType": "string",
          "name": "name",
          "type": "string"
        },
        {
          "internalType": "string",
          "name": "city",
          "type": "string"
        },
        {
          "internalType": "string",
          "name": "phone",
          "type": "string"
        },
        {
          "internalType": "string",
          "name": "email",
          "type": "string"
        },
        {
          "internalType": "uint256",
          "name": "charges",
          "type": "uint256"
        },
        {
          "internalType": "uint256",
          "name": "service_type",
          "type": "uint256"
        }
      ],
      "stateMutability": "view",
      "type": "function",
      "constant": true
    },
    {
      "inputs": [
        {
          "internalType": "address",
          "name": "",
          "type": "address"
        }
      ],
      "name": "Users",
      "outputs": [
        {
          "internalType": "uint256",
          "name": "id",
          "type": "uint256"
        },
        {
          "internalType": "address payable",
          "name": "Address",
          "type": "address"
        },
        {
          "internalType": "string",
          "name": "home_address",
          "type": "string"
        },
        {
          "internalType": "address payable",
          "name": "sp",
          "type": "address"
        },
        {
          "internalType": "string",
          "name": "name",
          "type": "string"
        },
        {
          "internalType": "string",
          "name": "city",
          "type": "string"
        },
        {
          "internalType": "string",
          "name": "email",
          "type": "string"
        },
        {
          "internalType": "string",
          "name": "phone",
          "type": "string"
        }
      ],
      "stateMutability": "view",
      "type": "function",
      "constant": true
    },
    {
      "inputs": [],
      "name": "admin",
      "outputs": [
        {
          "internalType": "address payable",
          "name": "",
          "type": "address"
        }
      ],
      "stateMutability": "view",
      "type": "function",
      "constant": true
    },
    {
      "inputs": [
        {
          "internalType": "uint256",
          "name": "",
          "type": "uint256"
        }
      ],
      "name": "service_providers",
      "outputs": [
        {
          "internalType": "address payable",
          "name": "",
          "type": "address"
        }
      ],
      "stateMutability": "view",
      "type": "function",
      "constant": true
    },
    {
      "inputs": [
        {
          "internalType": "uint256",
          "name": "",
          "type": "uint256"
        }
      ],
      "name": "sp_Addresses",
      "outputs": [
        {
          "internalType": "address payable",
          "name": "",
          "type": "address"
        }
      ],
      "stateMutability": "view",
      "type": "function",
      "constant": true
    },
    {
      "inputs": [
        {
          "internalType": "uint256",
          "name": "",
          "type": "uint256"
        }
      ],
      "name": "user_Addresses",
      "outputs": [
        {
          "internalType": "address payable",
          "name": "",
          "type": "address"
        }
      ],
      "stateMutability": "view",
      "type": "function",
      "constant": true
    },
    {
      "inputs": [
        {
          "internalType": "string",
          "name": "name",
          "type": "string"
        },
        {
          "internalType": "string",
          "name": "home_address",
          "type": "string"
        },
        {
          "internalType": "string",
          "name": "city",
          "type": "string"
        },
        {
          "internalType": "string",
          "name": "email",
          "type": "string"
        },
        {
          "internalType": "string",
          "name": "phone",
          "type": "string"
        }
      ],
      "name": "addUser",
      "outputs": [],
      "stateMutability": "payable",
      "type": "function",
      "payable": true
    },
    {
      "inputs": [],
      "name": "getAllUsers",
      "outputs": [
        {
          "internalType": "address payable[]",
          "name": "",
          "type": "address[]"
        }
      ],
      "stateMutability": "view",
      "type": "function",
      "constant": true
    },
    {
      "inputs": [
        {
          "internalType": "address payable",
          "name": "Address",
          "type": "address"
        }
      ],
      "name": "userExist",
      "outputs": [
        {
          "internalType": "bool",
          "name": "",
          "type": "bool"
        }
      ],
      "stateMutability": "view",
      "type": "function",
      "constant": true
    },
    {
      "inputs": [
        {
          "internalType": "string",
          "name": "name",
          "type": "string"
        },
        {
          "internalType": "string",
          "name": "city",
          "type": "string"
        },
        {
          "internalType": "string",
          "name": "email",
          "type": "string"
        },
        {
          "internalType": "string",
          "name": "phone",
          "type": "string"
        },
        {
          "internalType": "uint256",
          "name": "charges",
          "type": "uint256"
        },
        {
          "internalType": "uint256",
          "name": "service_type",
          "type": "uint256"
        }
      ],
      "name": "addServiceProvider",
      "outputs": [],
      "stateMutability": "payable",
      "type": "function",
      "payable": true
    },
    {
      "inputs": [
        {
          "internalType": "uint256",
          "name": "service_type",
          "type": "uint256"
        }
      ],
      "name": "render_List",
      "outputs": [],
      "stateMutability": "nonpayable",
      "type": "function"
    },
    {
      "inputs": [],
      "name": "return_rendered_List",
      "outputs": [
        {
          "internalType": "address payable[]",
          "name": "",
          "type": "address[]"
        }
      ],
      "stateMutability": "view",
      "type": "function",
      "constant": true
    },
    {
      "inputs": [],
      "name": "getAllServiceProviders",
      "outputs": [
        {
          "internalType": "address payable[]",
          "name": "",
          "type": "address[]"
        }
      ],
      "stateMutability": "view",
      "type": "function",
      "constant": true
    },
    {
      "inputs": [
        {
          "internalType": "address payable",
          "name": "sp",
          "type": "address"
        }
      ],
      "name": "requestService",
      "outputs": [],
      "stateMutability": "payable",
      "type": "function",
      "payable": true
    },
    {
      "inputs": [],
      "name": "servicecompleted",
      "outputs": [],
      "stateMutability": "payable",
      "type": "function",
      "payable": true
    }
  ],
  "bytecode": "0x608060405260006004556000600555600060065560006007553480156200002557600080fd5b506000600681905550336000806101000a81548173ffffffffffffffffffffffffffffffffffffffff021916908373ffffffffffffffffffffffffffffffffffffffff160217905550600060066000815480929190620000859062002301565b9190505550600073dcad3a6d3569df655070ded06cb7a1b2ccd1d3af90506002819080600181540180825580915050600190039060005260206000200160009091909190916101000a81548173ffffffffffffffffffffffffffffffffffffffff021916908373ffffffffffffffffffffffffffffffffffffffff16021790555060405180610100016040528060065481526020018273ffffffffffffffffffffffffffffffffffffffff1681526020016040518060400160405280600481526020017f414243440000000000000000000000000000000000000000000000000000000081525081526020018373ffffffffffffffffffffffffffffffffffffffff1681526020016040518060400160405280600881526020017f426875776e65736800000000000000000000000000000000000000000000000081525081526020016040518060400160405280600981526020017f42616e67616c6f7265000000000000000000000000000000000000000000000081525081526020016040518060400160405280601381526020017f626875776e6573682e31323640676d2e636f6d0000000000000000000000000081525081526020016040518060400160405280600681526020017f3236333133390000000000000000000000000000000000000000000000000000815250815250600860008373ffffffffffffffffffffffffffffffffffffffff1673ffffffffffffffffffffffffffffffffffffffff1681526020019081526020016000206000820151816000015560208201518160010160006101000a81548173ffffffffffffffffffffffffffffffffffffffff021916908373ffffffffffffffffffffffffffffffffffffffff16021790555060408201518160020190805190602001906200032592919062002182565b5060608201518160030160006101000a81548173ffffffffffffffffffffffffffffffffffffffff021916908373ffffffffffffffffffffffffffffffffffffffff16021790555060808201518160040190805190602001906200038b92919062002182565b5060a0820151816005019080519060200190620003aa92919062002182565b5060c0820151816006019080519060200190620003c992919062002182565b5060e0820151816007019080519060200190620003e892919062002182565b5090505073626c16139e73fa877ec4b2bbad02c824c8e95bc090506002819080600181540180825580915050600190039060005260206000200160009091909190916101000a81548173ffffffffffffffffffffffffffffffffffffffff021916908373ffffffffffffffffffffffffffffffffffffffff160217905550600660008154809291906200047b9062002301565b919050555060405180610100016040528060065481526020018273ffffffffffffffffffffffffffffffffffffffff1681526020016040518060400160405280600481526020017f414243440000000000000000000000000000000000000000000000000000000081525081526020018373ffffffffffffffffffffffffffffffffffffffff1681526020016040518060400160405280600881526020017f426875776e65736800000000000000000000000000000000000000000000000081525081526020016040518060400160405280600981526020017f42616e67616c6f7265000000000000000000000000000000000000000000000081525081526020016040518060400160405280601381526020017f626875776e6573682e31323640676d2e636f6d0000000000000000000000000081525081526020016040518060400160405280600681526020017f3236333133390000000000000000000000000000000000000000000000000000815250815250600860008373ffffffffffffffffffffffffffffffffffffffff1673ffffffffffffffffffffffffffffffffffffffff1681526020019081526020016000206000820151816000015560208201518160010160006101000a81548173ffffffffffffffffffffffffffffffffffffffff021916908373ffffffffffffffffffffffffffffffffffffffff16021790555060408201518160020190805190602001906200069f92919062002182565b5060608201518160030160006101000a81548173ffffffffffffffffffffffffffffffffffffffff021916908373ffffffffffffffffffffffffffffffffffffffff16021790555060808201518160040190805190602001906200070592919062002182565b5060a08201518160050190805190602001906200072492919062002182565b5060c08201518160060190805190602001906200074392919062002182565b5060e08201518160070190805190602001906200076292919062002182565b509050507355dbd85eb48a426a9075c059fb719ca843a1e8ee90506002819080600181540180825580915050600190039060005260206000200160009091909190916101000a81548173ffffffffffffffffffffffffffffffffffffffff021916908373ffffffffffffffffffffffffffffffffffffffff16021790555060066000815480929190620007f59062002301565b919050555060405180610100016040528060065481526020018273ffffffffffffffffffffffffffffffffffffffff1681526020016040518060400160405280600481526020017f414243440000000000000000000000000000000000000000000000000000000081525081526020018373ffffffffffffffffffffffffffffffffffffffff1681526020016040518060400160405280600881526020017f426875776e65736800000000000000000000000000000000000000000000000081525081526020016040518060400160405280600981526020017f42616e67616c6f7265000000000000000000000000000000000000000000000081525081526020016040518060400160405280601381526020017f626875776e6573682e31323640676d2e636f6d0000000000000000000000000081525081526020016040518060400160405280600681526020017f3236333133390000000000000000000000000000000000000000000000000000815250815250600860008373ffffffffffffffffffffffffffffffffffffffff1673ffffffffffffffffffffffffffffffffffffffff1681526020019081526020016000206000820151816000015560208201518160010160006101000a81548173ffffffffffffffffffffffffffffffffffffffff021916908373ffffffffffffffffffffffffffffffffffffffff160217905550604082015181600201908051906020019062000a1992919062002182565b5060608201518160030160006101000a81548173ffffffffffffffffffffffffffffffffffffffff021916908373ffffffffffffffffffffffffffffffffffffffff160217905550608082015181600401908051906020019062000a7f92919062002182565b5060a082015181600501908051906020019062000a9e92919062002182565b5060c082015181600601908051906020019062000abd92919062002182565b5060e082015181600701908051906020019062000adc92919062002182565b50905050730bbc5d5d3d89b3a213c420a9630c72c0966c8b7190506002819080600181540180825580915050600190039060005260206000200160009091909190916101000a81548173ffffffffffffffffffffffffffffffffffffffff021916908373ffffffffffffffffffffffffffffffffffffffff1602179055506006600081548092919062000b6f9062002301565b919050555060405180610100016040528060065481526020018273ffffffffffffffffffffffffffffffffffffffff1681526020016040518060400160405280600481526020017f414243440000000000000000000000000000000000000000000000000000000081525081526020018373ffffffffffffffffffffffffffffffffffffffff1681526020016040518060400160405280600881526020017f426875776e65736800000000000000000000000000000000000000000000000081525081526020016040518060400160405280600981526020017f42616e67616c6f7265000000000000000000000000000000000000000000000081525081526020016040518060400160405280601381526020017f626875776e6573682e31323640676d2e636f6d0000000000000000000000000081525081526020016040518060400160405280600681526020017f3236333133390000000000000000000000000000000000000000000000000000815250815250600860008373ffffffffffffffffffffffffffffffffffffffff1673ffffffffffffffffffffffffffffffffffffffff1681526020019081526020016000206000820151816000015560208201518160010160006101000a81548173ffffffffffffffffffffffffffffffffffffffff021916908373ffffffffffffffffffffffffffffffffffffffff160217905550604082015181600201908051906020019062000d9392919062002182565b5060608201518160030160006101000a81548173ffffffffffffffffffffffffffffffffffffffff021916908373ffffffffffffffffffffffffffffffffffffffff160217905550608082015181600401908051906020019062000df992919062002182565b5060a082015181600501908051906020019062000e1892919062002182565b5060c082015181600601908051906020019062000e3792919062002182565b5060e082015181600701908051906020019062000e5692919062002182565b5090505073c6d640ce6a7431be86eda5af05873662aa560d4090506002819080600181540180825580915050600190039060005260206000200160009091909190916101000a81548173ffffffffffffffffffffffffffffffffffffffff021916908373ffffffffffffffffffffffffffffffffffffffff1602179055506006600081548092919062000ee99062002301565b919050555060405180610100016040528060065481526020018273ffffffffffffffffffffffffffffffffffffffff1681526020016040518060400160405280600481526020017f414243440000000000000000000000000000000000000000000000000000000081525081526020018373ffffffffffffffffffffffffffffffffffffffff1681526020016040518060400160405280600881526020017f426875776e65736800000000000000000000000000000000000000000000000081525081526020016040518060400160405280600981526020017f42616e67616c6f7265000000000000000000000000000000000000000000000081525081526020016040518060400160405280601381526020017f626875776e6573682e31323640676d2e636f6d0000000000000000000000000081525081526020016040518060400160405280600681526020017f3236333133390000000000000000000000000000000000000000000000000000815250815250600860008373ffffffffffffffffffffffffffffffffffffffff1673ffffffffffffffffffffffffffffffffffffffff1681526020019081526020016000206000820151816000015560208201518160010160006101000a81548173ffffffffffffffffffffffffffffffffffffffff021916908373ffffffffffffffffffffffffffffffffffffffff16021790555060408201518160020190805190602001906200110d92919062002182565b5060608201518160030160006101000a81548173ffffffffffffffffffffffffffffffffffffffff021916908373ffffffffffffffffffffffffffffffffffffffff16021790555060808201518160040190805190602001906200117392919062002182565b5060a08201518160050190805190602001906200119292919062002182565b5060c0820151816006019080519060200190620011b192919062002182565b5060e0820151816007019080519060200190620011d092919062002182565b5090505060008067ffffffffffffffff81111562001217577f4e487b7100000000000000000000000000000000000000000000000000000000600052604160045260246000fd5b604051908082528060200260200182016040528015620012465781602001602082028036833780820191505090505b509050600060078190555060076000815480929190620012669062002301565b9190505550735d2cf9b829ea3d1d428aee131909d2b63921eeac91506003829080600181540180825580915050600190039060005260206000200160009091909190916101000a81548173ffffffffffffffffffffffffffffffffffffffff021916908373ffffffffffffffffffffffffffffffffffffffff16021790555060405180610120016040528060075481526020018373ffffffffffffffffffffffffffffffffffffffff1681526020016040518060400160405280600c81526020017f446164612044756e67656f6e000000000000000000000000000000000000000081525081526020016040518060400160405280600681526020017f4c61686f7265000000000000000000000000000000000000000000000000000081525081526020018281526020016040518060400160405280600681526020017f656d61696f6c000000000000000000000000000000000000000000000000000081525081526020016040518060400160405280600981526020017f6f626f666464736661000000000000000000000000000000000000000000000081525081526020016347868c0081526020016001815250600960008473ffffffffffffffffffffffffffffffffffffffff1673ffffffffffffffffffffffffffffffffffffffff1681526020019081526020016000206000820151816000015560208201518160010160006101000a81548173ffffffffffffffffffffffffffffffffffffffff021916908373ffffffffffffffffffffffffffffffffffffffff1602179055506040820151816002019080519060200190620014c492919062002182565b506060820151816003019080519060200190620014e392919062002182565b5060808201518160040190805190602001906200150292919062002213565b5060a08201518160050190805190602001906200152192919062002182565b5060c08201518160060190805190602001906200154092919062002182565b5060e082015181600701556101008201518160080155905050600760008154809291906200156e9062002301565b9190505550730f341a3ffd5af4f2112a201f109a482445fb97ae91506003829080600181540180825580915050600190039060005260206000200160009091909190916101000a81548173ffffffffffffffffffffffffffffffffffffffff021916908373ffffffffffffffffffffffffffffffffffffffff16021790555060405180610120016040528060075481526020018373ffffffffffffffffffffffffffffffffffffffff1681526020016040518060400160405280600c81526020017f446164612044756e67656f6e000000000000000000000000000000000000000081525081526020016040518060400160405280600681526020017f4c61686f7265000000000000000000000000000000000000000000000000000081525081526020018281526020016040518060400160405280600681526020017f656d61696f6c000000000000000000000000000000000000000000000000000081525081526020016040518060400160405280600981526020017f6f626f666464736661000000000000000000000000000000000000000000000081525081526020016347868c0081526020016002815250600960008473ffffffffffffffffffffffffffffffffffffffff1673ffffffffffffffffffffffffffffffffffffffff1681526020019081526020016000206000820151816000015560208201518160010160006101000a81548173ffffffffffffffffffffffffffffffffffffffff021916908373ffffffffffffffffffffffffffffffffffffffff1602179055506040820151816002019080519060200190620017cc92919062002182565b506060820151816003019080519060200190620017eb92919062002182565b5060808201518160040190805190602001906200180a92919062002213565b5060a08201518160050190805190602001906200182992919062002182565b5060c08201518160060190805190602001906200184892919062002182565b5060e08201518160070155610100820151816008015590505060076000815480929190620018769062002301565b919050555073110a50271a65ee265a4b4457ac412c76c979167891506003829080600181540180825580915050600190039060005260206000200160009091909190916101000a81548173ffffffffffffffffffffffffffffffffffffffff021916908373ffffffffffffffffffffffffffffffffffffffff16021790555060405180610120016040528060075481526020018373ffffffffffffffffffffffffffffffffffffffff1681526020016040518060400160405280600c81526020017f446164612044756e67656f6e000000000000000000000000000000000000000081525081526020016040518060400160405280600681526020017f4c61686f7265000000000000000000000000000000000000000000000000000081525081526020018281526020016040518060400160405280600681526020017f656d61696f6c000000000000000000000000000000000000000000000000000081525081526020016040518060400160405280600981526020017f6f626f666464736661000000000000000000000000000000000000000000000081525081526020016347868c0081526020016002815250600960008473ffffffffffffffffffffffffffffffffffffffff1673ffffffffffffffffffffffffffffffffffffffff1681526020019081526020016000206000820151816000015560208201518160010160006101000a81548173ffffffffffffffffffffffffffffffffffffffff021916908373ffffffffffffffffffffffffffffffffffffffff160217905550604082015181600201908051906020019062001ad492919062002182565b50606082015181600301908051906020019062001af392919062002182565b50608082015181600401908051906020019062001b1292919062002213565b5060a082015181600501908051906020019062001b3192919062002182565b5060c082015181600601908051906020019062001b5092919062002182565b5060e0820151816007015561010082015181600801559050506007600081548092919062001b7e9062002301565b919050555073d3b7f2a8e0eda1b2c6a0b49c6c79ca9a3996c2aa91506003829080600181540180825580915050600190039060005260206000200160009091909190916101000a81548173ffffffffffffffffffffffffffffffffffffffff021916908373ffffffffffffffffffffffffffffffffffffffff16021790555060405180610120016040528060075481526020018373ffffffffffffffffffffffffffffffffffffffff1681526020016040518060400160405280600c81526020017f446164612044756e67656f6e000000000000000000000000000000000000000081525081526020016040518060400160405280600681526020017f4c61686f7265000000000000000000000000000000000000000000000000000081525081526020018281526020016040518060400160405280600681526020017f656d61696f6c000000000000000000000000000000000000000000000000000081525081526020016040518060400160405280600981526020017f6f626f666464736661000000000000000000000000000000000000000000000081525081526020016347868c0081526020016002815250600960008473ffffffffffffffffffffffffffffffffffffffff1673ffffffffffffffffffffffffffffffffffffffff1681526020019081526020016000206000820151816000015560208201518160010160006101000a81548173ffffffffffffffffffffffffffffffffffffffff021916908373ffffffffffffffffffffffffffffffffffffffff160217905550604082015181600201908051906020019062001ddc92919062002182565b50606082015181600301908051906020019062001dfb92919062002182565b50608082015181600401908051906020019062001e1a92919062002213565b5060a082015181600501908051906020019062001e3992919062002182565b5060c082015181600601908051906020019062001e5892919062002182565b5060e0820151816007015561010082015181600801559050506007600081548092919062001e869062002301565b919050555073d39cd70f514a0814c2fc59350e11aa0eba2b8ce891506003829080600181540180825580915050600190039060005260206000200160009091909190916101000a81548173ffffffffffffffffffffffffffffffffffffffff021916908373ffffffffffffffffffffffffffffffffffffffff16021790555060405180610120016040528060075481526020018373ffffffffffffffffffffffffffffffffffffffff1681526020016040518060400160405280600c81526020017f446164612044756e67656f6e000000000000000000000000000000000000000081525081526020016040518060400160405280600681526020017f4c61686f7265000000000000000000000000000000000000000000000000000081525081526020018281526020016040518060400160405280600681526020017f656d61696f6c000000000000000000000000000000000000000000000000000081525081526020016040518060400160405280600981526020017f6f626f666464736661000000000000000000000000000000000000000000000081525081526020016347868c0081526020016002815250600960008473ffffffffffffffffffffffffffffffffffffffff1673ffffffffffffffffffffffffffffffffffffffff1681526020019081526020016000206000820151816000015560208201518160010160006101000a81548173ffffffffffffffffffffffffffffffffffffffff021916908373ffffffffffffffffffffffffffffffffffffffff1602179055506040820151816002019080519060200190620020e492919062002182565b5060608201518160030190805190602001906200210392919062002182565b5060808201518160040190805190602001906200212292919062002213565b5060a08201518160050190805190602001906200214192919062002182565b5060c08201518160060190805190602001906200216092919062002182565b5060e082015181600701556101008201518160080155905050505050620023ad565b8280546200219090620022cb565b90600052602060002090601f016020900481019282620021b4576000855562002200565b82601f10620021cf57805160ff191683800117855562002200565b8280016001018555821562002200579182015b82811115620021ff578251825591602001919060010190620021e2565b5b5090506200220f9190620022a2565b5090565b8280548282559060005260206000209081019282156200228f579160200282015b828111156200228e5782518260006101000a81548173ffffffffffffffffffffffffffffffffffffffff021916908373ffffffffffffffffffffffffffffffffffffffff1602179055509160200191906001019062002234565b5b5090506200229e9190620022a2565b5090565b5b80821115620022bd576000816000905550600101620022a3565b5090565b6000819050919050565b60006002820490506001821680620022e457607f821691505b60208210811415620022fb57620022fa6200237e565b5b50919050565b60006200230e82620022c1565b91507fffffffffffffffffffffffffffffffffffffffffffffffffffffffffffffffff8214156200234457620023436200234f565b5b600182019050919050565b7f4e487b7100000000000000000000000000000000000000000000000000000000600052601160045260246000fd5b7f4e487b7100000000000000000000000000000000000000000000000000000000600052602260045260246000fd5b612a9d80620023bd6000396000f3fe6080604052600436106100e85760003560e01c80639741edef1161008a578063e2842d7911610059578063e2842d79146102e0578063f234687d1461030b578063f46fb1b614610348578063f851a44014610371576100e8565b80639741edef1461020657806399b956a014610243578063ab7e7cf614610287578063b37a3d82146102c4576100e8565b806350a1e16a116100c657806350a1e16a1461013e57806372eb7b601461015a578063757bf8cd1461019e5780637bc9883c146101c9576100e8565b806304a15d74146100ed57806308fb670c146101185780631d1bea7914610122575b600080fd5b3480156100f957600080fd5b5061010261039c565b60405161010f919061252b565b60405180910390f35b61012061042a565b005b61013c60048036038101906101379190612313565b610f5b565b005b610158600480360381019061015391906121fb565b611190565b005b34801561016657600080fd5b50610181600480360381019061017c91906121d2565b611353565b604051610195989796959493929190612609565b60405180910390f35b3480156101aa57600080fd5b506101b36115db565b6040516101c0919061252b565b60405180910390f35b3480156101d557600080fd5b506101f060048036038101906101eb91906123fc565b611669565b6040516101fd9190612510565b60405180910390f35b34801561021257600080fd5b5061022d600480360381019061022891906123fc565b6116a8565b60405161023a9190612510565b60405180910390f35b34801561024f57600080fd5b5061026a600480360381019061026591906121d2565b6116e7565b60405161027e989796959493929190612568565b60405180910390f35b34801561029357600080fd5b506102ae60048036038101906102a991906121fb565b611a17565b6040516102bb919061254d565b60405180910390f35b6102de60048036038101906102d99190612224565b611a76565b005b3480156102ec57600080fd5b506102f5611cec565b604051610302919061252b565b60405180910390f35b34801561031757600080fd5b50610332600480360381019061032d91906123fc565b611d7a565b60405161033f9190612510565b60405180910390f35b34801561035457600080fd5b5061036f600480360381019061036a91906123fc565b611db9565b005b34801561037d57600080fd5b50610386611fda565b6040516103939190612510565b60405180910390f35b6060600380548060200260200160405190810160405280929190818152602001828054801561042057602002820191906000526020600020905b8160009054906101000a900473ffffffffffffffffffffffffffffffffffffffff1673ffffffffffffffffffffffffffffffffffffffff16815260200190600101908083116103d6575b5050505050905090565b600033905060008060096000600860008673ffffffffffffffffffffffffffffffffffffffff1673ffffffffffffffffffffffffffffffffffffffff16815260200190815260200160002060030160009054906101000a900473ffffffffffffffffffffffffffffffffffffffff1673ffffffffffffffffffffffffffffffffffffffff1673ffffffffffffffffffffffffffffffffffffffff1681526020019081526020016000206004018054905090505b80821015610637578273ffffffffffffffffffffffffffffffffffffffff1660096000600860008773ffffffffffffffffffffffffffffffffffffffff1673ffffffffffffffffffffffffffffffffffffffff16815260200190815260200160002060030160009054906101000a900473ffffffffffffffffffffffffffffffffffffffff1673ffffffffffffffffffffffffffffffffffffffff1673ffffffffffffffffffffffffffffffffffffffff16815260200190815260200160002060040183815481106105d8577f4e487b7100000000000000000000000000000000000000000000000000000000600052603260045260246000fd5b9060005260206000200160009054906101000a900473ffffffffffffffffffffffffffffffffffffffff1673ffffffffffffffffffffffffffffffffffffffff16141561062457610637565b818061062f9061290c565b9250506104dd565b60096000600860008673ffffffffffffffffffffffffffffffffffffffff1673ffffffffffffffffffffffffffffffffffffffff16815260200190815260200160002060030160009054906101000a900473ffffffffffffffffffffffffffffffffffffffff1673ffffffffffffffffffffffffffffffffffffffff1673ffffffffffffffffffffffffffffffffffffffff1681526020019081526020016000206004018054905082141561079557600860008473ffffffffffffffffffffffffffffffffffffffff1673ffffffffffffffffffffffffffffffffffffffff16815260200190815260200160002060030160009054906101000a900473ffffffffffffffffffffffffffffffffffffffff1673ffffffffffffffffffffffffffffffffffffffff166108fc60009081150290604051600060405180830381858888f1935050505015801561078f573d6000803e3d6000fd5b50610f56565b6000606460096000600860008873ffffffffffffffffffffffffffffffffffffffff1673ffffffffffffffffffffffffffffffffffffffff16815260200190815260200160002060030160009054906101000a900473ffffffffffffffffffffffffffffffffffffffff1673ffffffffffffffffffffffffffffffffffffffff1673ffffffffffffffffffffffffffffffffffffffff16815260200190815260200160002060070154605f61084a919061277f565b60096000600860008973ffffffffffffffffffffffffffffffffffffffff1673ffffffffffffffffffffffffffffffffffffffff16815260200190815260200160002060030160009054906101000a900473ffffffffffffffffffffffffffffffffffffffff1673ffffffffffffffffffffffffffffffffffffffff1673ffffffffffffffffffffffffffffffffffffffff1681526020019081526020016000206007015460646108fb919061277f565b61090591906127d9565b61090f919061274e565b905060008054906101000a900473ffffffffffffffffffffffffffffffffffffffff1673ffffffffffffffffffffffffffffffffffffffff166108fc829081150290604051600060405180830381858888f19350505050158015610977573d6000803e3d6000fd5b50600860008573ffffffffffffffffffffffffffffffffffffffff1673ffffffffffffffffffffffffffffffffffffffff16815260200190815260200160002060030160009054906101000a900473ffffffffffffffffffffffffffffffffffffffff1673ffffffffffffffffffffffffffffffffffffffff166108fc606460096000600860008a73ffffffffffffffffffffffffffffffffffffffff1673ffffffffffffffffffffffffffffffffffffffff16815260200190815260200160002060030160009054906101000a900473ffffffffffffffffffffffffffffffffffffffff1673ffffffffffffffffffffffffffffffffffffffff1673ffffffffffffffffffffffffffffffffffffffff16815260200190815260200160002060070154605a610aa7919061277f565b610ab1919061274e565b9081150290604051600060405180830381858888f19350505050158015610adc573d6000803e3d6000fd5b5060096000600860008773ffffffffffffffffffffffffffffffffffffffff1673ffffffffffffffffffffffffffffffffffffffff16815260200190815260200160002060030160009054906101000a900473ffffffffffffffffffffffffffffffffffffffff1673ffffffffffffffffffffffffffffffffffffffff1673ffffffffffffffffffffffffffffffffffffffff168152602001908152602001600020600401600183610b8e91906127d9565b81548110610bc5577f4e487b7100000000000000000000000000000000000000000000000000000000600052603260045260246000fd5b9060005260206000200160009054906101000a900473ffffffffffffffffffffffffffffffffffffffff1660096000600860008873ffffffffffffffffffffffffffffffffffffffff1673ffffffffffffffffffffffffffffffffffffffff16815260200190815260200160002060030160009054906101000a900473ffffffffffffffffffffffffffffffffffffffff1673ffffffffffffffffffffffffffffffffffffffff1673ffffffffffffffffffffffffffffffffffffffff1681526020019081526020016000206004018481548110610ccc577f4e487b7100000000000000000000000000000000000000000000000000000000600052603260045260246000fd5b9060005260206000200160006101000a81548173ffffffffffffffffffffffffffffffffffffffff021916908373ffffffffffffffffffffffffffffffffffffffff1602179055508360096000600860008873ffffffffffffffffffffffffffffffffffffffff1673ffffffffffffffffffffffffffffffffffffffff16815260200190815260200160002060030160009054906101000a900473ffffffffffffffffffffffffffffffffffffffff1673ffffffffffffffffffffffffffffffffffffffff1673ffffffffffffffffffffffffffffffffffffffff168152602001908152602001600020600401600184610dc691906127d9565b81548110610dfd577f4e487b7100000000000000000000000000000000000000000000000000000000600052603260045260246000fd5b9060005260206000200160006101000a81548173ffffffffffffffffffffffffffffffffffffffff021916908373ffffffffffffffffffffffffffffffffffffffff16021790555060096000600860008773ffffffffffffffffffffffffffffffffffffffff1673ffffffffffffffffffffffffffffffffffffffff16815260200190815260200160002060030160009054906101000a900473ffffffffffffffffffffffffffffffffffffffff1673ffffffffffffffffffffffffffffffffffffffff1673ffffffffffffffffffffffffffffffffffffffff168152602001908152602001600020600401805480610f1f577f4e487b7100000000000000000000000000000000000000000000000000000000600052603160045260246000fd5b6001900381819060005260206000200160006101000a81549073ffffffffffffffffffffffffffffffffffffffff02191690559055505b505050565b60076000815480929190610f6e9061290c565b919050555060056000815480929190610f869061290c565b919050555060003390506003819080600181540180825580915050600190039060005260206000200160009091909190916101000a81548173ffffffffffffffffffffffffffffffffffffffff021916908373ffffffffffffffffffffffffffffffffffffffff160217905550606060405180610120016040528060055481526020018373ffffffffffffffffffffffffffffffffffffffff16815260200189815260200188815260200182815260200187815260200186815260200185815260200184815250600960008473ffffffffffffffffffffffffffffffffffffffff1673ffffffffffffffffffffffffffffffffffffffff1681526020019081526020016000206000820151816000015560208201518160010160006101000a81548173ffffffffffffffffffffffffffffffffffffffff021916908373ffffffffffffffffffffffffffffffffffffffff16021790555060408201518160020190805190602001906110f9929190611ffe565b506060820151816003019080519060200190611116929190611ffe565b506080820151816004019080519060200190611133929190612084565b5060a0820151816005019080519060200190611150929190611ffe565b5060c082015181600601908051906020019061116d929190611ffe565b5060e0820151816007015561010082015181600801559050505050505050505050565b6000339050600960008373ffffffffffffffffffffffffffffffffffffffff1673ffffffffffffffffffffffffffffffffffffffff16815260200190815260200160002060070154341461122a578073ffffffffffffffffffffffffffffffffffffffff166108fc349081150290604051600060405180830381858888f19350505050158015611224573d6000803e3d6000fd5b5061134f565b81600860008373ffffffffffffffffffffffffffffffffffffffff1673ffffffffffffffffffffffffffffffffffffffff16815260200190815260200160002060030160006101000a81548173ffffffffffffffffffffffffffffffffffffffff021916908373ffffffffffffffffffffffffffffffffffffffff160217905550600960008373ffffffffffffffffffffffffffffffffffffffff1673ffffffffffffffffffffffffffffffffffffffff168152602001908152602001600020600401819080600181540180825580915050600190039060005260206000200160009091909190916101000a81548173ffffffffffffffffffffffffffffffffffffffff021916908373ffffffffffffffffffffffffffffffffffffffff1602179055505b5050565b60096020528060005260406000206000915090508060000154908060010160009054906101000a900473ffffffffffffffffffffffffffffffffffffffff16908060020180546113a2906128a9565b80601f01602080910402602001604051908101604052809291908181526020018280546113ce906128a9565b801561141b5780601f106113f05761010080835404028352916020019161141b565b820191906000526020600020905b8154815290600101906020018083116113fe57829003601f168201915b505050505090806003018054611430906128a9565b80601f016020809104026020016040519081016040528092919081815260200182805461145c906128a9565b80156114a95780601f1061147e576101008083540402835291602001916114a9565b820191906000526020600020905b81548152906001019060200180831161148c57829003601f168201915b5050505050908060050180546114be906128a9565b80601f01602080910402602001604051908101604052809291908181526020018280546114ea906128a9565b80156115375780601f1061150c57610100808354040283529160200191611537565b820191906000526020600020905b81548152906001019060200180831161151a57829003601f168201915b50505050509080600601805461154c906128a9565b80601f0160208091040260200160405190810160405280929190818152602001828054611578906128a9565b80156115c55780601f1061159a576101008083540402835291602001916115c5565b820191906000526020600020905b8154815290600101906020018083116115a857829003601f168201915b5050505050908060070154908060080154905088565b6060600180548060200260200160405190810160405280929190818152602001828054801561165f57602002820191906000526020600020905b8160009054906101000a900473ffffffffffffffffffffffffffffffffffffffff1673ffffffffffffffffffffffffffffffffffffffff1681526020019060010190808311611615575b5050505050905090565b6003818154811061167957600080fd5b906000526020600020016000915054906101000a900473ffffffffffffffffffffffffffffffffffffffff1681565b600181815481106116b857600080fd5b906000526020600020016000915054906101000a900473ffffffffffffffffffffffffffffffffffffffff1681565b60086020528060005260406000206000915090508060000154908060010160009054906101000a900473ffffffffffffffffffffffffffffffffffffffff1690806002018054611736906128a9565b80601f0160208091040260200160405190810160405280929190818152602001828054611762906128a9565b80156117af5780601f10611784576101008083540402835291602001916117af565b820191906000526020600020905b81548152906001019060200180831161179257829003601f168201915b5050505050908060030160009054906101000a900473ffffffffffffffffffffffffffffffffffffffff16908060040180546117ea906128a9565b80601f0160208091040260200160405190810160405280929190818152602001828054611816906128a9565b80156118635780601f1061183857610100808354040283529160200191611863565b820191906000526020600020905b81548152906001019060200180831161184657829003601f168201915b505050505090806005018054611878906128a9565b80601f01602080910402602001604051908101604052809291908181526020018280546118a4906128a9565b80156118f15780601f106118c6576101008083540402835291602001916118f1565b820191906000526020600020905b8154815290600101906020018083116118d457829003601f168201915b505050505090806006018054611906906128a9565b80601f0160208091040260200160405190810160405280929190818152602001828054611932906128a9565b801561197f5780601f106119545761010080835404028352916020019161197f565b820191906000526020600020905b81548152906001019060200180831161196257829003601f168201915b505050505090806007018054611994906128a9565b80601f01602080910402602001604051908101604052809291908181526020018280546119c0906128a9565b8015611a0d5780601f106119e257610100808354040283529160200191611a0d565b820191906000526020600020905b8154815290600101906020018083116119f057829003601f168201915b5050505050905088565b600080600860008473ffffffffffffffffffffffffffffffffffffffff1673ffffffffffffffffffffffffffffffffffffffff168152602001908152602001600020600001541115611a6c5760019050611a71565b600090505b919050565b60066000815480929190611a899061290c565b919050555060046000815480929190611aa19061290c565b9190505550600033905060006002829080600181540180825580915050600190039060005260206000200160009091909190916101000a81548173ffffffffffffffffffffffffffffffffffffffff021916908373ffffffffffffffffffffffffffffffffffffffff16021790555060405180610100016040528060045481526020018373ffffffffffffffffffffffffffffffffffffffff1681526020018781526020018273ffffffffffffffffffffffffffffffffffffffff16815260200188815260200186815260200185815260200184815250600860008473ffffffffffffffffffffffffffffffffffffffff1673ffffffffffffffffffffffffffffffffffffffff1681526020019081526020016000206000820151816000015560208201518160010160006101000a81548173ffffffffffffffffffffffffffffffffffffffff021916908373ffffffffffffffffffffffffffffffffffffffff1602179055506040820151816002019080519060200190611c24929190611ffe565b5060608201518160030160006101000a81548173ffffffffffffffffffffffffffffffffffffffff021916908373ffffffffffffffffffffffffffffffffffffffff1602179055506080820151816004019080519060200190611c88929190611ffe565b5060a0820151816005019080519060200190611ca5929190611ffe565b5060c0820151816006019080519060200190611cc2929190611ffe565b5060e0820151816007019080519060200190611cdf929190611ffe565b5090505050505050505050565b60606002805480602002602001604051908101604052809291908181526020018280548015611d7057602002820191906000526020600020905b8160009054906101000a900473ffffffffffffffffffffffffffffffffffffffff1673ffffffffffffffffffffffffffffffffffffffff1681526020019060010190808311611d26575b5050505050905090565b60028181548110611d8a57600080fd5b906000526020600020016000915054906101000a900473ffffffffffffffffffffffffffffffffffffffff1681565b600067ffffffffffffffff811115611dfa577f4e487b7100000000000000000000000000000000000000000000000000000000600052604160045260246000fd5b604051908082528060200260200182016040528015611e285781602001602082028036833780820191505090505b5060019080519060200190611e3e929190612084565b5060005b600380549050811015611fd657816009600060038481548110611e8e577f4e487b7100000000000000000000000000000000000000000000000000000000600052603260045260246000fd5b9060005260206000200160009054906101000a900473ffffffffffffffffffffffffffffffffffffffff1673ffffffffffffffffffffffffffffffffffffffff1673ffffffffffffffffffffffffffffffffffffffff168152602001908152602001600020600801541415611fc557600160038281548110611f39577f4e487b7100000000000000000000000000000000000000000000000000000000600052603260045260246000fd5b9060005260206000200160009054906101000a900473ffffffffffffffffffffffffffffffffffffffff169080600181540180825580915050600190039060005260206000200160009091909190916101000a81548173ffffffffffffffffffffffffffffffffffffffff021916908373ffffffffffffffffffffffffffffffffffffffff1602179055505b80611fcf9061290c565b9050611e42565b5050565b60008054906101000a900473ffffffffffffffffffffffffffffffffffffffff1681565b82805461200a906128a9565b90600052602060002090601f01602090048101928261202c5760008555612073565b82601f1061204557805160ff1916838001178555612073565b82800160010185558215612073579182015b82811115612072578251825591602001919060010190612057565b5b509050612080919061210e565b5090565b8280548282559060005260206000209081019282156120fd579160200282015b828111156120fc5782518260006101000a81548173ffffffffffffffffffffffffffffffffffffffff021916908373ffffffffffffffffffffffffffffffffffffffff160217905550916020019190600101906120a4565b5b50905061210a919061210e565b5090565b5b8082111561212757600081600090555060010161210f565b5090565b600061213e612139846126c8565b6126a3565b90508281526020810184848401111561215657600080fd5b612161848285612867565b509392505050565b60008135905061217881612a22565b92915050565b60008135905061218d81612a39565b92915050565b600082601f8301126121a457600080fd5b81356121b484826020860161212b565b91505092915050565b6000813590506121cc81612a50565b92915050565b6000602082840312156121e457600080fd5b60006121f284828501612169565b91505092915050565b60006020828403121561220d57600080fd5b600061221b8482850161217e565b91505092915050565b600080600080600060a0868803121561223c57600080fd5b600086013567ffffffffffffffff81111561225657600080fd5b61226288828901612193565b955050602086013567ffffffffffffffff81111561227f57600080fd5b61228b88828901612193565b945050604086013567ffffffffffffffff8111156122a857600080fd5b6122b488828901612193565b935050606086013567ffffffffffffffff8111156122d157600080fd5b6122dd88828901612193565b925050608086013567ffffffffffffffff8111156122fa57600080fd5b61230688828901612193565b9150509295509295909350565b60008060008060008060c0878903121561232c57600080fd5b600087013567ffffffffffffffff81111561234657600080fd5b61235289828a01612193565b965050602087013567ffffffffffffffff81111561236f57600080fd5b61237b89828a01612193565b955050604087013567ffffffffffffffff81111561239857600080fd5b6123a489828a01612193565b945050606087013567ffffffffffffffff8111156123c157600080fd5b6123cd89828a01612193565b93505060806123de89828a016121bd565b92505060a06123ef89828a016121bd565b9150509295509295509295565b60006020828403121561240e57600080fd5b600061241c848285016121bd565b91505092915050565b6000612431838361243d565b60208301905092915050565b6124468161281f565b82525050565b6124558161281f565b82525050565b600061246682612709565b612470818561272c565b935061247b836126f9565b8060005b838110156124ac5781516124938882612425565b975061249e8361271f565b92505060018101905061247f565b5085935050505092915050565b6124c281612831565b82525050565b60006124d382612714565b6124dd818561273d565b93506124ed818560208601612876565b6124f681612a11565b840191505092915050565b61250a8161285d565b82525050565b6000602082019050612525600083018461244c565b92915050565b60006020820190508181036000830152612545818461245b565b905092915050565b600060208201905061256260008301846124b9565b92915050565b60006101008201905061257e600083018b612501565b61258b602083018a61244c565b818103604083015261259d81896124c8565b90506125ac606083018861244c565b81810360808301526125be81876124c8565b905081810360a08301526125d281866124c8565b905081810360c08301526125e681856124c8565b905081810360e08301526125fa81846124c8565b90509998505050505050505050565b60006101008201905061261f600083018b612501565b61262c602083018a61244c565b818103604083015261263e81896124c8565b9050818103606083015261265281886124c8565b9050818103608083015261266681876124c8565b905081810360a083015261267a81866124c8565b905061268960c0830185612501565b61269660e0830184612501565b9998505050505050505050565b60006126ad6126be565b90506126b982826128db565b919050565b6000604051905090565b600067ffffffffffffffff8211156126e3576126e26129e2565b5b6126ec82612a11565b9050602081019050919050565b6000819050602082019050919050565b600081519050919050565b600081519050919050565b6000602082019050919050565b600082825260208201905092915050565b600082825260208201905092915050565b60006127598261285d565b91506127648361285d565b92508261277457612773612984565b5b828204905092915050565b600061278a8261285d565b91506127958361285d565b9250817fffffffffffffffffffffffffffffffffffffffffffffffffffffffffffffffff04831182151516156127ce576127cd612955565b5b828202905092915050565b60006127e48261285d565b91506127ef8361285d565b92508282101561280257612801612955565b5b828203905092915050565b60006128188261283d565b9050919050565b600061282a8261283d565b9050919050565b60008115159050919050565b600073ffffffffffffffffffffffffffffffffffffffff82169050919050565b6000819050919050565b82818337600083830152505050565b60005b83811015612894578082015181840152602081019050612879565b838111156128a3576000848401525b50505050565b600060028204905060018216806128c157607f821691505b602082108114156128d5576128d46129b3565b5b50919050565b6128e482612a11565b810181811067ffffffffffffffff82111715612903576129026129e2565b5b80604052505050565b60006129178261285d565b91507fffffffffffffffffffffffffffffffffffffffffffffffffffffffffffffffff82141561294a57612949612955565b5b600182019050919050565b7f4e487b7100000000000000000000000000000000000000000000000000000000600052601160045260246000fd5b7f4e487b7100000000000000000000000000000000000000000000000000000000600052601260045260246000fd5b7f4e487b7100000000000000000000000000000000000000000000000000000000600052602260045260246000fd5b7f4e487b7100000000000000000000000000000000000000000000000000000000600052604160045260246000fd5b6000601f19601f8301169050919050565b612a2b8161280d565b8114612a3657600080fd5b50565b612a428161281f565b8114612a4d57600080fd5b50565b612a598161285d565b8114612a6457600080fd5b5056fea2646970667358221220f04985d72d3a6dfeca35af0e422ef2aca0cf07d1475bab5bb3357568c402da0f64736f6c63430008020033",
  "immutableReferences": {},
  "source": "//SPDX-License-Identifier: GPL-3.\npragma solidity >=0.7.0 <0.9.0;\n\n\ncontract Model {\n\n    address payable public admin;\n    constructor(){\n        usersCount =0;\n        admin = payable(msg.sender);\n        address payable sp = payable(0);\n        usersCount++;\n        address payable x = payable(0xdCad3a6d3569DF655070DEd06cb7A1b2Ccd1D3AF);\n        user_Addresses.push(x);\n        Users[x] = User(usersCount,x,\"ABCD\",sp,\"Bhuwnesh\",\"Bangalore\",\"bhuwnesh.126@gm.com\",\"263139\");\n        x = payable(0x626C16139e73fa877Ec4B2BBaD02C824C8e95bc0);\n        user_Addresses.push(x);\n        usersCount++;\n        Users[x] = User(usersCount,x,\"ABCD\",sp,\"Bhuwnesh\",\"Bangalore\",\"bhuwnesh.126@gm.com\",\"263139\");\n        x = payable(0x55dBD85Eb48a426a9075c059Fb719Ca843a1e8eE);\n        user_Addresses.push(x);\n        usersCount++;\n        Users[x] = User(usersCount,x,\"ABCD\",sp,\"Bhuwnesh\",\"Bangalore\",\"bhuwnesh.126@gm.com\",\"263139\");\n        x = payable(0x0BBC5d5D3D89B3a213c420A9630c72C0966c8b71);\n        user_Addresses.push(x);\n        usersCount++;\n        Users[x] = User(usersCount,x,\"ABCD\",sp,\"Bhuwnesh\",\"Bangalore\",\"bhuwnesh.126@gm.com\",\"263139\");\n        x = payable(0xC6d640ce6A7431bE86Eda5AF05873662aA560d40);\n        user_Addresses.push(x);\n        usersCount++;\n        Users[x] = User(usersCount,x,\"ABCD\",sp,\"Bhuwnesh\",\"Bangalore\",\"bhuwnesh.126@gm.com\",\"263139\");\n\n        address payable[] memory sp2 = new address payable[](0);\n        serviceProviderCount = 0;\n        serviceProviderCount++;\n        x = payable(0x5D2Cf9B829EA3D1D428AeE131909d2b63921eeaC);\n        sp_Addresses.push(x);\n        ServiceProviders[x] = Service_Provider(serviceProviderCount,x,\"Dada Dungeon\",\"Lahore\",sp2, 'emaiol','obofddsfa',1200000000, 1);\n\n        serviceProviderCount++;\n        x = payable(0x0f341A3FFD5af4F2112a201f109a482445fb97AE);\n        sp_Addresses.push(x);\n        ServiceProviders[x] = Service_Provider(serviceProviderCount,x,\"Dada Dungeon\",\"Lahore\",sp2, 'emaiol','obofddsfa',1200000000, 2);\n\n        serviceProviderCount++;\n        x = payable(0x110A50271a65EE265a4b4457aC412C76c9791678);\n        sp_Addresses.push(x);\n        ServiceProviders[x] = Service_Provider(serviceProviderCount,x,\"Dada Dungeon\",\"Lahore\",sp2, 'emaiol','obofddsfa',1200000000, 2);\n\n        serviceProviderCount++;\n        x = payable(0xD3B7f2A8e0EDa1b2C6a0B49c6C79Ca9a3996C2AA);\n        sp_Addresses.push(x);\n        ServiceProviders[x] = Service_Provider(serviceProviderCount,x,\"Dada Dungeon\",\"Lahore\",sp2, 'emaiol','obofddsfa',1200000000, 2);\n\n\n        serviceProviderCount++;\n        x = payable(0xd39cD70F514a0814c2Fc59350e11AA0EbA2b8CE8);\n        sp_Addresses.push(x);\n        ServiceProviders[x] = Service_Provider(serviceProviderCount,x,\"Dada Dungeon\",\"Lahore\",sp2, 'emaiol','obofddsfa',1200000000, 2);\n\n\n\n    }\n    // structure for Users\n    struct User {\n        uint id;\n        address payable Address;\n        string home_address;\n        address payable sp;\n        string name;\n        string city;\n        string email;\n        string phone;\n    }\n\n\n    // structure for Service Provider\n    struct Service_Provider {\n        uint id;\n        address payable Address;\n        string name;\n        string city;\n        address payable [] service_seeker;\n        string phone;\n        string email;\n        uint charges;\n        uint service_type;\n\n    }\n\n\n    address payable[] public service_providers;\n    address payable[] public  user_Addresses;\n    address payable[] public sp_Addresses;\n    uint usersId = 0;\n    uint serviceProviderId = 0;\n    uint usersCount = 0;\n    uint serviceProviderCount = 0;\n\n    mapping(address => User) public Users;\n    mapping(address => Service_Provider) public ServiceProviders;\n\n    // Function to add Users\n    function addUser(string memory name,string memory home_address, string memory city, string memory email, string memory phone) public payable {\n        usersCount++;\n        usersId++;\n        address payable Address = payable(msg.sender);\n        address payable sp = payable(0);\n        user_Addresses.push(Address);\n        Users[Address] = User(usersId, Address, home_address, sp, name, city, email, phone);\n    }\n\n    // Function to return the array of addresses of Users\n    function getAllUsers() public view returns (address payable [] memory){\n        return user_Addresses;\n    }\n\n    // to check if user exist already or not.\n    function userExist(address payable Address) public view returns (bool){\n        if (Users[Address].id > 0) {\n            return true;\n        }\n        else\n            return false;\n    }\n\n\n\n    // Function to add service providers\n    function addServiceProvider(string memory name, string memory city, string memory email, string memory phone, uint charges, uint service_type) public payable {\n        serviceProviderCount++;\n        serviceProviderId++;\n        address payable Address = payable(msg.sender);\n        sp_Addresses.push(Address);\n        address payable [] memory service_seeker;\n        ServiceProviders[Address] = Service_Provider(serviceProviderId, Address, name, city, service_seeker, email, phone, charges, service_type);\n\n\n    }\n    // function to return a service provider list to user\n    function render_List(uint service_type) public {\n        service_providers = new address payable [](0);\n        uint i = 0;\n        for (i = 0; i < sp_Addresses.length; ++i) {\n            if (ServiceProviders[sp_Addresses[i]].service_type == service_type) {\n\n                service_providers.push(sp_Addresses[i]);}\n        }\n\n    }\n\n    function return_rendered_List() public view returns (address payable[] memory){\n        return service_providers;\n    }\n    //function to return the array of addresses of Service Providers\n    function getAllServiceProviders() public view returns (address payable [] memory){\n        return sp_Addresses;\n    }\n\n    //require(msg.value == 2 ether)\n    // function for checking ether value and registeration of user to particular service Providers\n    function requestService(address payable sp) public payable {\n        address payable user;\n\n        user = payable(msg.sender);\n\n        if (msg.value != ServiceProviders[sp].charges) {\n            user.transfer(msg.value);\n\n        }\n        else {\n            Users[user].sp = sp;\n            ServiceProviders[sp].service_seeker.push(user);\n\n        }\n\n    }\n\n    function servicecompleted() public payable {\n        address payable user;\n        user = payable(msg.sender);\n        uint i = 0;\n        uint length = ServiceProviders[Users[user].sp].service_seeker.length;\n        // loop to check whether user is present in service provider list or not\n        for (; i < length; i++)\n        {\n            if (ServiceProviders[Users[user].sp].service_seeker[i] == user)\n                break;\n        }\n        // if user not present then we transfer 0 to the service provider\n        if (i == ServiceProviders[Users[user].sp].service_seeker.length)\n            Users[user].sp.transfer(0);\n        else {\n            uint amount = (100 * ServiceProviders[Users[user].sp].charges - 95 * ServiceProviders[Users[user].sp].charges) / 100;\n            admin.transfer(amount);\n            Users[user].sp.transfer((90 * ServiceProviders[Users[user].sp].charges) / 100);\n            // this to delete the user from service provider list\n            ServiceProviders[Users[user].sp].service_seeker[i] = ServiceProviders[Users[user].sp].service_seeker[length - 1];\n            ServiceProviders[Users[user].sp].service_seeker[length - 1] = user;\n            ServiceProviders[Users[user].sp].service_seeker.pop();\n        }\n\n    }\n\n\n}",
  "sourcePath": "/home/demonwolf/WebstormProjects/SPE-final-project/contracts/Model.sol",
  "compiler": {
    "name": "solc",
    "version": "0.8.2+commit.661d1103.Emscripten.clang"
  },
  "schemaVersion": "3.3.4",
  "updatedAt": "2021-04-10T06:16:29.989Z",
  "networkType": "ethereum",
  "devdoc": {
    "kind": "dev",
    "methods": {},
    "version": 1
  },
  "userdoc": {
    "kind": "user",
    "methods": {},
    "version": 1
  }
}