{
  "contractName": "Model",
  "abi": [
    {
      "inputs": [],
      "stateMutability": "nonpayable",
      "type": "constructor"
    },
    {
      "inputs": [
        {
          "internalType": "address",
          "name": "",
          "type": "address"
        }
      ],
      "name": "ServiceProviders",
      "outputs": [
        {
          "internalType": "uint256",
          "name": "id",
          "type": "uint256"
        },
        {
          "internalType": "address payable",
          "name": "Address",
          "type": "address"
        },
        {
          "internalType": "string",
          "name": "name",
          "type": "string"
        },
        {
          "internalType": "string",
          "name": "location",
          "type": "string"
        },
        {
          "internalType": "string",
          "name": "phone",
          "type": "string"
        },
        {
          "internalType": "string",
          "name": "email",
          "type": "string"
        },
        {
          "internalType": "uint256",
          "name": "charges",
          "type": "uint256"
        },
        {
          "internalType": "uint256",
          "name": "service_type",
          "type": "uint256"
        }
      ],
      "stateMutability": "view",
      "type": "function",
      "constant": true
    },
    {
      "inputs": [
        {
          "internalType": "address",
          "name": "",
          "type": "address"
        }
      ],
      "name": "Users",
      "outputs": [
        {
          "internalType": "uint256",
          "name": "id",
          "type": "uint256"
        },
        {
          "internalType": "address payable",
          "name": "Address",
          "type": "address"
        },
        {
          "internalType": "address payable",
          "name": "sp",
          "type": "address"
        },
        {
          "internalType": "string",
          "name": "name",
          "type": "string"
        },
        {
          "internalType": "string",
          "name": "location",
          "type": "string"
        },
        {
          "internalType": "string",
          "name": "email",
          "type": "string"
        },
        {
          "internalType": "string",
          "name": "phone",
          "type": "string"
        }
      ],
      "stateMutability": "view",
      "type": "function",
      "constant": true
    },
    {
      "inputs": [],
      "name": "admin",
      "outputs": [
        {
          "internalType": "address payable",
          "name": "",
          "type": "address"
        }
      ],
      "stateMutability": "view",
      "type": "function",
      "constant": true
    },
    {
      "inputs": [
        {
          "internalType": "uint256",
          "name": "",
          "type": "uint256"
        }
      ],
      "name": "service_providers",
      "outputs": [
        {
          "internalType": "address payable",
          "name": "",
          "type": "address"
        }
      ],
      "stateMutability": "view",
      "type": "function",
      "constant": true
    },
    {
      "inputs": [
        {
          "internalType": "uint256",
          "name": "",
          "type": "uint256"
        }
      ],
      "name": "sp_Addresses",
      "outputs": [
        {
          "internalType": "address payable",
          "name": "",
          "type": "address"
        }
      ],
      "stateMutability": "view",
      "type": "function",
      "constant": true
    },
    {
      "inputs": [
        {
          "internalType": "uint256",
          "name": "",
          "type": "uint256"
        }
      ],
      "name": "user_Addresses",
      "outputs": [
        {
          "internalType": "address payable",
          "name": "",
          "type": "address"
        }
      ],
      "stateMutability": "view",
      "type": "function",
      "constant": true
    },
    {
      "inputs": [
        {
          "internalType": "string",
          "name": "name",
          "type": "string"
        },
        {
          "internalType": "string",
          "name": "location",
          "type": "string"
        },
        {
          "internalType": "string",
          "name": "email",
          "type": "string"
        },
        {
          "internalType": "string",
          "name": "phone",
          "type": "string"
        }
      ],
      "name": "addUser",
      "outputs": [],
      "stateMutability": "payable",
      "type": "function",
      "payable": true
    },
    {
      "inputs": [],
      "name": "getAllUsers",
      "outputs": [
        {
          "internalType": "address payable[]",
          "name": "",
          "type": "address[]"
        }
      ],
      "stateMutability": "view",
      "type": "function",
      "constant": true
    },
    {
      "inputs": [
        {
          "internalType": "address payable",
          "name": "Address",
          "type": "address"
        }
      ],
      "name": "userExist",
      "outputs": [
        {
          "internalType": "bool",
          "name": "",
          "type": "bool"
        }
      ],
      "stateMutability": "view",
      "type": "function",
      "constant": true
    },
    {
      "inputs": [
        {
          "internalType": "string",
          "name": "name",
          "type": "string"
        },
        {
          "internalType": "string",
          "name": "location",
          "type": "string"
        },
        {
          "internalType": "string",
          "name": "email",
          "type": "string"
        },
        {
          "internalType": "string",
          "name": "phone",
          "type": "string"
        },
        {
          "internalType": "uint256",
          "name": "charges",
          "type": "uint256"
        },
        {
          "internalType": "uint256",
          "name": "service_type",
          "type": "uint256"
        }
      ],
      "name": "addServiceProvider",
      "outputs": [],
      "stateMutability": "payable",
      "type": "function",
      "payable": true
    },
    {
      "inputs": [
        {
          "internalType": "uint256",
          "name": "service_type",
          "type": "uint256"
        }
      ],
      "name": "render_List",
      "outputs": [],
      "stateMutability": "nonpayable",
      "type": "function"
    },
    {
      "inputs": [],
      "name": "return_rendered_List",
      "outputs": [
        {
          "internalType": "address payable[]",
          "name": "",
          "type": "address[]"
        }
      ],
      "stateMutability": "view",
      "type": "function",
      "constant": true
    },
    {
      "inputs": [],
      "name": "getAllServiceProviders",
      "outputs": [
        {
          "internalType": "address payable[]",
          "name": "",
          "type": "address[]"
        }
      ],
      "stateMutability": "view",
      "type": "function",
      "constant": true
    },
    {
      "inputs": [
        {
          "internalType": "address payable",
          "name": "sp",
          "type": "address"
        }
      ],
      "name": "requestService",
      "outputs": [],
      "stateMutability": "payable",
      "type": "function",
      "payable": true
    },
    {
      "inputs": [],
      "name": "servicecompleted",
      "outputs": [],
      "stateMutability": "payable",
      "type": "function",
      "payable": true
    }
  ],
  "bytecode": "0x6080604052600060045560006005556000600655600060075534801561002457600080fd5b50336000806101000a81548173ffffffffffffffffffffffffffffffffffffffff021916908373ffffffffffffffffffffffffffffffffffffffff1602179055506129a7806100746000396000f3fe6080604052600436106100e85760003560e01c80637bc9883c1161008a578063e2842d7911610059578063e2842d79146102df578063f234687d1461030a578063f46fb1b614610347578063f851a44014610370576100e8565b80637bc9883c146101e55780639741edef1461022257806399b956a01461025f578063ab7e7cf6146102a2576100e8565b80631d1bea79116100c65780631d1bea791461013e57806350a1e16a1461015a57806372eb7b6014610176578063757bf8cd146101ba576100e8565b806301cda3ac146100ed57806304a15d741461010957806308fb670c14610134575b600080fd5b61010760048036038101906101029190612170565b61039b565b005b34801561011557600080fd5b5061011e6105ec565b60405161012b919061244b565b60405180910390f35b61013c61067a565b005b61015860048036038101906101539190612233565b6111ab565b005b610174600480360381019061016f9190612147565b6113e0565b005b34801561018257600080fd5b5061019d6004803603810190610198919061211e565b6115a3565b6040516101b1989796959493929190612513565b60405180910390f35b3480156101c657600080fd5b506101cf61182b565b6040516101dc919061244b565b60405180910390f35b3480156101f157600080fd5b5061020c6004803603810190610207919061231c565b6118b9565b6040516102199190612430565b60405180910390f35b34801561022e57600080fd5b506102496004803603810190610244919061231c565b6118f8565b6040516102569190612430565b60405180910390f35b34801561026b57600080fd5b506102866004803603810190610281919061211e565b611937565b6040516102999796959493929190612488565b60405180910390f35b3480156102ae57600080fd5b506102c960048036038101906102c49190612147565b611bd9565b6040516102d6919061246d565b60405180910390f35b3480156102eb57600080fd5b506102f4611c38565b604051610301919061244b565b60405180910390f35b34801561031657600080fd5b50610331600480360381019061032c919061231c565b611cc6565b60405161033e9190612430565b60405180910390f35b34801561035357600080fd5b5061036e6004803603810190610369919061231c565b611d05565b005b34801561037c57600080fd5b50610385611f26565b6040516103929190612430565b60405180910390f35b600660008154809291906103ae90612816565b9190505550600460008154809291906103c690612816565b9190505550600033905060006002829080600181540180825580915050600190039060005260206000200160009091909190916101000a81548173ffffffffffffffffffffffffffffffffffffffff021916908373ffffffffffffffffffffffffffffffffffffffff1602179055506040518060e0016040528060045481526020018373ffffffffffffffffffffffffffffffffffffffff1681526020018273ffffffffffffffffffffffffffffffffffffffff16815260200187815260200186815260200185815260200184815250600860008473ffffffffffffffffffffffffffffffffffffffff1673ffffffffffffffffffffffffffffffffffffffff1681526020019081526020016000206000820151816000015560208201518160010160006101000a81548173ffffffffffffffffffffffffffffffffffffffff021916908373ffffffffffffffffffffffffffffffffffffffff16021790555060408201518160020160006101000a81548173ffffffffffffffffffffffffffffffffffffffff021916908373ffffffffffffffffffffffffffffffffffffffff1602179055506060820151816003019080519060200190610589929190611f4a565b5060808201518160040190805190602001906105a6929190611f4a565b5060a08201518160050190805190602001906105c3929190611f4a565b5060c08201518160060190805190602001906105e0929190611f4a565b50905050505050505050565b6060600380548060200260200160405190810160405280929190818152602001828054801561067057602002820191906000526020600020905b8160009054906101000a900473ffffffffffffffffffffffffffffffffffffffff1673ffffffffffffffffffffffffffffffffffffffff1681526020019060010190808311610626575b5050505050905090565b600033905060008060096000600860008673ffffffffffffffffffffffffffffffffffffffff1673ffffffffffffffffffffffffffffffffffffffff16815260200190815260200160002060020160009054906101000a900473ffffffffffffffffffffffffffffffffffffffff1673ffffffffffffffffffffffffffffffffffffffff1673ffffffffffffffffffffffffffffffffffffffff1681526020019081526020016000206004018054905090505b80821015610887578273ffffffffffffffffffffffffffffffffffffffff1660096000600860008773ffffffffffffffffffffffffffffffffffffffff1673ffffffffffffffffffffffffffffffffffffffff16815260200190815260200160002060020160009054906101000a900473ffffffffffffffffffffffffffffffffffffffff1673ffffffffffffffffffffffffffffffffffffffff1673ffffffffffffffffffffffffffffffffffffffff1681526020019081526020016000206004018381548110610828577f4e487b7100000000000000000000000000000000000000000000000000000000600052603260045260246000fd5b9060005260206000200160009054906101000a900473ffffffffffffffffffffffffffffffffffffffff1673ffffffffffffffffffffffffffffffffffffffff16141561087457610887565b818061087f90612816565b92505061072d565b60096000600860008673ffffffffffffffffffffffffffffffffffffffff1673ffffffffffffffffffffffffffffffffffffffff16815260200190815260200160002060020160009054906101000a900473ffffffffffffffffffffffffffffffffffffffff1673ffffffffffffffffffffffffffffffffffffffff1673ffffffffffffffffffffffffffffffffffffffff168152602001908152602001600020600401805490508214156109e557600860008473ffffffffffffffffffffffffffffffffffffffff1673ffffffffffffffffffffffffffffffffffffffff16815260200190815260200160002060020160009054906101000a900473ffffffffffffffffffffffffffffffffffffffff1673ffffffffffffffffffffffffffffffffffffffff166108fc60009081150290604051600060405180830381858888f193505050501580156109df573d6000803e3d6000fd5b506111a6565b6000606460096000600860008873ffffffffffffffffffffffffffffffffffffffff1673ffffffffffffffffffffffffffffffffffffffff16815260200190815260200160002060020160009054906101000a900473ffffffffffffffffffffffffffffffffffffffff1673ffffffffffffffffffffffffffffffffffffffff1673ffffffffffffffffffffffffffffffffffffffff16815260200190815260200160002060070154605f610a9a9190612689565b60096000600860008973ffffffffffffffffffffffffffffffffffffffff1673ffffffffffffffffffffffffffffffffffffffff16815260200190815260200160002060020160009054906101000a900473ffffffffffffffffffffffffffffffffffffffff1673ffffffffffffffffffffffffffffffffffffffff1673ffffffffffffffffffffffffffffffffffffffff168152602001908152602001600020600701546064610b4b9190612689565b610b5591906126e3565b610b5f9190612658565b905060008054906101000a900473ffffffffffffffffffffffffffffffffffffffff1673ffffffffffffffffffffffffffffffffffffffff166108fc829081150290604051600060405180830381858888f19350505050158015610bc7573d6000803e3d6000fd5b50600860008573ffffffffffffffffffffffffffffffffffffffff1673ffffffffffffffffffffffffffffffffffffffff16815260200190815260200160002060020160009054906101000a900473ffffffffffffffffffffffffffffffffffffffff1673ffffffffffffffffffffffffffffffffffffffff166108fc606460096000600860008a73ffffffffffffffffffffffffffffffffffffffff1673ffffffffffffffffffffffffffffffffffffffff16815260200190815260200160002060020160009054906101000a900473ffffffffffffffffffffffffffffffffffffffff1673ffffffffffffffffffffffffffffffffffffffff1673ffffffffffffffffffffffffffffffffffffffff16815260200190815260200160002060070154605a610cf79190612689565b610d019190612658565b9081150290604051600060405180830381858888f19350505050158015610d2c573d6000803e3d6000fd5b5060096000600860008773ffffffffffffffffffffffffffffffffffffffff1673ffffffffffffffffffffffffffffffffffffffff16815260200190815260200160002060020160009054906101000a900473ffffffffffffffffffffffffffffffffffffffff1673ffffffffffffffffffffffffffffffffffffffff1673ffffffffffffffffffffffffffffffffffffffff168152602001908152602001600020600401600183610dde91906126e3565b81548110610e15577f4e487b7100000000000000000000000000000000000000000000000000000000600052603260045260246000fd5b9060005260206000200160009054906101000a900473ffffffffffffffffffffffffffffffffffffffff1660096000600860008873ffffffffffffffffffffffffffffffffffffffff1673ffffffffffffffffffffffffffffffffffffffff16815260200190815260200160002060020160009054906101000a900473ffffffffffffffffffffffffffffffffffffffff1673ffffffffffffffffffffffffffffffffffffffff1673ffffffffffffffffffffffffffffffffffffffff1681526020019081526020016000206004018481548110610f1c577f4e487b7100000000000000000000000000000000000000000000000000000000600052603260045260246000fd5b9060005260206000200160006101000a81548173ffffffffffffffffffffffffffffffffffffffff021916908373ffffffffffffffffffffffffffffffffffffffff1602179055508360096000600860008873ffffffffffffffffffffffffffffffffffffffff1673ffffffffffffffffffffffffffffffffffffffff16815260200190815260200160002060020160009054906101000a900473ffffffffffffffffffffffffffffffffffffffff1673ffffffffffffffffffffffffffffffffffffffff1673ffffffffffffffffffffffffffffffffffffffff16815260200190815260200160002060040160018461101691906126e3565b8154811061104d577f4e487b7100000000000000000000000000000000000000000000000000000000600052603260045260246000fd5b9060005260206000200160006101000a81548173ffffffffffffffffffffffffffffffffffffffff021916908373ffffffffffffffffffffffffffffffffffffffff16021790555060096000600860008773ffffffffffffffffffffffffffffffffffffffff1673ffffffffffffffffffffffffffffffffffffffff16815260200190815260200160002060020160009054906101000a900473ffffffffffffffffffffffffffffffffffffffff1673ffffffffffffffffffffffffffffffffffffffff1673ffffffffffffffffffffffffffffffffffffffff16815260200190815260200160002060040180548061116f577f4e487b7100000000000000000000000000000000000000000000000000000000600052603160045260246000fd5b6001900381819060005260206000200160006101000a81549073ffffffffffffffffffffffffffffffffffffffff02191690559055505b505050565b600760008154809291906111be90612816565b9190505550600560008154809291906111d690612816565b919050555060003390506003819080600181540180825580915050600190039060005260206000200160009091909190916101000a81548173ffffffffffffffffffffffffffffffffffffffff021916908373ffffffffffffffffffffffffffffffffffffffff160217905550606060405180610120016040528060055481526020018373ffffffffffffffffffffffffffffffffffffffff16815260200189815260200188815260200182815260200187815260200186815260200185815260200184815250600960008473ffffffffffffffffffffffffffffffffffffffff1673ffffffffffffffffffffffffffffffffffffffff1681526020019081526020016000206000820151816000015560208201518160010160006101000a81548173ffffffffffffffffffffffffffffffffffffffff021916908373ffffffffffffffffffffffffffffffffffffffff1602179055506040820151816002019080519060200190611349929190611f4a565b506060820151816003019080519060200190611366929190611f4a565b506080820151816004019080519060200190611383929190611fd0565b5060a08201518160050190805190602001906113a0929190611f4a565b5060c08201518160060190805190602001906113bd929190611f4a565b5060e0820151816007015561010082015181600801559050505050505050505050565b6000339050600960008373ffffffffffffffffffffffffffffffffffffffff1673ffffffffffffffffffffffffffffffffffffffff16815260200190815260200160002060070154341461147a578073ffffffffffffffffffffffffffffffffffffffff166108fc349081150290604051600060405180830381858888f19350505050158015611474573d6000803e3d6000fd5b5061159f565b81600860008373ffffffffffffffffffffffffffffffffffffffff1673ffffffffffffffffffffffffffffffffffffffff16815260200190815260200160002060020160006101000a81548173ffffffffffffffffffffffffffffffffffffffff021916908373ffffffffffffffffffffffffffffffffffffffff160217905550600960008373ffffffffffffffffffffffffffffffffffffffff1673ffffffffffffffffffffffffffffffffffffffff168152602001908152602001600020600401819080600181540180825580915050600190039060005260206000200160009091909190916101000a81548173ffffffffffffffffffffffffffffffffffffffff021916908373ffffffffffffffffffffffffffffffffffffffff1602179055505b5050565b60096020528060005260406000206000915090508060000154908060010160009054906101000a900473ffffffffffffffffffffffffffffffffffffffff16908060020180546115f2906127b3565b80601f016020809104026020016040519081016040528092919081815260200182805461161e906127b3565b801561166b5780601f106116405761010080835404028352916020019161166b565b820191906000526020600020905b81548152906001019060200180831161164e57829003601f168201915b505050505090806003018054611680906127b3565b80601f01602080910402602001604051908101604052809291908181526020018280546116ac906127b3565b80156116f95780601f106116ce576101008083540402835291602001916116f9565b820191906000526020600020905b8154815290600101906020018083116116dc57829003601f168201915b50505050509080600501805461170e906127b3565b80601f016020809104026020016040519081016040528092919081815260200182805461173a906127b3565b80156117875780601f1061175c57610100808354040283529160200191611787565b820191906000526020600020905b81548152906001019060200180831161176a57829003601f168201915b50505050509080600601805461179c906127b3565b80601f01602080910402602001604051908101604052809291908181526020018280546117c8906127b3565b80156118155780601f106117ea57610100808354040283529160200191611815565b820191906000526020600020905b8154815290600101906020018083116117f857829003601f168201915b5050505050908060070154908060080154905088565b606060018054806020026020016040519081016040528092919081815260200182805480156118af57602002820191906000526020600020905b8160009054906101000a900473ffffffffffffffffffffffffffffffffffffffff1673ffffffffffffffffffffffffffffffffffffffff1681526020019060010190808311611865575b5050505050905090565b600381815481106118c957600080fd5b906000526020600020016000915054906101000a900473ffffffffffffffffffffffffffffffffffffffff1681565b6001818154811061190857600080fd5b906000526020600020016000915054906101000a900473ffffffffffffffffffffffffffffffffffffffff1681565b60086020528060005260406000206000915090508060000154908060010160009054906101000a900473ffffffffffffffffffffffffffffffffffffffff16908060020160009054906101000a900473ffffffffffffffffffffffffffffffffffffffff16908060030180546119ac906127b3565b80601f01602080910402602001604051908101604052809291908181526020018280546119d8906127b3565b8015611a255780601f106119fa57610100808354040283529160200191611a25565b820191906000526020600020905b815481529060010190602001808311611a0857829003601f168201915b505050505090806004018054611a3a906127b3565b80601f0160208091040260200160405190810160405280929190818152602001828054611a66906127b3565b8015611ab35780601f10611a8857610100808354040283529160200191611ab3565b820191906000526020600020905b815481529060010190602001808311611a9657829003601f168201915b505050505090806005018054611ac8906127b3565b80601f0160208091040260200160405190810160405280929190818152602001828054611af4906127b3565b8015611b415780601f10611b1657610100808354040283529160200191611b41565b820191906000526020600020905b815481529060010190602001808311611b2457829003601f168201915b505050505090806006018054611b56906127b3565b80601f0160208091040260200160405190810160405280929190818152602001828054611b82906127b3565b8015611bcf5780601f10611ba457610100808354040283529160200191611bcf565b820191906000526020600020905b815481529060010190602001808311611bb257829003601f168201915b5050505050905087565b600080600860008473ffffffffffffffffffffffffffffffffffffffff1673ffffffffffffffffffffffffffffffffffffffff168152602001908152602001600020600001541115611c2e5760019050611c33565b600090505b919050565b60606002805480602002602001604051908101604052809291908181526020018280548015611cbc57602002820191906000526020600020905b8160009054906101000a900473ffffffffffffffffffffffffffffffffffffffff1673ffffffffffffffffffffffffffffffffffffffff1681526020019060010190808311611c72575b5050505050905090565b60028181548110611cd657600080fd5b906000526020600020016000915054906101000a900473ffffffffffffffffffffffffffffffffffffffff1681565b600067ffffffffffffffff811115611d46577f4e487b7100000000000000000000000000000000000000000000000000000000600052604160045260246000fd5b604051908082528060200260200182016040528015611d745781602001602082028036833780820191505090505b5060019080519060200190611d8a929190611fd0565b5060005b600380549050811015611f2257816009600060038481548110611dda577f4e487b7100000000000000000000000000000000000000000000000000000000600052603260045260246000fd5b9060005260206000200160009054906101000a900473ffffffffffffffffffffffffffffffffffffffff1673ffffffffffffffffffffffffffffffffffffffff1673ffffffffffffffffffffffffffffffffffffffff168152602001908152602001600020600801541415611f1157600160038281548110611e85577f4e487b7100000000000000000000000000000000000000000000000000000000600052603260045260246000fd5b9060005260206000200160009054906101000a900473ffffffffffffffffffffffffffffffffffffffff169080600181540180825580915050600190039060005260206000200160009091909190916101000a81548173ffffffffffffffffffffffffffffffffffffffff021916908373ffffffffffffffffffffffffffffffffffffffff1602179055505b80611f1b90612816565b9050611d8e565b5050565b60008054906101000a900473ffffffffffffffffffffffffffffffffffffffff1681565b828054611f56906127b3565b90600052602060002090601f016020900481019282611f785760008555611fbf565b82601f10611f9157805160ff1916838001178555611fbf565b82800160010185558215611fbf579182015b82811115611fbe578251825591602001919060010190611fa3565b5b509050611fcc919061205a565b5090565b828054828255906000526020600020908101928215612049579160200282015b828111156120485782518260006101000a81548173ffffffffffffffffffffffffffffffffffffffff021916908373ffffffffffffffffffffffffffffffffffffffff16021790555091602001919060010190611ff0565b5b509050612056919061205a565b5090565b5b8082111561207357600081600090555060010161205b565b5090565b600061208a612085846125d2565b6125ad565b9050828152602081018484840111156120a257600080fd5b6120ad848285612771565b509392505050565b6000813590506120c48161292c565b92915050565b6000813590506120d981612943565b92915050565b600082601f8301126120f057600080fd5b8135612100848260208601612077565b91505092915050565b6000813590506121188161295a565b92915050565b60006020828403121561213057600080fd5b600061213e848285016120b5565b91505092915050565b60006020828403121561215957600080fd5b6000612167848285016120ca565b91505092915050565b6000806000806080858703121561218657600080fd5b600085013567ffffffffffffffff8111156121a057600080fd5b6121ac878288016120df565b945050602085013567ffffffffffffffff8111156121c957600080fd5b6121d5878288016120df565b935050604085013567ffffffffffffffff8111156121f257600080fd5b6121fe878288016120df565b925050606085013567ffffffffffffffff81111561221b57600080fd5b612227878288016120df565b91505092959194509250565b60008060008060008060c0878903121561224c57600080fd5b600087013567ffffffffffffffff81111561226657600080fd5b61227289828a016120df565b965050602087013567ffffffffffffffff81111561228f57600080fd5b61229b89828a016120df565b955050604087013567ffffffffffffffff8111156122b857600080fd5b6122c489828a016120df565b945050606087013567ffffffffffffffff8111156122e157600080fd5b6122ed89828a016120df565b93505060806122fe89828a01612109565b92505060a061230f89828a01612109565b9150509295509295509295565b60006020828403121561232e57600080fd5b600061233c84828501612109565b91505092915050565b6000612351838361235d565b60208301905092915050565b61236681612729565b82525050565b61237581612729565b82525050565b600061238682612613565b6123908185612636565b935061239b83612603565b8060005b838110156123cc5781516123b38882612345565b97506123be83612629565b92505060018101905061239f565b5085935050505092915050565b6123e28161273b565b82525050565b60006123f38261261e565b6123fd8185612647565b935061240d818560208601612780565b6124168161291b565b840191505092915050565b61242a81612767565b82525050565b6000602082019050612445600083018461236c565b92915050565b60006020820190508181036000830152612465818461237b565b905092915050565b600060208201905061248260008301846123d9565b92915050565b600060e08201905061249d600083018a612421565b6124aa602083018961236c565b6124b7604083018861236c565b81810360608301526124c981876123e8565b905081810360808301526124dd81866123e8565b905081810360a08301526124f181856123e8565b905081810360c083015261250581846123e8565b905098975050505050505050565b600061010082019050612529600083018b612421565b612536602083018a61236c565b818103604083015261254881896123e8565b9050818103606083015261255c81886123e8565b9050818103608083015261257081876123e8565b905081810360a083015261258481866123e8565b905061259360c0830185612421565b6125a060e0830184612421565b9998505050505050505050565b60006125b76125c8565b90506125c382826127e5565b919050565b6000604051905090565b600067ffffffffffffffff8211156125ed576125ec6128ec565b5b6125f68261291b565b9050602081019050919050565b6000819050602082019050919050565b600081519050919050565b600081519050919050565b6000602082019050919050565b600082825260208201905092915050565b600082825260208201905092915050565b600061266382612767565b915061266e83612767565b92508261267e5761267d61288e565b5b828204905092915050565b600061269482612767565b915061269f83612767565b9250817fffffffffffffffffffffffffffffffffffffffffffffffffffffffffffffffff04831182151516156126d8576126d761285f565b5b828202905092915050565b60006126ee82612767565b91506126f983612767565b92508282101561270c5761270b61285f565b5b828203905092915050565b600061272282612747565b9050919050565b600061273482612747565b9050919050565b60008115159050919050565b600073ffffffffffffffffffffffffffffffffffffffff82169050919050565b6000819050919050565b82818337600083830152505050565b60005b8381101561279e578082015181840152602081019050612783565b838111156127ad576000848401525b50505050565b600060028204905060018216806127cb57607f821691505b602082108114156127df576127de6128bd565b5b50919050565b6127ee8261291b565b810181811067ffffffffffffffff8211171561280d5761280c6128ec565b5b80604052505050565b600061282182612767565b91507fffffffffffffffffffffffffffffffffffffffffffffffffffffffffffffffff8214156128545761285361285f565b5b600182019050919050565b7f4e487b7100000000000000000000000000000000000000000000000000000000600052601160045260246000fd5b7f4e487b7100000000000000000000000000000000000000000000000000000000600052601260045260246000fd5b7f4e487b7100000000000000000000000000000000000000000000000000000000600052602260045260246000fd5b7f4e487b7100000000000000000000000000000000000000000000000000000000600052604160045260246000fd5b6000601f19601f8301169050919050565b61293581612717565b811461294057600080fd5b50565b61294c81612729565b811461295757600080fd5b50565b61296381612767565b811461296e57600080fd5b5056fea26469706673582212200d6793d9fab30d580983c26a625c867c2fae2c33668f166a26b622c78292571464736f6c63430008020033",
  "immutableReferences": {},
  "source": "//SPDX-License-Identifier: GPL-3.\npragma solidity >=0.7.0 <0.9.0;\n\n\n\ncontract Model{\n\naddress payable public admin;\n\nconstructor(){\nadmin =payable(msg.sender);\n\n}\n// structure for Users\nstruct User{\nuint id;\naddress payable Address;\naddress payable sp;\nstring name;\nstring location;\nstring email;\nstring phone;\n}\n\n\n// structure for Service Provider\nstruct Service_Provider{\nuint id;\naddress payable Address;\nstring name;\nstring location;\naddress payable [] service_seeker;\nstring phone;\nstring email;\nuint charges;\nuint service_type;\n\n}\n\n\naddress payable[] public service_providers;\naddress payable[] public  user_Addresses;\naddress payable[] public sp_Addresses;\nuint usersId = 0;\nuint serviceProviderId = 0;\nuint usersCount = 0;\nuint serviceProviderCount = 0;\n\nmapping(address => User) public Users;\nmapping(address => Service_Provider) public ServiceProviders;\n\n// Function to add Users\nfunction addUser(string memory name, string memory location, string memory email, string memory phone) public payable{\nusersCount++;\nusersId++;\naddress payable Address = payable(msg.sender);\naddress payable sp=payable(0);\nuser_Addresses.push(Address);\nUsers[Address] = User(usersId, Address, sp ,name, location,email,phone);\n}\n\n// Function to return the array of addresses of Users\nfunction getAllUsers() public view returns (address payable [] memory){\nreturn user_Addresses;\n}\n\n// to check if user exist already or not.\nfunction userExist(address payable Address) public view returns (bool){\nif (Users[Address].id>0){\nreturn true;\n}\nelse\nreturn false;\n}\n\n\n\n// Function to add service providers\nfunction addServiceProvider(string memory name, string memory location,  string memory email, string memory phone, uint  charges ,uint service_type) public payable{\nserviceProviderCount++;\nserviceProviderId++;\naddress payable Address = payable(msg.sender);\nsp_Addresses.push(Address);\naddress payable [] memory service_seeker;\nServiceProviders[Address] = Service_Provider(serviceProviderId, Address, name, location, service_seeker,email,phone, charges,service_type);\n\n\n\n\n}\n// function to return a service provider list to user\nfunction render_List(uint service_type) public{\nservice_providers = new address payable [](0);\nuint i=0;\nfor (i =0;i<sp_Addresses.length;++i){\nif(ServiceProviders[sp_Addresses[i]].service_type == service_type){\n\nservice_providers.push(sp_Addresses[i]);}\n}\n\n}\n\nfunction return_rendered_List() public view returns(address payable[] memory){\nreturn service_providers;\n}\n//function to return the array of addresses of Service Providers\nfunction getAllServiceProviders() public view returns (address payable [] memory){\nreturn sp_Addresses;\n}\n\n//require(msg.value == 2 ether)\n// function for checking ether value and registeration of user to particular service Providers\nfunction requestService(address payable  sp)public payable{\naddress payable user;\n\nuser = payable ( msg.sender);\n\nif(msg.value!=ServiceProviders[sp].charges){\nuser.transfer( msg.value);\n\n}\nelse{\nUsers[user].sp=sp;\nServiceProviders[sp].service_seeker.push(user);\n\n}\n\n}\n\nfunction servicecompleted() public payable{\naddress payable user;\nuser= payable(msg.sender);\nuint i=0;\nuint length=ServiceProviders[Users[user].sp].service_seeker.length;\n// loop to check whether user is present in service provider list or not\nfor(;i<length;i++)\n{\nif(ServiceProviders[Users[user].sp].service_seeker[i]==user)\nbreak;\n}\n// if user not present then we transfer 0 to the service provider\nif(i==ServiceProviders[Users[user].sp].service_seeker.length)\nUsers[user].sp.transfer(0);\nelse{\nuint amount=(100*ServiceProviders[Users[user].sp].charges-95*ServiceProviders[Users[user].sp].charges)/100;\nadmin.transfer(amount);\nUsers[user].sp.transfer((90*ServiceProviders[Users[user].sp].charges)/100);\n// this to delete the user from service provider list\nServiceProviders[Users[user].sp].service_seeker[i]=ServiceProviders[Users[user].sp].service_seeker[length-1];\nServiceProviders[Users[user].sp].service_seeker[length-1]=user;\nServiceProviders[Users[user].sp].service_seeker.pop();\n}\n\n}\n\n\n\n\n\n}",
  "sourcePath": "/home/demonwolf/WebstormProjects/SPE-final-project/contracts/Model.sol",
  "compiler": {
    "name": "solc",
    "version": "0.8.2+commit.661d1103.Emscripten.clang"
  },
  "schemaVersion": "3.3.4",
  "updatedAt": "2021-04-07T16:53:36.098Z",
  "networkType": "ethereum",
  "devdoc": {
    "kind": "dev",
    "methods": {},
    "version": 1
  },
  "userdoc": {
    "kind": "user",
    "methods": {},
    "version": 1
  }
}