{
  "contractName": "Model",
  "abi": [
    {
      "inputs": [],
      "stateMutability": "nonpayable",
      "type": "constructor"
    },
    {
      "inputs": [
        {
          "internalType": "address",
          "name": "",
          "type": "address"
        }
      ],
      "name": "ServiceProviders",
      "outputs": [
        {
          "internalType": "uint256",
          "name": "id",
          "type": "uint256"
        },
        {
          "internalType": "address payable",
          "name": "Address",
          "type": "address"
        },
        {
          "internalType": "string",
          "name": "name",
          "type": "string"
        },
        {
          "internalType": "string",
          "name": "city",
          "type": "string"
        },
        {
          "internalType": "string",
          "name": "phone",
          "type": "string"
        },
        {
          "internalType": "string",
          "name": "email",
          "type": "string"
        },
        {
          "internalType": "uint256",
          "name": "charges",
          "type": "uint256"
        },
        {
          "internalType": "uint256",
          "name": "service_type",
          "type": "uint256"
        },
        {
          "internalType": "bool",
          "name": "status",
          "type": "bool"
        }
      ],
      "stateMutability": "view",
      "type": "function",
      "constant": true
    },
    {
      "inputs": [
        {
          "internalType": "address",
          "name": "",
          "type": "address"
        }
      ],
      "name": "Users",
      "outputs": [
        {
          "internalType": "uint256",
          "name": "id",
          "type": "uint256"
        },
        {
          "internalType": "address payable",
          "name": "Address",
          "type": "address"
        },
        {
          "internalType": "string",
          "name": "home_address",
          "type": "string"
        },
        {
          "internalType": "address payable",
          "name": "sp",
          "type": "address"
        },
        {
          "internalType": "string",
          "name": "name",
          "type": "string"
        },
        {
          "internalType": "string",
          "name": "city",
          "type": "string"
        },
        {
          "internalType": "string",
          "name": "email",
          "type": "string"
        },
        {
          "internalType": "string",
          "name": "phone",
          "type": "string"
        },
        {
          "internalType": "bool",
          "name": "serv",
          "type": "bool"
        },
        {
          "internalType": "bool",
          "name": "ongoing_service",
          "type": "bool"
        },
        {
          "internalType": "bool",
          "name": "messagealert",
          "type": "bool"
        }
      ],
      "stateMutability": "view",
      "type": "function",
      "constant": true
    },
    {
      "inputs": [],
      "name": "admin",
      "outputs": [
        {
          "internalType": "address payable",
          "name": "",
          "type": "address"
        }
      ],
      "stateMutability": "view",
      "type": "function",
      "constant": true
    },
    {
      "inputs": [
        {
          "internalType": "uint256",
          "name": "",
          "type": "uint256"
        }
      ],
      "name": "service_providers",
      "outputs": [
        {
          "internalType": "address payable",
          "name": "",
          "type": "address"
        }
      ],
      "stateMutability": "view",
      "type": "function",
      "constant": true
    },
    {
      "inputs": [
        {
          "internalType": "uint256",
          "name": "",
          "type": "uint256"
        }
      ],
      "name": "sp_Addresses",
      "outputs": [
        {
          "internalType": "address payable",
          "name": "",
          "type": "address"
        }
      ],
      "stateMutability": "view",
      "type": "function",
      "constant": true
    },
    {
      "inputs": [
        {
          "internalType": "uint256",
          "name": "",
          "type": "uint256"
        }
      ],
      "name": "user_Addresses",
      "outputs": [
        {
          "internalType": "address payable",
          "name": "",
          "type": "address"
        }
      ],
      "stateMutability": "view",
      "type": "function",
      "constant": true
    },
    {
      "inputs": [
        {
          "internalType": "string",
          "name": "name",
          "type": "string"
        },
        {
          "internalType": "string",
          "name": "home_address",
          "type": "string"
        },
        {
          "internalType": "string",
          "name": "city",
          "type": "string"
        },
        {
          "internalType": "string",
          "name": "email",
          "type": "string"
        },
        {
          "internalType": "string",
          "name": "phone",
          "type": "string"
        }
      ],
      "name": "addUser",
      "outputs": [],
      "stateMutability": "payable",
      "type": "function",
      "payable": true
    },
    {
      "inputs": [],
      "name": "getAllUsers",
      "outputs": [
        {
          "internalType": "address payable[]",
          "name": "",
          "type": "address[]"
        }
      ],
      "stateMutability": "view",
      "type": "function",
      "constant": true
    },
    {
      "inputs": [
        {
          "internalType": "address payable",
          "name": "Address",
          "type": "address"
        }
      ],
      "name": "userExist",
      "outputs": [
        {
          "internalType": "bool",
          "name": "",
          "type": "bool"
        }
      ],
      "stateMutability": "view",
      "type": "function",
      "constant": true
    },
    {
      "inputs": [
        {
          "internalType": "address payable",
          "name": "Address",
          "type": "address"
        }
      ],
      "name": "serviceProviderExist",
      "outputs": [
        {
          "internalType": "bool",
          "name": "",
          "type": "bool"
        }
      ],
      "stateMutability": "view",
      "type": "function",
      "constant": true
    },
    {
      "inputs": [
        {
          "internalType": "string",
          "name": "name",
          "type": "string"
        },
        {
          "internalType": "string",
          "name": "city",
          "type": "string"
        },
        {
          "internalType": "string",
          "name": "email",
          "type": "string"
        },
        {
          "internalType": "string",
          "name": "phone",
          "type": "string"
        },
        {
          "internalType": "uint256",
          "name": "charges",
          "type": "uint256"
        },
        {
          "internalType": "uint256",
          "name": "service_type",
          "type": "uint256"
        }
      ],
      "name": "addServiceProvider",
      "outputs": [],
      "stateMutability": "payable",
      "type": "function",
      "payable": true
    },
    {
      "inputs": [
        {
          "internalType": "uint256",
          "name": "service_type",
          "type": "uint256"
        }
      ],
      "name": "render_List",
      "outputs": [],
      "stateMutability": "nonpayable",
      "type": "function"
    },
    {
      "inputs": [],
      "name": "return_rendered_List",
      "outputs": [
        {
          "internalType": "address payable[]",
          "name": "",
          "type": "address[]"
        }
      ],
      "stateMutability": "view",
      "type": "function",
      "constant": true
    },
    {
      "inputs": [],
      "name": "getAllServiceProviders",
      "outputs": [
        {
          "internalType": "address payable[]",
          "name": "",
          "type": "address[]"
        }
      ],
      "stateMutability": "view",
      "type": "function",
      "constant": true
    },
    {
      "inputs": [
        {
          "internalType": "address payable",
          "name": "sp",
          "type": "address"
        }
      ],
      "name": "requestService",
      "outputs": [],
      "stateMutability": "payable",
      "type": "function",
      "payable": true
    },
    {
      "inputs": [],
      "name": "servicecompleted",
      "outputs": [],
      "stateMutability": "payable",
      "type": "function",
      "payable": true
    },
    {
      "inputs": [
        {
          "internalType": "address payable",
          "name": "user",
          "type": "address"
        }
      ],
      "name": "service_choice",
      "outputs": [],
      "stateMutability": "nonpayable",
      "type": "function"
    },
    {
      "inputs": [],
      "name": "service_off",
      "outputs": [],
      "stateMutability": "payable",
      "type": "function",
      "payable": true
    },
    {
      "inputs": [
        {
          "internalType": "address payable",
          "name": "user",
          "type": "address"
        },
        {
          "internalType": "address payable",
          "name": "sp",
          "type": "address"
        }
      ],
      "name": "getBalance",
      "outputs": [],
      "stateMutability": "payable",
      "type": "function",
      "payable": true
    },
    {
      "inputs": [],
      "name": "eth",
      "outputs": [
        {
          "internalType": "uint256",
          "name": "",
          "type": "uint256"
        }
      ],
      "stateMutability": "view",
      "type": "function",
      "constant": true
    }
  ],
  "bytecode": "0x608060405260006004556000600555600060065560006007553480156200002557600080fd5b506000600681905550336000806101000a81548173ffffffffffffffffffffffffffffffffffffffff021916908373ffffffffffffffffffffffffffffffffffffffff160217905550600060066000815480929190620000859062002649565b9190505550600073dcad3a6d3569df655070ded06cb7a1b2ccd1d3af90506002819080600181540180825580915050600190039060005260206000200160009091909190916101000a81548173ffffffffffffffffffffffffffffffffffffffff021916908373ffffffffffffffffffffffffffffffffffffffff16021790555060405180610160016040528060065481526020018273ffffffffffffffffffffffffffffffffffffffff1681526020016040518060400160405280600481526020017f414243440000000000000000000000000000000000000000000000000000000081525081526020018373ffffffffffffffffffffffffffffffffffffffff1681526020016040518060400160405280600881526020017f426875776e65736800000000000000000000000000000000000000000000000081525081526020016040518060400160405280600981526020017f42616e67616c6f7265000000000000000000000000000000000000000000000081525081526020016040518060400160405280601381526020017f626875776e6573682e31323640676d2e636f6d0000000000000000000000000081525081526020016040518060400160405280600681526020017f3236333133390000000000000000000000000000000000000000000000000000815250815260200160001515815260200160001515815260200160001515815250600860008373ffffffffffffffffffffffffffffffffffffffff1673ffffffffffffffffffffffffffffffffffffffff1681526020019081526020016000206000820151816000015560208201518160010160006101000a81548173ffffffffffffffffffffffffffffffffffffffff021916908373ffffffffffffffffffffffffffffffffffffffff160217905550604082015181600201908051906020019062000340929190620024ca565b5060608201518160030160006101000a81548173ffffffffffffffffffffffffffffffffffffffff021916908373ffffffffffffffffffffffffffffffffffffffff1602179055506080820151816004019080519060200190620003a6929190620024ca565b5060a0820151816005019080519060200190620003c5929190620024ca565b5060c0820151816006019080519060200190620003e4929190620024ca565b5060e082015181600701908051906020019062000403929190620024ca565b506101008201518160080160006101000a81548160ff0219169083151502179055506101208201518160080160016101000a81548160ff0219169083151502179055506101408201518160080160026101000a81548160ff02191690831515021790555090505073626c16139e73fa877ec4b2bbad02c824c8e95bc090506002819080600181540180825580915050600190039060005260206000200160009091909190916101000a81548173ffffffffffffffffffffffffffffffffffffffff021916908373ffffffffffffffffffffffffffffffffffffffff16021790555060066000815480929190620004f99062002649565b919050555060405180610160016040528060065481526020018273ffffffffffffffffffffffffffffffffffffffff1681526020016040518060400160405280600481526020017f414243440000000000000000000000000000000000000000000000000000000081525081526020018373ffffffffffffffffffffffffffffffffffffffff1681526020016040518060400160405280600881526020017f426875776e65736800000000000000000000000000000000000000000000000081525081526020016040518060400160405280600981526020017f42616e67616c6f7265000000000000000000000000000000000000000000000081525081526020016040518060400160405280601381526020017f626875776e6573682e31323640676d2e636f6d0000000000000000000000000081525081526020016040518060400160405280600681526020017f3236333133390000000000000000000000000000000000000000000000000000815250815260200160001515815260200160001515815260200160001515815250600860008373ffffffffffffffffffffffffffffffffffffffff1673ffffffffffffffffffffffffffffffffffffffff1681526020019081526020016000206000820151816000015560208201518160010160006101000a81548173ffffffffffffffffffffffffffffffffffffffff021916908373ffffffffffffffffffffffffffffffffffffffff160217905550604082015181600201908051906020019062000738929190620024ca565b5060608201518160030160006101000a81548173ffffffffffffffffffffffffffffffffffffffff021916908373ffffffffffffffffffffffffffffffffffffffff16021790555060808201518160040190805190602001906200079e929190620024ca565b5060a0820151816005019080519060200190620007bd929190620024ca565b5060c0820151816006019080519060200190620007dc929190620024ca565b5060e0820151816007019080519060200190620007fb929190620024ca565b506101008201518160080160006101000a81548160ff0219169083151502179055506101208201518160080160016101000a81548160ff0219169083151502179055506101408201518160080160026101000a81548160ff0219169083151502179055509050507355dbd85eb48a426a9075c059fb719ca843a1e8ee90506002819080600181540180825580915050600190039060005260206000200160009091909190916101000a81548173ffffffffffffffffffffffffffffffffffffffff021916908373ffffffffffffffffffffffffffffffffffffffff16021790555060066000815480929190620008f19062002649565b919050555060405180610160016040528060065481526020018273ffffffffffffffffffffffffffffffffffffffff1681526020016040518060400160405280600481526020017f414243440000000000000000000000000000000000000000000000000000000081525081526020018373ffffffffffffffffffffffffffffffffffffffff1681526020016040518060400160405280600881526020017f426875776e65736800000000000000000000000000000000000000000000000081525081526020016040518060400160405280600981526020017f42616e67616c6f7265000000000000000000000000000000000000000000000081525081526020016040518060400160405280601381526020017f626875776e6573682e31323640676d2e636f6d0000000000000000000000000081525081526020016040518060400160405280600681526020017f3236333133390000000000000000000000000000000000000000000000000000815250815260200160001515815260200160001515815260200160001515815250600860008373ffffffffffffffffffffffffffffffffffffffff1673ffffffffffffffffffffffffffffffffffffffff1681526020019081526020016000206000820151816000015560208201518160010160006101000a81548173ffffffffffffffffffffffffffffffffffffffff021916908373ffffffffffffffffffffffffffffffffffffffff160217905550604082015181600201908051906020019062000b30929190620024ca565b5060608201518160030160006101000a81548173ffffffffffffffffffffffffffffffffffffffff021916908373ffffffffffffffffffffffffffffffffffffffff160217905550608082015181600401908051906020019062000b96929190620024ca565b5060a082015181600501908051906020019062000bb5929190620024ca565b5060c082015181600601908051906020019062000bd4929190620024ca565b5060e082015181600701908051906020019062000bf3929190620024ca565b506101008201518160080160006101000a81548160ff0219169083151502179055506101208201518160080160016101000a81548160ff0219169083151502179055506101408201518160080160026101000a81548160ff021916908315150217905550905050730bbc5d5d3d89b3a213c420a9630c72c0966c8b7190506002819080600181540180825580915050600190039060005260206000200160009091909190916101000a81548173ffffffffffffffffffffffffffffffffffffffff021916908373ffffffffffffffffffffffffffffffffffffffff1602179055506006600081548092919062000ce99062002649565b919050555060405180610160016040528060065481526020018273ffffffffffffffffffffffffffffffffffffffff1681526020016040518060400160405280600481526020017f414243440000000000000000000000000000000000000000000000000000000081525081526020018373ffffffffffffffffffffffffffffffffffffffff1681526020016040518060400160405280600881526020017f426875776e65736800000000000000000000000000000000000000000000000081525081526020016040518060400160405280600981526020017f42616e67616c6f7265000000000000000000000000000000000000000000000081525081526020016040518060400160405280601381526020017f626875776e6573682e31323640676d2e636f6d0000000000000000000000000081525081526020016040518060400160405280600681526020017f3236333133390000000000000000000000000000000000000000000000000000815250815260200160001515815260200160001515815260200160001515815250600860008373ffffffffffffffffffffffffffffffffffffffff1673ffffffffffffffffffffffffffffffffffffffff1681526020019081526020016000206000820151816000015560208201518160010160006101000a81548173ffffffffffffffffffffffffffffffffffffffff021916908373ffffffffffffffffffffffffffffffffffffffff160217905550604082015181600201908051906020019062000f28929190620024ca565b5060608201518160030160006101000a81548173ffffffffffffffffffffffffffffffffffffffff021916908373ffffffffffffffffffffffffffffffffffffffff160217905550608082015181600401908051906020019062000f8e929190620024ca565b5060a082015181600501908051906020019062000fad929190620024ca565b5060c082015181600601908051906020019062000fcc929190620024ca565b5060e082015181600701908051906020019062000feb929190620024ca565b506101008201518160080160006101000a81548160ff0219169083151502179055506101208201518160080160016101000a81548160ff0219169083151502179055506101408201518160080160026101000a81548160ff02191690831515021790555090505073c6d640ce6a7431be86eda5af05873662aa560d4090506002819080600181540180825580915050600190039060005260206000200160009091909190916101000a81548173ffffffffffffffffffffffffffffffffffffffff021916908373ffffffffffffffffffffffffffffffffffffffff16021790555060066000815480929190620010e19062002649565b919050555060405180610160016040528060065481526020018273ffffffffffffffffffffffffffffffffffffffff1681526020016040518060400160405280600481526020017f414243440000000000000000000000000000000000000000000000000000000081525081526020018373ffffffffffffffffffffffffffffffffffffffff1681526020016040518060400160405280600881526020017f426875776e65736800000000000000000000000000000000000000000000000081525081526020016040518060400160405280600981526020017f42616e67616c6f7265000000000000000000000000000000000000000000000081525081526020016040518060400160405280601381526020017f626875776e6573682e31323640676d2e636f6d0000000000000000000000000081525081526020016040518060400160405280600681526020017f3236333133390000000000000000000000000000000000000000000000000000815250815260200160001515815260200160001515815260200160001515815250600860008373ffffffffffffffffffffffffffffffffffffffff1673ffffffffffffffffffffffffffffffffffffffff1681526020019081526020016000206000820151816000015560208201518160010160006101000a81548173ffffffffffffffffffffffffffffffffffffffff021916908373ffffffffffffffffffffffffffffffffffffffff160217905550604082015181600201908051906020019062001320929190620024ca565b5060608201518160030160006101000a81548173ffffffffffffffffffffffffffffffffffffffff021916908373ffffffffffffffffffffffffffffffffffffffff160217905550608082015181600401908051906020019062001386929190620024ca565b5060a0820151816005019080519060200190620013a5929190620024ca565b5060c0820151816006019080519060200190620013c4929190620024ca565b5060e0820151816007019080519060200190620013e3929190620024ca565b506101008201518160080160006101000a81548160ff0219169083151502179055506101208201518160080160016101000a81548160ff0219169083151502179055506101408201518160080160026101000a81548160ff02191690831515021790555090505060008067ffffffffffffffff8111156200148d577f4e487b7100000000000000000000000000000000000000000000000000000000600052604160045260246000fd5b604051908082528060200260200182016040528015620014bc5781602001602082028036833780820191505090505b509050600060078190555060076000815480929190620014dc9062002649565b9190505550735d2cf9b829ea3d1d428aee131909d2b63921eeac91506003829080600181540180825580915050600190039060005260206000200160009091909190916101000a81548173ffffffffffffffffffffffffffffffffffffffff021916908373ffffffffffffffffffffffffffffffffffffffff16021790555060405180610140016040528060075481526020018373ffffffffffffffffffffffffffffffffffffffff1681526020016040518060400160405280600b81526020017f53616a616c2053696e676800000000000000000000000000000000000000000081525081526020016040518060400160405280600981526020017f42616e67616c6f7265000000000000000000000000000000000000000000000081525081526020018281526020016040518060400160405280601781526020017f73616a616c2e73696e6768406f75746c6f6f6b2e636f6d00000000000000000081525081526020016040518060400160405280600d81526020017f2b3931373537393234353933390000000000000000000000000000000000000081525081526020016347868c0081526020016001815260200160011515815250600960008473ffffffffffffffffffffffffffffffffffffffff1673ffffffffffffffffffffffffffffffffffffffff1681526020019081526020016000206000820151816000015560208201518160010160006101000a81548173ffffffffffffffffffffffffffffffffffffffff021916908373ffffffffffffffffffffffffffffffffffffffff160217905550604082015181600201908051906020019062001743929190620024ca565b50606082015181600301908051906020019062001762929190620024ca565b506080820151816004019080519060200190620017819291906200255b565b5060a0820151816005019080519060200190620017a0929190620024ca565b5060c0820151816006019080519060200190620017bf929190620024ca565b5060e0820151816007015561010082015181600801556101208201518160090160006101000a81548160ff021916908315150217905550905050600760008154809291906200180e9062002649565b9190505550730f341a3ffd5af4f2112a201f109a482445fb97ae91506003829080600181540180825580915050600190039060005260206000200160009091909190916101000a81548173ffffffffffffffffffffffffffffffffffffffff021916908373ffffffffffffffffffffffffffffffffffffffff16021790555060405180610140016040528060075481526020018373ffffffffffffffffffffffffffffffffffffffff1681526020016040518060400160405280600a81526020017f446164612053696e67680000000000000000000000000000000000000000000081525081526020016040518060400160405280600981526020017f42616e67616c6f7265000000000000000000000000000000000000000000000081525081526020018281526020016040518060400160405280601581526020017f646164612e73696e6768406f75746c6f6f6b2e696e000000000000000000000081525081526020016040518060400160405280600d81526020017f2b3931393638373534353636370000000000000000000000000000000000000081525081526020016347868c0081526020016002815260200160011515815250600960008473ffffffffffffffffffffffffffffffffffffffff1673ffffffffffffffffffffffffffffffffffffffff1681526020019081526020016000206000820151816000015560208201518160010160006101000a81548173ffffffffffffffffffffffffffffffffffffffff021916908373ffffffffffffffffffffffffffffffffffffffff160217905550604082015181600201908051906020019062001a75929190620024ca565b50606082015181600301908051906020019062001a94929190620024ca565b50608082015181600401908051906020019062001ab39291906200255b565b5060a082015181600501908051906020019062001ad2929190620024ca565b5060c082015181600601908051906020019062001af1929190620024ca565b5060e0820151816007015561010082015181600801556101208201518160090160006101000a81548160ff0219169083151502179055509050506007600081548092919062001b409062002649565b919050555073110a50271a65ee265a4b4457ac412c76c979167891506003829080600181540180825580915050600190039060005260206000200160009091909190916101000a81548173ffffffffffffffffffffffffffffffffffffffff021916908373ffffffffffffffffffffffffffffffffffffffff16021790555060405180610140016040528060075481526020018373ffffffffffffffffffffffffffffffffffffffff1681526020016040518060400160405280600d81526020017f536175726162682053696e67680000000000000000000000000000000000000081525081526020016040518060400160405280600981526020017f42616e67616c6f7265000000000000000000000000000000000000000000000081525081526020018281526020016040518060400160405280601381526020017f73617572616268406f75746c6f6f6b2e636f6d0000000000000000000000000081525081526020016040518060400160405280600d81526020017f2b3931383930393532343030390000000000000000000000000000000000000081525081526020016347868c0081526020016002815260200160011515815250600960008473ffffffffffffffffffffffffffffffffffffffff1673ffffffffffffffffffffffffffffffffffffffff1681526020019081526020016000206000820151816000015560208201518160010160006101000a81548173ffffffffffffffffffffffffffffffffffffffff021916908373ffffffffffffffffffffffffffffffffffffffff160217905550604082015181600201908051906020019062001da7929190620024ca565b50606082015181600301908051906020019062001dc6929190620024ca565b50608082015181600401908051906020019062001de59291906200255b565b5060a082015181600501908051906020019062001e04929190620024ca565b5060c082015181600601908051906020019062001e23929190620024ca565b5060e0820151816007015561010082015181600801556101208201518160090160006101000a81548160ff0219169083151502179055509050506007600081548092919062001e729062002649565b919050555073d3b7f2a8e0eda1b2c6a0b49c6c79ca9a3996c2aa91506003829080600181540180825580915050600190039060005260206000200160009091909190916101000a81548173ffffffffffffffffffffffffffffffffffffffff021916908373ffffffffffffffffffffffffffffffffffffffff16021790555060405180610140016040528060075481526020018373ffffffffffffffffffffffffffffffffffffffff1681526020016040518060400160405280600c81526020017f416e6a616e20536865747479000000000000000000000000000000000000000081525081526020016040518060400160405280600981526020017f42616e67616c6f7265000000000000000000000000000000000000000000000081525081526020018281526020016040518060400160405280601281526020017f616e6a616e4069696974622e6f72672e696e000000000000000000000000000081525081526020016040518060400160405280600d81526020017f2b3931393431313130373336300000000000000000000000000000000000000081525081526020016347868c0081526020016002815260200160011515815250600960008473ffffffffffffffffffffffffffffffffffffffff1673ffffffffffffffffffffffffffffffffffffffff1681526020019081526020016000206000820151816000015560208201518160010160006101000a81548173ffffffffffffffffffffffffffffffffffffffff021916908373ffffffffffffffffffffffffffffffffffffffff1602179055506040820151816002019080519060200190620020d9929190620024ca565b506060820151816003019080519060200190620020f8929190620024ca565b506080820151816004019080519060200190620021179291906200255b565b5060a082015181600501908051906020019062002136929190620024ca565b5060c082015181600601908051906020019062002155929190620024ca565b5060e0820151816007015561010082015181600801556101208201518160090160006101000a81548160ff02191690831515021790555090505060076000815480929190620021a49062002649565b919050555073d39cd70f514a0814c2fc59350e11aa0eba2b8ce891506003829080600181540180825580915050600190039060005260206000200160009091909190916101000a81548173ffffffffffffffffffffffffffffffffffffffff021916908373ffffffffffffffffffffffffffffffffffffffff16021790555060405180610140016040528060075481526020018373ffffffffffffffffffffffffffffffffffffffff1681526020016040518060400160405280600c81526020017f446164612044756e67656f6e000000000000000000000000000000000000000081525081526020016040518060400160405280600981526020017f42616e67616c6f7265000000000000000000000000000000000000000000000081525081526020018281526020016040518060400160405280600681526020017f656d61696f6c000000000000000000000000000000000000000000000000000081525081526020016040518060400160405280600981526020017f6f626f666464736661000000000000000000000000000000000000000000000081525081526020016347868c0081526020016002815260200160011515815250600960008473ffffffffffffffffffffffffffffffffffffffff1673ffffffffffffffffffffffffffffffffffffffff1681526020019081526020016000206000820151816000015560208201518160010160006101000a81548173ffffffffffffffffffffffffffffffffffffffff021916908373ffffffffffffffffffffffffffffffffffffffff16021790555060408201518160020190805190602001906200240b929190620024ca565b5060608201518160030190805190602001906200242a929190620024ca565b506080820151816004019080519060200190620024499291906200255b565b5060a082015181600501908051906020019062002468929190620024ca565b5060c082015181600601908051906020019062002487929190620024ca565b5060e0820151816007015561010082015181600801556101208201518160090160006101000a81548160ff021916908315150217905550905050505050620026f5565b828054620024d89062002613565b90600052602060002090601f016020900481019282620024fc576000855562002548565b82601f106200251757805160ff191683800117855562002548565b8280016001018555821562002548579182015b82811115620025475782518255916020019190600101906200252a565b5b509050620025579190620025ea565b5090565b828054828255906000526020600020908101928215620025d7579160200282015b82811115620025d65782518260006101000a81548173ffffffffffffffffffffffffffffffffffffffff021916908373ffffffffffffffffffffffffffffffffffffffff160217905550916020019190600101906200257c565b5b509050620025e69190620025ea565b5090565b5b8082111562002605576000816000905550600101620025eb565b5090565b6000819050919050565b600060028204905060018216806200262c57607f821691505b60208210811415620026435762002642620026c6565b5b50919050565b6000620026568262002609565b91507fffffffffffffffffffffffffffffffffffffffffffffffffffffffffffffffff8214156200268c576200268b62002697565b5b600182019050919050565b7f4e487b7100000000000000000000000000000000000000000000000000000000600052601160045260246000fd5b7f4e487b7100000000000000000000000000000000000000000000000000000000600052602260045260246000fd5b6135c780620027056000396000f3fe60806040526004361061011f5760003560e01c806399b956a0116100a0578063e02c8dd311610064578063e02c8dd3146103c8578063e2842d79146103d2578063f234687d146103fd578063f46fb1b61461043a578063f851a440146104635761011f565b806399b956a0146102e3578063ab7e7cf61461032a578063b37a3d8214610367578063d4fac45d14610383578063d52e528e1461039f5761011f565b806372eb7b60116100e757806372eb7b60146101ce578063757bf8cd146102135780637bc9883c1461023e5780638c7c9e0c1461027b5780639741edef146102a65761011f565b806304a15d741461012457806308fb670c1461014f578063159e875d146101595780631d1bea791461019657806350a1e16a146101b2575b600080fd5b34801561013057600080fd5b5061013961048e565b6040516101469190612ffe565b60405180910390f35b61015761051c565b005b34801561016557600080fd5b50610180600480360381019061017b9190612c92565b6110a8565b60405161018d9190613020565b60405180910390f35b6101b060048036038101906101ab9190612de6565b611107565b005b6101cc60048036038101906101c79190612c92565b61136c565b005b3480156101da57600080fd5b506101f560048036038101906101f09190612c69565b61158a565b60405161020a99989796959493929190613124565b60405180910390f35b34801561021f57600080fd5b50610228611825565b6040516102359190612ffe565b60405180910390f35b34801561024a57600080fd5b5061026560048036038101906102609190612ecf565b6118b3565b6040516102729190612fe3565b60405180910390f35b34801561028757600080fd5b506102906118f2565b60405161029d919061303b565b60405180910390f35b3480156102b257600080fd5b506102cd60048036038101906102c89190612ecf565b6118fa565b6040516102da9190612fe3565b60405180910390f35b3480156102ef57600080fd5b5061030a60048036038101906103059190612c69565b611939565b6040516103219b9a99989796959493929190613056565b60405180910390f35b34801561033657600080fd5b50610351600480360381019061034c9190612c92565b611ca2565b60405161035e9190613020565b60405180910390f35b610381600480360381019061037c9190612cf7565b611d01565b005b61039d60048036038101906103989190612cbb565b611ff9565b005b3480156103ab57600080fd5b506103c660048036038101906103c19190612c92565b61209c565b005b6103d06120fa565b005b3480156103de57600080fd5b506103e7612783565b6040516103f49190612ffe565b60405180910390f35b34801561040957600080fd5b50610424600480360381019061041f9190612ecf565b612811565b6040516104319190612fe3565b60405180910390f35b34801561044657600080fd5b50610461600480360381019061045c9190612ecf565b612850565b005b34801561046f57600080fd5b50610478612a71565b6040516104859190612fe3565b60405180910390f35b6060600380548060200260200160405190810160405280929190818152602001828054801561051257602002820191906000526020600020905b8160009054906101000a900473ffffffffffffffffffffffffffffffffffffffff1673ffffffffffffffffffffffffffffffffffffffff16815260200190600101908083116104c8575b5050505050905090565b600033905060008060096000600860008673ffffffffffffffffffffffffffffffffffffffff1673ffffffffffffffffffffffffffffffffffffffff16815260200190815260200160002060030160009054906101000a900473ffffffffffffffffffffffffffffffffffffffff1673ffffffffffffffffffffffffffffffffffffffff1673ffffffffffffffffffffffffffffffffffffffff1681526020019081526020016000206004018054905090505b80821015610729578273ffffffffffffffffffffffffffffffffffffffff1660096000600860008773ffffffffffffffffffffffffffffffffffffffff1673ffffffffffffffffffffffffffffffffffffffff16815260200190815260200160002060030160009054906101000a900473ffffffffffffffffffffffffffffffffffffffff1673ffffffffffffffffffffffffffffffffffffffff1673ffffffffffffffffffffffffffffffffffffffff16815260200190815260200160002060040183815481106106ca577f4e487b7100000000000000000000000000000000000000000000000000000000600052603260045260246000fd5b9060005260206000200160009054906101000a900473ffffffffffffffffffffffffffffffffffffffff1673ffffffffffffffffffffffffffffffffffffffff16141561071657610729565b818061072190613436565b9250506105cf565b60096000600860008673ffffffffffffffffffffffffffffffffffffffff1673ffffffffffffffffffffffffffffffffffffffff16815260200190815260200160002060030160009054906101000a900473ffffffffffffffffffffffffffffffffffffffff1673ffffffffffffffffffffffffffffffffffffffff1673ffffffffffffffffffffffffffffffffffffffff1681526020019081526020016000206004018054905082141561088757600860008473ffffffffffffffffffffffffffffffffffffffff1673ffffffffffffffffffffffffffffffffffffffff16815260200190815260200160002060030160009054906101000a900473ffffffffffffffffffffffffffffffffffffffff1673ffffffffffffffffffffffffffffffffffffffff166108fc60009081150290604051600060405180830381858888f19350505050158015610881573d6000803e3d6000fd5b506110a3565b6000606460096000600860008873ffffffffffffffffffffffffffffffffffffffff1673ffffffffffffffffffffffffffffffffffffffff16815260200190815260200160002060030160009054906101000a900473ffffffffffffffffffffffffffffffffffffffff1673ffffffffffffffffffffffffffffffffffffffff1673ffffffffffffffffffffffffffffffffffffffff16815260200190815260200160002060070154605f61093c91906132a9565b60096000600860008973ffffffffffffffffffffffffffffffffffffffff1673ffffffffffffffffffffffffffffffffffffffff16815260200190815260200160002060030160009054906101000a900473ffffffffffffffffffffffffffffffffffffffff1673ffffffffffffffffffffffffffffffffffffffff1673ffffffffffffffffffffffffffffffffffffffff1681526020019081526020016000206007015460646109ed91906132a9565b6109f79190613303565b610a019190613278565b905060008054906101000a900473ffffffffffffffffffffffffffffffffffffffff1673ffffffffffffffffffffffffffffffffffffffff166108fc829081150290604051600060405180830381858888f19350505050158015610a69573d6000803e3d6000fd5b50600860008573ffffffffffffffffffffffffffffffffffffffff1673ffffffffffffffffffffffffffffffffffffffff16815260200190815260200160002060030160009054906101000a900473ffffffffffffffffffffffffffffffffffffffff1673ffffffffffffffffffffffffffffffffffffffff166108fc606460096000600860008a73ffffffffffffffffffffffffffffffffffffffff1673ffffffffffffffffffffffffffffffffffffffff16815260200190815260200160002060030160009054906101000a900473ffffffffffffffffffffffffffffffffffffffff1673ffffffffffffffffffffffffffffffffffffffff1673ffffffffffffffffffffffffffffffffffffffff16815260200190815260200160002060070154605a610b9991906132a9565b610ba39190613278565b9081150290604051600060405180830381858888f19350505050158015610bce573d6000803e3d6000fd5b5060096000600860008773ffffffffffffffffffffffffffffffffffffffff1673ffffffffffffffffffffffffffffffffffffffff16815260200190815260200160002060030160009054906101000a900473ffffffffffffffffffffffffffffffffffffffff1673ffffffffffffffffffffffffffffffffffffffff1673ffffffffffffffffffffffffffffffffffffffff168152602001908152602001600020600401600183610c809190613303565b81548110610cb7577f4e487b7100000000000000000000000000000000000000000000000000000000600052603260045260246000fd5b9060005260206000200160009054906101000a900473ffffffffffffffffffffffffffffffffffffffff1660096000600860008873ffffffffffffffffffffffffffffffffffffffff1673ffffffffffffffffffffffffffffffffffffffff16815260200190815260200160002060030160009054906101000a900473ffffffffffffffffffffffffffffffffffffffff1673ffffffffffffffffffffffffffffffffffffffff1673ffffffffffffffffffffffffffffffffffffffff1681526020019081526020016000206004018481548110610dbe577f4e487b7100000000000000000000000000000000000000000000000000000000600052603260045260246000fd5b9060005260206000200160006101000a81548173ffffffffffffffffffffffffffffffffffffffff021916908373ffffffffffffffffffffffffffffffffffffffff1602179055508360096000600860008873ffffffffffffffffffffffffffffffffffffffff1673ffffffffffffffffffffffffffffffffffffffff16815260200190815260200160002060030160009054906101000a900473ffffffffffffffffffffffffffffffffffffffff1673ffffffffffffffffffffffffffffffffffffffff1673ffffffffffffffffffffffffffffffffffffffff168152602001908152602001600020600401600184610eb89190613303565b81548110610eef577f4e487b7100000000000000000000000000000000000000000000000000000000600052603260045260246000fd5b9060005260206000200160006101000a81548173ffffffffffffffffffffffffffffffffffffffff021916908373ffffffffffffffffffffffffffffffffffffffff16021790555060096000600860008773ffffffffffffffffffffffffffffffffffffffff1673ffffffffffffffffffffffffffffffffffffffff16815260200190815260200160002060030160009054906101000a900473ffffffffffffffffffffffffffffffffffffffff1673ffffffffffffffffffffffffffffffffffffffff1673ffffffffffffffffffffffffffffffffffffffff168152602001908152602001600020600401805480611011577f4e487b7100000000000000000000000000000000000000000000000000000000600052603160045260246000fd5b6001900381819060005260206000200160006101000a81549073ffffffffffffffffffffffffffffffffffffffff021916905590556000600860008673ffffffffffffffffffffffffffffffffffffffff1673ffffffffffffffffffffffffffffffffffffffff16815260200190815260200160002060080160006101000a81548160ff021916908315150217905550505b505050565b600080600960008473ffffffffffffffffffffffffffffffffffffffff1673ffffffffffffffffffffffffffffffffffffffff1681526020019081526020016000206000015411156110fd5760019050611102565b600090505b919050565b6007600081548092919061111a90613436565b91905055506005600081548092919061113290613436565b919050555060006001905060003390506003819080600181540180825580915050600190039060005260206000200160009091909190916101000a81548173ffffffffffffffffffffffffffffffffffffffff021916908373ffffffffffffffffffffffffffffffffffffffff160217905550606060405180610140016040528060055481526020018373ffffffffffffffffffffffffffffffffffffffff1681526020018a8152602001898152602001828152602001888152602001878152602001868152602001858152602001841515815250600960008473ffffffffffffffffffffffffffffffffffffffff1673ffffffffffffffffffffffffffffffffffffffff1681526020019081526020016000206000820151816000015560208201518160010160006101000a81548173ffffffffffffffffffffffffffffffffffffffff021916908373ffffffffffffffffffffffffffffffffffffffff16021790555060408201518160020190805190602001906112b3929190612a95565b5060608201518160030190805190602001906112d0929190612a95565b5060808201518160040190805190602001906112ed929190612b1b565b5060a082015181600501908051906020019061130a929190612a95565b5060c0820151816006019080519060200190611327929190612a95565b5060e0820151816007015561010082015181600801556101208201518160090160006101000a81548160ff021916908315150217905550905050505050505050505050565b6000339050600960008373ffffffffffffffffffffffffffffffffffffffff1673ffffffffffffffffffffffffffffffffffffffff168152602001908152602001600020600701543414611406578073ffffffffffffffffffffffffffffffffffffffff166108fc349081150290604051600060405180830381858888f19350505050158015611400573d6000803e3d6000fd5b50611586565b81600860008373ffffffffffffffffffffffffffffffffffffffff1673ffffffffffffffffffffffffffffffffffffffff16815260200190815260200160002060030160006101000a81548173ffffffffffffffffffffffffffffffffffffffff021916908373ffffffffffffffffffffffffffffffffffffffff160217905550600960008373ffffffffffffffffffffffffffffffffffffffff1673ffffffffffffffffffffffffffffffffffffffff168152602001908152602001600020600401819080600181540180825580915050600190039060005260206000200160009091909190916101000a81548173ffffffffffffffffffffffffffffffffffffffff021916908373ffffffffffffffffffffffffffffffffffffffff1602179055506001600860008373ffffffffffffffffffffffffffffffffffffffff1673ffffffffffffffffffffffffffffffffffffffff16815260200190815260200160002060080160006101000a81548160ff0219169083151502179055505b5050565b60096020528060005260406000206000915090508060000154908060010160009054906101000a900473ffffffffffffffffffffffffffffffffffffffff16908060020180546115d9906133d3565b80601f0160208091040260200160405190810160405280929190818152602001828054611605906133d3565b80156116525780601f1061162757610100808354040283529160200191611652565b820191906000526020600020905b81548152906001019060200180831161163557829003601f168201915b505050505090806003018054611667906133d3565b80601f0160208091040260200160405190810160405280929190818152602001828054611693906133d3565b80156116e05780601f106116b5576101008083540402835291602001916116e0565b820191906000526020600020905b8154815290600101906020018083116116c357829003601f168201915b5050505050908060050180546116f5906133d3565b80601f0160208091040260200160405190810160405280929190818152602001828054611721906133d3565b801561176e5780601f106117435761010080835404028352916020019161176e565b820191906000526020600020905b81548152906001019060200180831161175157829003601f168201915b505050505090806006018054611783906133d3565b80601f01602080910402602001604051908101604052809291908181526020018280546117af906133d3565b80156117fc5780601f106117d1576101008083540402835291602001916117fc565b820191906000526020600020905b8154815290600101906020018083116117df57829003601f168201915b5050505050908060070154908060080154908060090160009054906101000a900460ff16905089565b606060018054806020026020016040519081016040528092919081815260200182805480156118a957602002820191906000526020600020905b8160009054906101000a900473ffffffffffffffffffffffffffffffffffffffff1673ffffffffffffffffffffffffffffffffffffffff168152602001906001019080831161185f575b5050505050905090565b600381815481106118c357600080fd5b906000526020600020016000915054906101000a900473ffffffffffffffffffffffffffffffffffffffff1681565b600047905090565b6001818154811061190a57600080fd5b906000526020600020016000915054906101000a900473ffffffffffffffffffffffffffffffffffffffff1681565b60086020528060005260406000206000915090508060000154908060010160009054906101000a900473ffffffffffffffffffffffffffffffffffffffff1690806002018054611988906133d3565b80601f01602080910402602001604051908101604052809291908181526020018280546119b4906133d3565b8015611a015780601f106119d657610100808354040283529160200191611a01565b820191906000526020600020905b8154815290600101906020018083116119e457829003601f168201915b5050505050908060030160009054906101000a900473ffffffffffffffffffffffffffffffffffffffff1690806004018054611a3c906133d3565b80601f0160208091040260200160405190810160405280929190818152602001828054611a68906133d3565b8015611ab55780601f10611a8a57610100808354040283529160200191611ab5565b820191906000526020600020905b815481529060010190602001808311611a9857829003601f168201915b505050505090806005018054611aca906133d3565b80601f0160208091040260200160405190810160405280929190818152602001828054611af6906133d3565b8015611b435780601f10611b1857610100808354040283529160200191611b43565b820191906000526020600020905b815481529060010190602001808311611b2657829003601f168201915b505050505090806006018054611b58906133d3565b80601f0160208091040260200160405190810160405280929190818152602001828054611b84906133d3565b8015611bd15780601f10611ba657610100808354040283529160200191611bd1565b820191906000526020600020905b815481529060010190602001808311611bb457829003601f168201915b505050505090806007018054611be6906133d3565b80601f0160208091040260200160405190810160405280929190818152602001828054611c12906133d3565b8015611c5f5780601f10611c3457610100808354040283529160200191611c5f565b820191906000526020600020905b815481529060010190602001808311611c4257829003601f168201915b5050505050908060080160009054906101000a900460ff16908060080160019054906101000a900460ff16908060080160029054906101000a900460ff1690508b565b600080600860008473ffffffffffffffffffffffffffffffffffffffff1673ffffffffffffffffffffffffffffffffffffffff168152602001908152602001600020600001541115611cf75760019050611cfc565b600090505b919050565b60066000815480929190611d1490613436565b919050555060046000815480929190611d2c90613436565b919050555060003390506000806000806002859080600181540180825580915050600190039060005260206000200160009091909190916101000a81548173ffffffffffffffffffffffffffffffffffffffff021916908373ffffffffffffffffffffffffffffffffffffffff16021790555060405180610160016040528060045481526020018673ffffffffffffffffffffffffffffffffffffffff1681526020018a81526020018573ffffffffffffffffffffffffffffffffffffffff1681526020018b815260200189815260200188815260200187815260200184151581526020018315158152602001821515815250600860008773ffffffffffffffffffffffffffffffffffffffff1673ffffffffffffffffffffffffffffffffffffffff1681526020019081526020016000206000820151816000015560208201518160010160006101000a81548173ffffffffffffffffffffffffffffffffffffffff021916908373ffffffffffffffffffffffffffffffffffffffff1602179055506040820151816002019080519060200190611ecb929190612a95565b5060608201518160030160006101000a81548173ffffffffffffffffffffffffffffffffffffffff021916908373ffffffffffffffffffffffffffffffffffffffff1602179055506080820151816004019080519060200190611f2f929190612a95565b5060a0820151816005019080519060200190611f4c929190612a95565b5060c0820151816006019080519060200190611f69929190612a95565b5060e0820151816007019080519060200190611f86929190612a95565b506101008201518160080160006101000a81548160ff0219169083151502179055506101208201518160080160016101000a81548160ff0219169083151502179055506101408201518160080160026101000a81548160ff02191690831515021790555090505050505050505050505050565b8173ffffffffffffffffffffffffffffffffffffffff166108fc600960008473ffffffffffffffffffffffffffffffffffffffff1673ffffffffffffffffffffffffffffffffffffffff16815260200190815260200160002060070154476120619190613303565b4761206c9190613303565b9081150290604051600060405180830381858888f19350505050158015612097573d6000803e3d6000fd5b505050565b6001600860008373ffffffffffffffffffffffffffffffffffffffff1673ffffffffffffffffffffffffffffffffffffffff16815260200190815260200160002060080160016101000a81548160ff02191690831515021790555050565b600033905060011515600960008373ffffffffffffffffffffffffffffffffffffffff1673ffffffffffffffffffffffffffffffffffffffff16815260200190815260200160002060090160009054906101000a900460ff1615151415612724576000600960008373ffffffffffffffffffffffffffffffffffffffff1673ffffffffffffffffffffffffffffffffffffffff16815260200190815260200160002060090160006101000a81548160ff0219169083151502179055506000805b600960008473ffffffffffffffffffffffffffffffffffffffff1673ffffffffffffffffffffffffffffffffffffffff1681526020019081526020016000206004018054905082101561271d57600960008473ffffffffffffffffffffffffffffffffffffffff1673ffffffffffffffffffffffffffffffffffffffff1681526020019081526020016000206004018281548110612281577f4e487b7100000000000000000000000000000000000000000000000000000000600052603260045260246000fd5b9060005260206000200160009054906101000a900473ffffffffffffffffffffffffffffffffffffffff16905060001515600860008373ffffffffffffffffffffffffffffffffffffffff1673ffffffffffffffffffffffffffffffffffffffff16815260200190815260200160002060080160019054906101000a900460ff1615151415612709576000600960008573ffffffffffffffffffffffffffffffffffffffff1673ffffffffffffffffffffffffffffffffffffffff1681526020019081526020016000206004018054905090506000600860008473ffffffffffffffffffffffffffffffffffffffff1673ffffffffffffffffffffffffffffffffffffffff16815260200190815260200160002060080160006101000a81548160ff0219169083151502179055506001600860008473ffffffffffffffffffffffffffffffffffffffff1673ffffffffffffffffffffffffffffffffffffffff16815260200190815260200160002060080160026101000a81548160ff0219169083151502179055506124148285611ff9565b600960008573ffffffffffffffffffffffffffffffffffffffff1673ffffffffffffffffffffffffffffffffffffffff1681526020019081526020016000206004016001826124639190613303565b8154811061249a577f4e487b7100000000000000000000000000000000000000000000000000000000600052603260045260246000fd5b9060005260206000200160009054906101000a900473ffffffffffffffffffffffffffffffffffffffff16600960008673ffffffffffffffffffffffffffffffffffffffff1673ffffffffffffffffffffffffffffffffffffffff168152602001908152602001600020600401848154811061253f577f4e487b7100000000000000000000000000000000000000000000000000000000600052603260045260246000fd5b9060005260206000200160006101000a81548173ffffffffffffffffffffffffffffffffffffffff021916908373ffffffffffffffffffffffffffffffffffffffff16021790555081600960008673ffffffffffffffffffffffffffffffffffffffff1673ffffffffffffffffffffffffffffffffffffffff1681526020019081526020016000206004016001836125d79190613303565b8154811061260e577f4e487b7100000000000000000000000000000000000000000000000000000000600052603260045260246000fd5b9060005260206000200160006101000a81548173ffffffffffffffffffffffffffffffffffffffff021916908373ffffffffffffffffffffffffffffffffffffffff160217905550600960008573ffffffffffffffffffffffffffffffffffffffff1673ffffffffffffffffffffffffffffffffffffffff1681526020019081526020016000206004018054806126ce577f4e487b7100000000000000000000000000000000000000000000000000000000600052603160045260246000fd5b6001900381819060005260206000200160006101000a81549073ffffffffffffffffffffffffffffffffffffffff0219169055905550612718565b818061271490613436565b9250505b6121ba565b5050612780565b6001600960008373ffffffffffffffffffffffffffffffffffffffff1673ffffffffffffffffffffffffffffffffffffffff16815260200190815260200160002060090160006101000a81548160ff0219169083151502179055505b50565b6060600280548060200260200160405190810160405280929190818152602001828054801561280757602002820191906000526020600020905b8160009054906101000a900473ffffffffffffffffffffffffffffffffffffffff1673ffffffffffffffffffffffffffffffffffffffff16815260200190600101908083116127bd575b5050505050905090565b6002818154811061282157600080fd5b906000526020600020016000915054906101000a900473ffffffffffffffffffffffffffffffffffffffff1681565b600067ffffffffffffffff811115612891577f4e487b7100000000000000000000000000000000000000000000000000000000600052604160045260246000fd5b6040519080825280602002602001820160405280156128bf5781602001602082028036833780820191505090505b50600190805190602001906128d5929190612b1b565b5060005b600380549050811015612a6d57816009600060038481548110612925577f4e487b7100000000000000000000000000000000000000000000000000000000600052603260045260246000fd5b9060005260206000200160009054906101000a900473ffffffffffffffffffffffffffffffffffffffff1673ffffffffffffffffffffffffffffffffffffffff1673ffffffffffffffffffffffffffffffffffffffff168152602001908152602001600020600801541415612a5c576001600382815481106129d0577f4e487b7100000000000000000000000000000000000000000000000000000000600052603260045260246000fd5b9060005260206000200160009054906101000a900473ffffffffffffffffffffffffffffffffffffffff169080600181540180825580915050600190039060005260206000200160009091909190916101000a81548173ffffffffffffffffffffffffffffffffffffffff021916908373ffffffffffffffffffffffffffffffffffffffff1602179055505b80612a6690613436565b90506128d9565b5050565b60008054906101000a900473ffffffffffffffffffffffffffffffffffffffff1681565b828054612aa1906133d3565b90600052602060002090601f016020900481019282612ac35760008555612b0a565b82601f10612adc57805160ff1916838001178555612b0a565b82800160010185558215612b0a579182015b82811115612b09578251825591602001919060010190612aee565b5b509050612b179190612ba5565b5090565b828054828255906000526020600020908101928215612b94579160200282015b82811115612b935782518260006101000a81548173ffffffffffffffffffffffffffffffffffffffff021916908373ffffffffffffffffffffffffffffffffffffffff16021790555091602001919060010190612b3b565b5b509050612ba19190612ba5565b5090565b5b80821115612bbe576000816000905550600101612ba6565b5090565b6000612bd5612bd0846131f2565b6131cd565b905082815260208101848484011115612bed57600080fd5b612bf8848285613391565b509392505050565b600081359050612c0f8161354c565b92915050565b600081359050612c2481613563565b92915050565b600082601f830112612c3b57600080fd5b8135612c4b848260208601612bc2565b91505092915050565b600081359050612c638161357a565b92915050565b600060208284031215612c7b57600080fd5b6000612c8984828501612c00565b91505092915050565b600060208284031215612ca457600080fd5b6000612cb284828501612c15565b91505092915050565b60008060408385031215612cce57600080fd5b6000612cdc85828601612c15565b9250506020612ced85828601612c15565b9150509250929050565b600080600080600060a08688031215612d0f57600080fd5b600086013567ffffffffffffffff811115612d2957600080fd5b612d3588828901612c2a565b955050602086013567ffffffffffffffff811115612d5257600080fd5b612d5e88828901612c2a565b945050604086013567ffffffffffffffff811115612d7b57600080fd5b612d8788828901612c2a565b935050606086013567ffffffffffffffff811115612da457600080fd5b612db088828901612c2a565b925050608086013567ffffffffffffffff811115612dcd57600080fd5b612dd988828901612c2a565b9150509295509295909350565b60008060008060008060c08789031215612dff57600080fd5b600087013567ffffffffffffffff811115612e1957600080fd5b612e2589828a01612c2a565b965050602087013567ffffffffffffffff811115612e4257600080fd5b612e4e89828a01612c2a565b955050604087013567ffffffffffffffff811115612e6b57600080fd5b612e7789828a01612c2a565b945050606087013567ffffffffffffffff811115612e9457600080fd5b612ea089828a01612c2a565b9350506080612eb189828a01612c54565b92505060a0612ec289828a01612c54565b9150509295509295509295565b600060208284031215612ee157600080fd5b6000612eef84828501612c54565b91505092915050565b6000612f048383612f10565b60208301905092915050565b612f1981613349565b82525050565b612f2881613349565b82525050565b6000612f3982613233565b612f438185613256565b9350612f4e83613223565b8060005b83811015612f7f578151612f668882612ef8565b9750612f7183613249565b925050600181019050612f52565b5085935050505092915050565b612f958161335b565b82525050565b6000612fa68261323e565b612fb08185613267565b9350612fc08185602086016133a0565b612fc98161353b565b840191505092915050565b612fdd81613387565b82525050565b6000602082019050612ff86000830184612f1f565b92915050565b600060208201905081810360008301526130188184612f2e565b905092915050565b60006020820190506130356000830184612f8c565b92915050565b60006020820190506130506000830184612fd4565b92915050565b60006101608201905061306c600083018e612fd4565b613079602083018d612f1f565b818103604083015261308b818c612f9b565b905061309a606083018b612f1f565b81810360808301526130ac818a612f9b565b905081810360a08301526130c08189612f9b565b905081810360c08301526130d48188612f9b565b905081810360e08301526130e88187612f9b565b90506130f8610100830186612f8c565b613106610120830185612f8c565b613114610140830184612f8c565b9c9b505050505050505050505050565b60006101208201905061313a600083018c612fd4565b613147602083018b612f1f565b8181036040830152613159818a612f9b565b9050818103606083015261316d8189612f9b565b905081810360808301526131818188612f9b565b905081810360a08301526131958187612f9b565b90506131a460c0830186612fd4565b6131b160e0830185612fd4565b6131bf610100830184612f8c565b9a9950505050505050505050565b60006131d76131e8565b90506131e38282613405565b919050565b6000604051905090565b600067ffffffffffffffff82111561320d5761320c61350c565b5b6132168261353b565b9050602081019050919050565b6000819050602082019050919050565b600081519050919050565b600081519050919050565b6000602082019050919050565b600082825260208201905092915050565b600082825260208201905092915050565b600061328382613387565b915061328e83613387565b92508261329e5761329d6134ae565b5b828204905092915050565b60006132b482613387565b91506132bf83613387565b9250817fffffffffffffffffffffffffffffffffffffffffffffffffffffffffffffffff04831182151516156132f8576132f761347f565b5b828202905092915050565b600061330e82613387565b915061331983613387565b92508282101561332c5761332b61347f565b5b828203905092915050565b600061334282613367565b9050919050565b600061335482613367565b9050919050565b60008115159050919050565b600073ffffffffffffffffffffffffffffffffffffffff82169050919050565b6000819050919050565b82818337600083830152505050565b60005b838110156133be5780820151818401526020810190506133a3565b838111156133cd576000848401525b50505050565b600060028204905060018216806133eb57607f821691505b602082108114156133ff576133fe6134dd565b5b50919050565b61340e8261353b565b810181811067ffffffffffffffff8211171561342d5761342c61350c565b5b80604052505050565b600061344182613387565b91507fffffffffffffffffffffffffffffffffffffffffffffffffffffffffffffffff8214156134745761347361347f565b5b600182019050919050565b7f4e487b7100000000000000000000000000000000000000000000000000000000600052601160045260246000fd5b7f4e487b7100000000000000000000000000000000000000000000000000000000600052601260045260246000fd5b7f4e487b7100000000000000000000000000000000000000000000000000000000600052602260045260246000fd5b7f4e487b7100000000000000000000000000000000000000000000000000000000600052604160045260246000fd5b6000601f19601f8301169050919050565b61355581613337565b811461356057600080fd5b50565b61356c81613349565b811461357757600080fd5b50565b61358381613387565b811461358e57600080fd5b5056fea2646970667358221220f23d7a56d32266ad60461036854512e6d61f258f2bec23532d835f3b534f4f1064736f6c63430008020033",
  "immutableReferences": {},
  "source": "//SPDX-License-Identifier: GPL-3.\npragma solidity >=0.7.0 <0.9.0;\n\n\ncontract Model {\n\n    address payable public admin;\n    constructor(){\n        usersCount =0;\n        admin = payable(msg.sender);\n        address payable sp = payable(0);\n        usersCount++;\n        address payable x = payable(0xdCad3a6d3569DF655070DEd06cb7A1b2Ccd1D3AF);\n        user_Addresses.push(x);\n        Users[x] = User(usersCount,x,\"ABCD\",sp,\"Bhuwnesh\",\"Bangalore\",\"bhuwnesh.126@gm.com\",\"263139\",false,false,false);\n        x = payable(0x626C16139e73fa877Ec4B2BBaD02C824C8e95bc0);\n        user_Addresses.push(x);\n        usersCount++;\n        Users[x] = User(usersCount,x,\"ABCD\",sp,\"Bhuwnesh\",\"Bangalore\",\"bhuwnesh.126@gm.com\",\"263139\",false,false,false);\n        x = payable(0x55dBD85Eb48a426a9075c059Fb719Ca843a1e8eE);\n        user_Addresses.push(x);\n        usersCount++;\n        Users[x] = User(usersCount,x,\"ABCD\",sp,\"Bhuwnesh\",\"Bangalore\",\"bhuwnesh.126@gm.com\",\"263139\",false,false,false);\n        x = payable(0x0BBC5d5D3D89B3a213c420A9630c72C0966c8b71);\n        user_Addresses.push(x);\n        usersCount++;\n        Users[x] = User(usersCount,x,\"ABCD\",sp,\"Bhuwnesh\",\"Bangalore\",\"bhuwnesh.126@gm.com\",\"263139\",false,false,false);\n        x = payable(0xC6d640ce6A7431bE86Eda5AF05873662aA560d40);\n        user_Addresses.push(x);\n        usersCount++;\n        Users[x] = User(usersCount,x,\"ABCD\",sp,\"Bhuwnesh\",\"Bangalore\",\"bhuwnesh.126@gm.com\",\"263139\",false,false,false);\n\n        address payable[] memory sp2 = new address payable[](0);\n        serviceProviderCount = 0;\n        serviceProviderCount++;\n        x = payable(0x5D2Cf9B829EA3D1D428AeE131909d2b63921eeaC);\n        sp_Addresses.push(x);\n        ServiceProviders[x] = Service_Provider(serviceProviderCount,x,\"Sajal Singh\",\"Bangalore\",sp2, 'sajal.singh@outlook.com','+917579245939',1200000000, 1,true);\n\n        serviceProviderCount++;\n        x = payable(0x0f341A3FFD5af4F2112a201f109a482445fb97AE);\n        sp_Addresses.push(x);\n        ServiceProviders[x] = Service_Provider(serviceProviderCount,x,\"Dada Singh\",\"Bangalore\",sp2, 'dada.singh@outlook.in','+919687545667',1200000000, 2,true);\n\n        serviceProviderCount++;\n        x = payable(0x110A50271a65EE265a4b4457aC412C76c9791678);\n        sp_Addresses.push(x);\n        ServiceProviders[x] = Service_Provider(serviceProviderCount,x,\"Saurabh Singh\",\"Bangalore\",sp2, 'saurabh@outlook.com','+918909524009',1200000000, 2,true);\n\n        serviceProviderCount++;\n        x = payable(0xD3B7f2A8e0EDa1b2C6a0B49c6C79Ca9a3996C2AA);\n        sp_Addresses.push(x);\n        ServiceProviders[x] = Service_Provider(serviceProviderCount,x,\"Anjan Shetty\",\"Bangalore\",sp2, 'anjan@iiitb.org.in','+919411107360',1200000000, 2,true);\n\n\n        serviceProviderCount++;\n        x = payable(0xd39cD70F514a0814c2Fc59350e11AA0EbA2b8CE8);\n        sp_Addresses.push(x);\n        ServiceProviders[x] = Service_Provider(serviceProviderCount,x,\"Dada Dungeon\",\"Bangalore\",sp2, 'emaiol','obofddsfa',1200000000, 2,true);\n\n\n\n    }\n    // structure for Users\n    struct User {\n        uint id;\n        address payable Address;\n        string home_address;\n        address payable sp;\n        string name;\n        string city;\n        string email;\n        string phone;\n        bool serv;\n        bool ongoing_service;\n        bool messagealert;\n\n    }\n\n\n    // structure for Service Provider\n    struct Service_Provider {\n        uint id;\n        address payable Address;\n        string name;\n        string city;\n        address payable [] service_seeker;\n        string phone;\n        string email;\n        uint charges;\n        uint service_type;\n        bool status;\n\n    }\n\n\n    address payable[] public service_providers;\n    address payable[] public  user_Addresses;\n    address payable[] public sp_Addresses;\n    uint usersId = 0;\n    uint serviceProviderId = 0;\n    uint usersCount = 0;\n    uint serviceProviderCount = 0;\n\n    mapping(address => User) public Users;\n    mapping(address => Service_Provider) public ServiceProviders;\n\n    // Function to add Users\n    function addUser(string memory name,string memory home_address, string memory city, string memory email, string memory phone) public payable {\n        usersCount++;\n        usersId++;\n        address payable Address = payable(msg.sender);\n        address payable sp = payable(0);\n        bool serv=false;\n        bool ongoing_service=false;\n        bool messagealert=false;\n        user_Addresses.push(Address);\n        Users[Address] = User(usersId, Address, home_address, sp, name, city, email, phone,serv,ongoing_service,messagealert);\n    }\n\n    // Function to return the array of addresses of Users\n    function getAllUsers() public view returns (address payable [] memory){\n        return user_Addresses;\n    }\n\n    // to check if user exist already or not.\n    function userExist(address payable Address) public view returns (bool){\n        if (Users[Address].id > 0) {\n            return true;\n        }\n        else\n            return false;\n    }\n\n    // Function to check if service provider already exist.\n\n    function serviceProviderExist(address payable Address) public view returns (bool){\n        if (ServiceProviders[Address].id > 0) {\n            return true;\n        }\n        else\n            return false;\n    }\n\n\n    // Function to add service providers\n    function addServiceProvider(string memory name, string memory city, string memory email, string memory phone, uint charges, uint service_type) public payable {\n        serviceProviderCount++;\n        serviceProviderId++;\n        bool status =true;\n        address payable Address = payable(msg.sender);\n        sp_Addresses.push(Address);\n        address payable [] memory service_seeker;\n        ServiceProviders[Address] = Service_Provider(serviceProviderId, Address, name, city, service_seeker, email, phone, charges, service_type,status);\n\n\n    }\n    // function to return a service provider list to user\n    function render_List(uint service_type) public {\n        service_providers = new address payable [](0);\n        uint i = 0;\n        for (i = 0; i < sp_Addresses.length; ++i) {\n            if (ServiceProviders[sp_Addresses[i]].service_type == service_type) {\n\n                service_providers.push(sp_Addresses[i]);}\n        }\n\n    }\n\n    function return_rendered_List() public view returns (address payable[] memory){\n        return service_providers;\n    }\n    //function to return the array of addresses of Service Providers\n    function getAllServiceProviders() public view returns (address payable [] memory){\n        return sp_Addresses;\n    }\n\n    //require(msg.value == 2 ether)\n    // function for checking ether value and registeration of user to particular service Providers\n    function requestService(address payable sp) public payable {\n        address payable user;\n\n        user = payable(msg.sender);\n\n        if (msg.value != ServiceProviders[sp].charges) {\n            user.transfer(msg.value);\n\n        }\n        else {\n            Users[user].sp = sp;\n            ServiceProviders[sp].service_seeker.push(user);\n            Users[user].serv=true;\n\n\n        }\n\n    }\n\n    function servicecompleted() public payable {\n        address payable user;\n        user = payable(msg.sender);\n        uint i = 0;\n        uint length = ServiceProviders[Users[user].sp].service_seeker.length;\n        // loop to check whether user is present in service provider list or not\n        for (; i < length; i++)\n        {\n            if (ServiceProviders[Users[user].sp].service_seeker[i] == user)\n                break;\n        }\n        // if user not present then we transfer 0 to the service provider\n        if (i == ServiceProviders[Users[user].sp].service_seeker.length)\n            Users[user].sp.transfer(0);\n        else {\n            uint amount = (100 * ServiceProviders[Users[user].sp].charges - 95 * ServiceProviders[Users[user].sp].charges) / 100;\n            admin.transfer(amount);\n            Users[user].sp.transfer((90 * ServiceProviders[Users[user].sp].charges) / 100);\n            // this to delete the user from service provider list\n            ServiceProviders[Users[user].sp].service_seeker[i] = ServiceProviders[Users[user].sp].service_seeker[length - 1];\n            ServiceProviders[Users[user].sp].service_seeker[length - 1] = user;\n            ServiceProviders[Users[user].sp].service_seeker.pop();\n            Users[user].serv=false;\n\n        }\n\n    }\n    function service_choice(address payable user)public{\n\n        Users[user].ongoing_service=true;\n\n\n    }\n\n\n    function service_off() public payable{\n        address payable sp;\n        sp=payable(msg.sender);\n        if(ServiceProviders[sp].status==true)\n        {\n            ServiceProviders[sp].status=false;\n            uint i=0;\n            address payable user;\n            for(;i<ServiceProviders[sp].service_seeker.length;)\n            {\n\n                user=ServiceProviders[sp].service_seeker[i];\n                if(Users[user].ongoing_service==false)\n                {   uint length=ServiceProviders[sp].service_seeker.length;\n                    Users[user].serv=false;\n                    Users[user].messagealert=true;\n                    getBalance(user,sp);\n\n                    ServiceProviders[sp].service_seeker[i]= ServiceProviders[sp].service_seeker[length-1] ;\n                    ServiceProviders[sp].service_seeker[length-1] =user;\n                    ServiceProviders[sp].service_seeker.pop();\n                }\n                else\n                {\n                    i++;\n                }\n            }\n        }\n        else\n            ServiceProviders[sp].status=true;\n\n\n    }\n\n    function getBalance(address payable user,address payable sp) public payable{\n        user.transfer(address(this).balance-(address(this).balance-ServiceProviders[sp].charges));\n    }\n    function eth() public  view returns (uint){\n        return address(this).balance;\n    }\n\n\n}",
  "sourcePath": "/home/demonwolf/WebstormProjects/SPE-final-project/contracts/Model.sol",
  "compiler": {
    "name": "solc",
    "version": "0.8.2+commit.661d1103.Emscripten.clang"
  },
  "schemaVersion": "3.3.4",
  "updatedAt": "2021-04-17T13:03:27.251Z",
  "networkType": "ethereum",
  "devdoc": {
    "kind": "dev",
    "methods": {},
    "version": 1
  },
  "userdoc": {
    "kind": "user",
    "methods": {},
    "version": 1
  }
}