{
  "contractName": "Model",
  "abi": [
    {
      "inputs": [],
      "stateMutability": "nonpayable",
      "type": "constructor"
    },
    {
      "inputs": [
        {
          "internalType": "address",
          "name": "",
          "type": "address"
        }
      ],
      "name": "ServiceProviders",
      "outputs": [
        {
          "internalType": "uint256",
          "name": "id",
          "type": "uint256"
        },
        {
          "internalType": "address payable",
          "name": "Address",
          "type": "address"
        },
        {
          "internalType": "string",
          "name": "name",
          "type": "string"
        },
        {
          "internalType": "string",
          "name": "city",
          "type": "string"
        },
        {
          "internalType": "string",
          "name": "phone",
          "type": "string"
        },
        {
          "internalType": "string",
          "name": "email",
          "type": "string"
        },
        {
          "internalType": "uint256",
          "name": "charges",
          "type": "uint256"
        },
        {
          "internalType": "uint256",
          "name": "service_type",
          "type": "uint256"
        }
      ],
      "stateMutability": "view",
      "type": "function",
      "constant": true
    },
    {
      "inputs": [
        {
          "internalType": "address",
          "name": "",
          "type": "address"
        }
      ],
      "name": "Users",
      "outputs": [
        {
          "internalType": "uint256",
          "name": "id",
          "type": "uint256"
        },
        {
          "internalType": "address payable",
          "name": "Address",
          "type": "address"
        },
        {
          "internalType": "string",
          "name": "home_address",
          "type": "string"
        },
        {
          "internalType": "address payable",
          "name": "sp",
          "type": "address"
        },
        {
          "internalType": "string",
          "name": "name",
          "type": "string"
        },
        {
          "internalType": "string",
          "name": "city",
          "type": "string"
        },
        {
          "internalType": "string",
          "name": "email",
          "type": "string"
        },
        {
          "internalType": "string",
          "name": "phone",
          "type": "string"
        }
      ],
      "stateMutability": "view",
      "type": "function",
      "constant": true
    },
    {
      "inputs": [],
      "name": "admin",
      "outputs": [
        {
          "internalType": "address payable",
          "name": "",
          "type": "address"
        }
      ],
      "stateMutability": "view",
      "type": "function",
      "constant": true
    },
    {
      "inputs": [
        {
          "internalType": "uint256",
          "name": "",
          "type": "uint256"
        }
      ],
      "name": "service_providers",
      "outputs": [
        {
          "internalType": "address payable",
          "name": "",
          "type": "address"
        }
      ],
      "stateMutability": "view",
      "type": "function",
      "constant": true
    },
    {
      "inputs": [
        {
          "internalType": "uint256",
          "name": "",
          "type": "uint256"
        }
      ],
      "name": "sp_Addresses",
      "outputs": [
        {
          "internalType": "address payable",
          "name": "",
          "type": "address"
        }
      ],
      "stateMutability": "view",
      "type": "function",
      "constant": true
    },
    {
      "inputs": [
        {
          "internalType": "uint256",
          "name": "",
          "type": "uint256"
        }
      ],
      "name": "user_Addresses",
      "outputs": [
        {
          "internalType": "address payable",
          "name": "",
          "type": "address"
        }
      ],
      "stateMutability": "view",
      "type": "function",
      "constant": true
    },
    {
      "inputs": [
        {
          "internalType": "string",
          "name": "name",
          "type": "string"
        },
        {
          "internalType": "string",
          "name": "home_address",
          "type": "string"
        },
        {
          "internalType": "string",
          "name": "city",
          "type": "string"
        },
        {
          "internalType": "string",
          "name": "email",
          "type": "string"
        },
        {
          "internalType": "string",
          "name": "phone",
          "type": "string"
        }
      ],
      "name": "addUser",
      "outputs": [],
      "stateMutability": "payable",
      "type": "function",
      "payable": true
    },
    {
      "inputs": [],
      "name": "getAllUsers",
      "outputs": [
        {
          "internalType": "address payable[]",
          "name": "",
          "type": "address[]"
        }
      ],
      "stateMutability": "view",
      "type": "function",
      "constant": true
    },
    {
      "inputs": [
        {
          "internalType": "address payable",
          "name": "Address",
          "type": "address"
        }
      ],
      "name": "userExist",
      "outputs": [
        {
          "internalType": "bool",
          "name": "",
          "type": "bool"
        }
      ],
      "stateMutability": "view",
      "type": "function",
      "constant": true
    },
    {
      "inputs": [
        {
          "internalType": "address payable",
          "name": "Address",
          "type": "address"
        }
      ],
      "name": "serviceProviderExist",
      "outputs": [
        {
          "internalType": "bool",
          "name": "",
          "type": "bool"
        }
      ],
      "stateMutability": "view",
      "type": "function",
      "constant": true
    },
    {
      "inputs": [
        {
          "internalType": "string",
          "name": "name",
          "type": "string"
        },
        {
          "internalType": "string",
          "name": "city",
          "type": "string"
        },
        {
          "internalType": "string",
          "name": "email",
          "type": "string"
        },
        {
          "internalType": "string",
          "name": "phone",
          "type": "string"
        },
        {
          "internalType": "uint256",
          "name": "charges",
          "type": "uint256"
        },
        {
          "internalType": "uint256",
          "name": "service_type",
          "type": "uint256"
        }
      ],
      "name": "addServiceProvider",
      "outputs": [],
      "stateMutability": "payable",
      "type": "function",
      "payable": true
    },
    {
      "inputs": [
        {
          "internalType": "uint256",
          "name": "service_type",
          "type": "uint256"
        }
      ],
      "name": "render_List",
      "outputs": [],
      "stateMutability": "nonpayable",
      "type": "function"
    },
    {
      "inputs": [],
      "name": "return_rendered_List",
      "outputs": [
        {
          "internalType": "address payable[]",
          "name": "",
          "type": "address[]"
        }
      ],
      "stateMutability": "view",
      "type": "function",
      "constant": true
    },
    {
      "inputs": [],
      "name": "getAllServiceProviders",
      "outputs": [
        {
          "internalType": "address payable[]",
          "name": "",
          "type": "address[]"
        }
      ],
      "stateMutability": "view",
      "type": "function",
      "constant": true
    },
    {
      "inputs": [
        {
          "internalType": "address payable",
          "name": "sp",
          "type": "address"
        }
      ],
      "name": "requestService",
      "outputs": [],
      "stateMutability": "payable",
      "type": "function",
      "payable": true
    },
    {
      "inputs": [],
      "name": "servicecompleted",
      "outputs": [],
      "stateMutability": "payable",
      "type": "function",
      "payable": true
    }
  ],
  "bytecode": "0x608060405260006004556000600555600060065560006007553480156200002557600080fd5b506000600681905550336000806101000a81548173ffffffffffffffffffffffffffffffffffffffff021916908373ffffffffffffffffffffffffffffffffffffffff160217905550600060066000815480929190620000859062002301565b9190505550600073dcad3a6d3569df655070ded06cb7a1b2ccd1d3af90506002819080600181540180825580915050600190039060005260206000200160009091909190916101000a81548173ffffffffffffffffffffffffffffffffffffffff021916908373ffffffffffffffffffffffffffffffffffffffff16021790555060405180610100016040528060065481526020018273ffffffffffffffffffffffffffffffffffffffff1681526020016040518060400160405280600481526020017f414243440000000000000000000000000000000000000000000000000000000081525081526020018373ffffffffffffffffffffffffffffffffffffffff1681526020016040518060400160405280600881526020017f426875776e65736800000000000000000000000000000000000000000000000081525081526020016040518060400160405280600981526020017f42616e67616c6f7265000000000000000000000000000000000000000000000081525081526020016040518060400160405280601381526020017f626875776e6573682e31323640676d2e636f6d0000000000000000000000000081525081526020016040518060400160405280600681526020017f3236333133390000000000000000000000000000000000000000000000000000815250815250600860008373ffffffffffffffffffffffffffffffffffffffff1673ffffffffffffffffffffffffffffffffffffffff1681526020019081526020016000206000820151816000015560208201518160010160006101000a81548173ffffffffffffffffffffffffffffffffffffffff021916908373ffffffffffffffffffffffffffffffffffffffff16021790555060408201518160020190805190602001906200032592919062002182565b5060608201518160030160006101000a81548173ffffffffffffffffffffffffffffffffffffffff021916908373ffffffffffffffffffffffffffffffffffffffff16021790555060808201518160040190805190602001906200038b92919062002182565b5060a0820151816005019080519060200190620003aa92919062002182565b5060c0820151816006019080519060200190620003c992919062002182565b5060e0820151816007019080519060200190620003e892919062002182565b5090505073626c16139e73fa877ec4b2bbad02c824c8e95bc090506002819080600181540180825580915050600190039060005260206000200160009091909190916101000a81548173ffffffffffffffffffffffffffffffffffffffff021916908373ffffffffffffffffffffffffffffffffffffffff160217905550600660008154809291906200047b9062002301565b919050555060405180610100016040528060065481526020018273ffffffffffffffffffffffffffffffffffffffff1681526020016040518060400160405280600481526020017f414243440000000000000000000000000000000000000000000000000000000081525081526020018373ffffffffffffffffffffffffffffffffffffffff1681526020016040518060400160405280600881526020017f426875776e65736800000000000000000000000000000000000000000000000081525081526020016040518060400160405280600981526020017f42616e67616c6f7265000000000000000000000000000000000000000000000081525081526020016040518060400160405280601381526020017f626875776e6573682e31323640676d2e636f6d0000000000000000000000000081525081526020016040518060400160405280600681526020017f3236333133390000000000000000000000000000000000000000000000000000815250815250600860008373ffffffffffffffffffffffffffffffffffffffff1673ffffffffffffffffffffffffffffffffffffffff1681526020019081526020016000206000820151816000015560208201518160010160006101000a81548173ffffffffffffffffffffffffffffffffffffffff021916908373ffffffffffffffffffffffffffffffffffffffff16021790555060408201518160020190805190602001906200069f92919062002182565b5060608201518160030160006101000a81548173ffffffffffffffffffffffffffffffffffffffff021916908373ffffffffffffffffffffffffffffffffffffffff16021790555060808201518160040190805190602001906200070592919062002182565b5060a08201518160050190805190602001906200072492919062002182565b5060c08201518160060190805190602001906200074392919062002182565b5060e08201518160070190805190602001906200076292919062002182565b509050507355dbd85eb48a426a9075c059fb719ca843a1e8ee90506002819080600181540180825580915050600190039060005260206000200160009091909190916101000a81548173ffffffffffffffffffffffffffffffffffffffff021916908373ffffffffffffffffffffffffffffffffffffffff16021790555060066000815480929190620007f59062002301565b919050555060405180610100016040528060065481526020018273ffffffffffffffffffffffffffffffffffffffff1681526020016040518060400160405280600481526020017f414243440000000000000000000000000000000000000000000000000000000081525081526020018373ffffffffffffffffffffffffffffffffffffffff1681526020016040518060400160405280600881526020017f426875776e65736800000000000000000000000000000000000000000000000081525081526020016040518060400160405280600981526020017f42616e67616c6f7265000000000000000000000000000000000000000000000081525081526020016040518060400160405280601381526020017f626875776e6573682e31323640676d2e636f6d0000000000000000000000000081525081526020016040518060400160405280600681526020017f3236333133390000000000000000000000000000000000000000000000000000815250815250600860008373ffffffffffffffffffffffffffffffffffffffff1673ffffffffffffffffffffffffffffffffffffffff1681526020019081526020016000206000820151816000015560208201518160010160006101000a81548173ffffffffffffffffffffffffffffffffffffffff021916908373ffffffffffffffffffffffffffffffffffffffff160217905550604082015181600201908051906020019062000a1992919062002182565b5060608201518160030160006101000a81548173ffffffffffffffffffffffffffffffffffffffff021916908373ffffffffffffffffffffffffffffffffffffffff160217905550608082015181600401908051906020019062000a7f92919062002182565b5060a082015181600501908051906020019062000a9e92919062002182565b5060c082015181600601908051906020019062000abd92919062002182565b5060e082015181600701908051906020019062000adc92919062002182565b50905050730bbc5d5d3d89b3a213c420a9630c72c0966c8b7190506002819080600181540180825580915050600190039060005260206000200160009091909190916101000a81548173ffffffffffffffffffffffffffffffffffffffff021916908373ffffffffffffffffffffffffffffffffffffffff1602179055506006600081548092919062000b6f9062002301565b919050555060405180610100016040528060065481526020018273ffffffffffffffffffffffffffffffffffffffff1681526020016040518060400160405280600481526020017f414243440000000000000000000000000000000000000000000000000000000081525081526020018373ffffffffffffffffffffffffffffffffffffffff1681526020016040518060400160405280600881526020017f426875776e65736800000000000000000000000000000000000000000000000081525081526020016040518060400160405280600981526020017f42616e67616c6f7265000000000000000000000000000000000000000000000081525081526020016040518060400160405280601381526020017f626875776e6573682e31323640676d2e636f6d0000000000000000000000000081525081526020016040518060400160405280600681526020017f3236333133390000000000000000000000000000000000000000000000000000815250815250600860008373ffffffffffffffffffffffffffffffffffffffff1673ffffffffffffffffffffffffffffffffffffffff1681526020019081526020016000206000820151816000015560208201518160010160006101000a81548173ffffffffffffffffffffffffffffffffffffffff021916908373ffffffffffffffffffffffffffffffffffffffff160217905550604082015181600201908051906020019062000d9392919062002182565b5060608201518160030160006101000a81548173ffffffffffffffffffffffffffffffffffffffff021916908373ffffffffffffffffffffffffffffffffffffffff160217905550608082015181600401908051906020019062000df992919062002182565b5060a082015181600501908051906020019062000e1892919062002182565b5060c082015181600601908051906020019062000e3792919062002182565b5060e082015181600701908051906020019062000e5692919062002182565b5090505073c6d640ce6a7431be86eda5af05873662aa560d4090506002819080600181540180825580915050600190039060005260206000200160009091909190916101000a81548173ffffffffffffffffffffffffffffffffffffffff021916908373ffffffffffffffffffffffffffffffffffffffff1602179055506006600081548092919062000ee99062002301565b919050555060405180610100016040528060065481526020018273ffffffffffffffffffffffffffffffffffffffff1681526020016040518060400160405280600481526020017f414243440000000000000000000000000000000000000000000000000000000081525081526020018373ffffffffffffffffffffffffffffffffffffffff1681526020016040518060400160405280600881526020017f426875776e65736800000000000000000000000000000000000000000000000081525081526020016040518060400160405280600981526020017f42616e67616c6f7265000000000000000000000000000000000000000000000081525081526020016040518060400160405280601381526020017f626875776e6573682e31323640676d2e636f6d0000000000000000000000000081525081526020016040518060400160405280600681526020017f3236333133390000000000000000000000000000000000000000000000000000815250815250600860008373ffffffffffffffffffffffffffffffffffffffff1673ffffffffffffffffffffffffffffffffffffffff1681526020019081526020016000206000820151816000015560208201518160010160006101000a81548173ffffffffffffffffffffffffffffffffffffffff021916908373ffffffffffffffffffffffffffffffffffffffff16021790555060408201518160020190805190602001906200110d92919062002182565b5060608201518160030160006101000a81548173ffffffffffffffffffffffffffffffffffffffff021916908373ffffffffffffffffffffffffffffffffffffffff16021790555060808201518160040190805190602001906200117392919062002182565b5060a08201518160050190805190602001906200119292919062002182565b5060c0820151816006019080519060200190620011b192919062002182565b5060e0820151816007019080519060200190620011d092919062002182565b5090505060008067ffffffffffffffff81111562001217577f4e487b7100000000000000000000000000000000000000000000000000000000600052604160045260246000fd5b604051908082528060200260200182016040528015620012465781602001602082028036833780820191505090505b509050600060078190555060076000815480929190620012669062002301565b9190505550735d2cf9b829ea3d1d428aee131909d2b63921eeac91506003829080600181540180825580915050600190039060005260206000200160009091909190916101000a81548173ffffffffffffffffffffffffffffffffffffffff021916908373ffffffffffffffffffffffffffffffffffffffff16021790555060405180610120016040528060075481526020018373ffffffffffffffffffffffffffffffffffffffff1681526020016040518060400160405280600c81526020017f446164612044756e67656f6e000000000000000000000000000000000000000081525081526020016040518060400160405280600681526020017f4c61686f7265000000000000000000000000000000000000000000000000000081525081526020018281526020016040518060400160405280600681526020017f656d61696f6c000000000000000000000000000000000000000000000000000081525081526020016040518060400160405280600981526020017f6f626f666464736661000000000000000000000000000000000000000000000081525081526020016347868c0081526020016001815250600960008473ffffffffffffffffffffffffffffffffffffffff1673ffffffffffffffffffffffffffffffffffffffff1681526020019081526020016000206000820151816000015560208201518160010160006101000a81548173ffffffffffffffffffffffffffffffffffffffff021916908373ffffffffffffffffffffffffffffffffffffffff1602179055506040820151816002019080519060200190620014c492919062002182565b506060820151816003019080519060200190620014e392919062002182565b5060808201518160040190805190602001906200150292919062002213565b5060a08201518160050190805190602001906200152192919062002182565b5060c08201518160060190805190602001906200154092919062002182565b5060e082015181600701556101008201518160080155905050600760008154809291906200156e9062002301565b9190505550730f341a3ffd5af4f2112a201f109a482445fb97ae91506003829080600181540180825580915050600190039060005260206000200160009091909190916101000a81548173ffffffffffffffffffffffffffffffffffffffff021916908373ffffffffffffffffffffffffffffffffffffffff16021790555060405180610120016040528060075481526020018373ffffffffffffffffffffffffffffffffffffffff1681526020016040518060400160405280600c81526020017f446164612044756e67656f6e000000000000000000000000000000000000000081525081526020016040518060400160405280600681526020017f4c61686f7265000000000000000000000000000000000000000000000000000081525081526020018281526020016040518060400160405280600681526020017f656d61696f6c000000000000000000000000000000000000000000000000000081525081526020016040518060400160405280600981526020017f6f626f666464736661000000000000000000000000000000000000000000000081525081526020016347868c0081526020016002815250600960008473ffffffffffffffffffffffffffffffffffffffff1673ffffffffffffffffffffffffffffffffffffffff1681526020019081526020016000206000820151816000015560208201518160010160006101000a81548173ffffffffffffffffffffffffffffffffffffffff021916908373ffffffffffffffffffffffffffffffffffffffff1602179055506040820151816002019080519060200190620017cc92919062002182565b506060820151816003019080519060200190620017eb92919062002182565b5060808201518160040190805190602001906200180a92919062002213565b5060a08201518160050190805190602001906200182992919062002182565b5060c08201518160060190805190602001906200184892919062002182565b5060e08201518160070155610100820151816008015590505060076000815480929190620018769062002301565b919050555073110a50271a65ee265a4b4457ac412c76c979167891506003829080600181540180825580915050600190039060005260206000200160009091909190916101000a81548173ffffffffffffffffffffffffffffffffffffffff021916908373ffffffffffffffffffffffffffffffffffffffff16021790555060405180610120016040528060075481526020018373ffffffffffffffffffffffffffffffffffffffff1681526020016040518060400160405280600c81526020017f446164612044756e67656f6e000000000000000000000000000000000000000081525081526020016040518060400160405280600681526020017f4c61686f7265000000000000000000000000000000000000000000000000000081525081526020018281526020016040518060400160405280600681526020017f656d61696f6c000000000000000000000000000000000000000000000000000081525081526020016040518060400160405280600981526020017f6f626f666464736661000000000000000000000000000000000000000000000081525081526020016347868c0081526020016002815250600960008473ffffffffffffffffffffffffffffffffffffffff1673ffffffffffffffffffffffffffffffffffffffff1681526020019081526020016000206000820151816000015560208201518160010160006101000a81548173ffffffffffffffffffffffffffffffffffffffff021916908373ffffffffffffffffffffffffffffffffffffffff160217905550604082015181600201908051906020019062001ad492919062002182565b50606082015181600301908051906020019062001af392919062002182565b50608082015181600401908051906020019062001b1292919062002213565b5060a082015181600501908051906020019062001b3192919062002182565b5060c082015181600601908051906020019062001b5092919062002182565b5060e0820151816007015561010082015181600801559050506007600081548092919062001b7e9062002301565b919050555073d3b7f2a8e0eda1b2c6a0b49c6c79ca9a3996c2aa91506003829080600181540180825580915050600190039060005260206000200160009091909190916101000a81548173ffffffffffffffffffffffffffffffffffffffff021916908373ffffffffffffffffffffffffffffffffffffffff16021790555060405180610120016040528060075481526020018373ffffffffffffffffffffffffffffffffffffffff1681526020016040518060400160405280600c81526020017f446164612044756e67656f6e000000000000000000000000000000000000000081525081526020016040518060400160405280600681526020017f4c61686f7265000000000000000000000000000000000000000000000000000081525081526020018281526020016040518060400160405280600681526020017f656d61696f6c000000000000000000000000000000000000000000000000000081525081526020016040518060400160405280600981526020017f6f626f666464736661000000000000000000000000000000000000000000000081525081526020016347868c0081526020016002815250600960008473ffffffffffffffffffffffffffffffffffffffff1673ffffffffffffffffffffffffffffffffffffffff1681526020019081526020016000206000820151816000015560208201518160010160006101000a81548173ffffffffffffffffffffffffffffffffffffffff021916908373ffffffffffffffffffffffffffffffffffffffff160217905550604082015181600201908051906020019062001ddc92919062002182565b50606082015181600301908051906020019062001dfb92919062002182565b50608082015181600401908051906020019062001e1a92919062002213565b5060a082015181600501908051906020019062001e3992919062002182565b5060c082015181600601908051906020019062001e5892919062002182565b5060e0820151816007015561010082015181600801559050506007600081548092919062001e869062002301565b919050555073d39cd70f514a0814c2fc59350e11aa0eba2b8ce891506003829080600181540180825580915050600190039060005260206000200160009091909190916101000a81548173ffffffffffffffffffffffffffffffffffffffff021916908373ffffffffffffffffffffffffffffffffffffffff16021790555060405180610120016040528060075481526020018373ffffffffffffffffffffffffffffffffffffffff1681526020016040518060400160405280600c81526020017f446164612044756e67656f6e000000000000000000000000000000000000000081525081526020016040518060400160405280600681526020017f4c61686f7265000000000000000000000000000000000000000000000000000081525081526020018281526020016040518060400160405280600681526020017f656d61696f6c000000000000000000000000000000000000000000000000000081525081526020016040518060400160405280600981526020017f6f626f666464736661000000000000000000000000000000000000000000000081525081526020016347868c0081526020016002815250600960008473ffffffffffffffffffffffffffffffffffffffff1673ffffffffffffffffffffffffffffffffffffffff1681526020019081526020016000206000820151816000015560208201518160010160006101000a81548173ffffffffffffffffffffffffffffffffffffffff021916908373ffffffffffffffffffffffffffffffffffffffff1602179055506040820151816002019080519060200190620020e492919062002182565b5060608201518160030190805190602001906200210392919062002182565b5060808201518160040190805190602001906200212292919062002213565b5060a08201518160050190805190602001906200214192919062002182565b5060c08201518160060190805190602001906200216092919062002182565b5060e082015181600701556101008201518160080155905050505050620023ad565b8280546200219090620022cb565b90600052602060002090601f016020900481019282620021b4576000855562002200565b82601f10620021cf57805160ff191683800117855562002200565b8280016001018555821562002200579182015b82811115620021ff578251825591602001919060010190620021e2565b5b5090506200220f9190620022a2565b5090565b8280548282559060005260206000209081019282156200228f579160200282015b828111156200228e5782518260006101000a81548173ffffffffffffffffffffffffffffffffffffffff021916908373ffffffffffffffffffffffffffffffffffffffff1602179055509160200191906001019062002234565b5b5090506200229e9190620022a2565b5090565b5b80821115620022bd576000816000905550600101620022a3565b5090565b6000819050919050565b60006002820490506001821680620022e457607f821691505b60208210811415620022fb57620022fa6200237e565b5b50919050565b60006200230e82620022c1565b91507fffffffffffffffffffffffffffffffffffffffffffffffffffffffffffffffff8214156200234457620023436200234f565b5b600182019050919050565b7f4e487b7100000000000000000000000000000000000000000000000000000000600052601160045260246000fd5b7f4e487b7100000000000000000000000000000000000000000000000000000000600052602260045260246000fd5b612b4480620023bd6000396000f3fe6080604052600436106100f35760003560e01c80639741edef1161008a578063e2842d7911610059578063e2842d7914610328578063f234687d14610353578063f46fb1b614610390578063f851a440146103b9576100f3565b80639741edef1461024e57806399b956a01461028b578063ab7e7cf6146102cf578063b37a3d821461030c576100f3565b806350a1e16a116100c657806350a1e16a1461018657806372eb7b60146101a2578063757bf8cd146101e65780637bc9883c14610211576100f3565b806304a15d74146100f857806308fb670c14610123578063159e875d1461012d5780631d1bea791461016a575b600080fd5b34801561010457600080fd5b5061010d6103e4565b60405161011a91906125d2565b60405180910390f35b61012b610472565b005b34801561013957600080fd5b50610154600480360381019061014f91906122a2565b610fa3565b60405161016191906125f4565b60405180910390f35b610184600480360381019061017f91906123ba565b611002565b005b6101a0600480360381019061019b91906122a2565b611237565b005b3480156101ae57600080fd5b506101c960048036038101906101c49190612279565b6113fa565b6040516101dd9897969594939291906126b0565b60405180910390f35b3480156101f257600080fd5b506101fb611682565b60405161020891906125d2565b60405180910390f35b34801561021d57600080fd5b50610238600480360381019061023391906124a3565b611710565b60405161024591906125b7565b60405180910390f35b34801561025a57600080fd5b50610275600480360381019061027091906124a3565b61174f565b60405161028291906125b7565b60405180910390f35b34801561029757600080fd5b506102b260048036038101906102ad9190612279565b61178e565b6040516102c698979695949392919061260f565b60405180910390f35b3480156102db57600080fd5b506102f660048036038101906102f191906122a2565b611abe565b60405161030391906125f4565b60405180910390f35b610326600480360381019061032191906122cb565b611b1d565b005b34801561033457600080fd5b5061033d611d93565b60405161034a91906125d2565b60405180910390f35b34801561035f57600080fd5b5061037a600480360381019061037591906124a3565b611e21565b60405161038791906125b7565b60405180910390f35b34801561039c57600080fd5b506103b760048036038101906103b291906124a3565b611e60565b005b3480156103c557600080fd5b506103ce612081565b6040516103db91906125b7565b60405180910390f35b6060600380548060200260200160405190810160405280929190818152602001828054801561046857602002820191906000526020600020905b8160009054906101000a900473ffffffffffffffffffffffffffffffffffffffff1673ffffffffffffffffffffffffffffffffffffffff168152602001906001019080831161041e575b5050505050905090565b600033905060008060096000600860008673ffffffffffffffffffffffffffffffffffffffff1673ffffffffffffffffffffffffffffffffffffffff16815260200190815260200160002060030160009054906101000a900473ffffffffffffffffffffffffffffffffffffffff1673ffffffffffffffffffffffffffffffffffffffff1673ffffffffffffffffffffffffffffffffffffffff1681526020019081526020016000206004018054905090505b8082101561067f578273ffffffffffffffffffffffffffffffffffffffff1660096000600860008773ffffffffffffffffffffffffffffffffffffffff1673ffffffffffffffffffffffffffffffffffffffff16815260200190815260200160002060030160009054906101000a900473ffffffffffffffffffffffffffffffffffffffff1673ffffffffffffffffffffffffffffffffffffffff1673ffffffffffffffffffffffffffffffffffffffff1681526020019081526020016000206004018381548110610620577f4e487b7100000000000000000000000000000000000000000000000000000000600052603260045260246000fd5b9060005260206000200160009054906101000a900473ffffffffffffffffffffffffffffffffffffffff1673ffffffffffffffffffffffffffffffffffffffff16141561066c5761067f565b8180610677906129b3565b925050610525565b60096000600860008673ffffffffffffffffffffffffffffffffffffffff1673ffffffffffffffffffffffffffffffffffffffff16815260200190815260200160002060030160009054906101000a900473ffffffffffffffffffffffffffffffffffffffff1673ffffffffffffffffffffffffffffffffffffffff1673ffffffffffffffffffffffffffffffffffffffff168152602001908152602001600020600401805490508214156107dd57600860008473ffffffffffffffffffffffffffffffffffffffff1673ffffffffffffffffffffffffffffffffffffffff16815260200190815260200160002060030160009054906101000a900473ffffffffffffffffffffffffffffffffffffffff1673ffffffffffffffffffffffffffffffffffffffff166108fc60009081150290604051600060405180830381858888f193505050501580156107d7573d6000803e3d6000fd5b50610f9e565b6000606460096000600860008873ffffffffffffffffffffffffffffffffffffffff1673ffffffffffffffffffffffffffffffffffffffff16815260200190815260200160002060030160009054906101000a900473ffffffffffffffffffffffffffffffffffffffff1673ffffffffffffffffffffffffffffffffffffffff1673ffffffffffffffffffffffffffffffffffffffff16815260200190815260200160002060070154605f6108929190612826565b60096000600860008973ffffffffffffffffffffffffffffffffffffffff1673ffffffffffffffffffffffffffffffffffffffff16815260200190815260200160002060030160009054906101000a900473ffffffffffffffffffffffffffffffffffffffff1673ffffffffffffffffffffffffffffffffffffffff1673ffffffffffffffffffffffffffffffffffffffff1681526020019081526020016000206007015460646109439190612826565b61094d9190612880565b61095791906127f5565b905060008054906101000a900473ffffffffffffffffffffffffffffffffffffffff1673ffffffffffffffffffffffffffffffffffffffff166108fc829081150290604051600060405180830381858888f193505050501580156109bf573d6000803e3d6000fd5b50600860008573ffffffffffffffffffffffffffffffffffffffff1673ffffffffffffffffffffffffffffffffffffffff16815260200190815260200160002060030160009054906101000a900473ffffffffffffffffffffffffffffffffffffffff1673ffffffffffffffffffffffffffffffffffffffff166108fc606460096000600860008a73ffffffffffffffffffffffffffffffffffffffff1673ffffffffffffffffffffffffffffffffffffffff16815260200190815260200160002060030160009054906101000a900473ffffffffffffffffffffffffffffffffffffffff1673ffffffffffffffffffffffffffffffffffffffff1673ffffffffffffffffffffffffffffffffffffffff16815260200190815260200160002060070154605a610aef9190612826565b610af991906127f5565b9081150290604051600060405180830381858888f19350505050158015610b24573d6000803e3d6000fd5b5060096000600860008773ffffffffffffffffffffffffffffffffffffffff1673ffffffffffffffffffffffffffffffffffffffff16815260200190815260200160002060030160009054906101000a900473ffffffffffffffffffffffffffffffffffffffff1673ffffffffffffffffffffffffffffffffffffffff1673ffffffffffffffffffffffffffffffffffffffff168152602001908152602001600020600401600183610bd69190612880565b81548110610c0d577f4e487b7100000000000000000000000000000000000000000000000000000000600052603260045260246000fd5b9060005260206000200160009054906101000a900473ffffffffffffffffffffffffffffffffffffffff1660096000600860008873ffffffffffffffffffffffffffffffffffffffff1673ffffffffffffffffffffffffffffffffffffffff16815260200190815260200160002060030160009054906101000a900473ffffffffffffffffffffffffffffffffffffffff1673ffffffffffffffffffffffffffffffffffffffff1673ffffffffffffffffffffffffffffffffffffffff1681526020019081526020016000206004018481548110610d14577f4e487b7100000000000000000000000000000000000000000000000000000000600052603260045260246000fd5b9060005260206000200160006101000a81548173ffffffffffffffffffffffffffffffffffffffff021916908373ffffffffffffffffffffffffffffffffffffffff1602179055508360096000600860008873ffffffffffffffffffffffffffffffffffffffff1673ffffffffffffffffffffffffffffffffffffffff16815260200190815260200160002060030160009054906101000a900473ffffffffffffffffffffffffffffffffffffffff1673ffffffffffffffffffffffffffffffffffffffff1673ffffffffffffffffffffffffffffffffffffffff168152602001908152602001600020600401600184610e0e9190612880565b81548110610e45577f4e487b7100000000000000000000000000000000000000000000000000000000600052603260045260246000fd5b9060005260206000200160006101000a81548173ffffffffffffffffffffffffffffffffffffffff021916908373ffffffffffffffffffffffffffffffffffffffff16021790555060096000600860008773ffffffffffffffffffffffffffffffffffffffff1673ffffffffffffffffffffffffffffffffffffffff16815260200190815260200160002060030160009054906101000a900473ffffffffffffffffffffffffffffffffffffffff1673ffffffffffffffffffffffffffffffffffffffff1673ffffffffffffffffffffffffffffffffffffffff168152602001908152602001600020600401805480610f67577f4e487b7100000000000000000000000000000000000000000000000000000000600052603160045260246000fd5b6001900381819060005260206000200160006101000a81549073ffffffffffffffffffffffffffffffffffffffff02191690559055505b505050565b600080600960008473ffffffffffffffffffffffffffffffffffffffff1673ffffffffffffffffffffffffffffffffffffffff168152602001908152602001600020600001541115610ff85760019050610ffd565b600090505b919050565b60076000815480929190611015906129b3565b91905055506005600081548092919061102d906129b3565b919050555060003390506003819080600181540180825580915050600190039060005260206000200160009091909190916101000a81548173ffffffffffffffffffffffffffffffffffffffff021916908373ffffffffffffffffffffffffffffffffffffffff160217905550606060405180610120016040528060055481526020018373ffffffffffffffffffffffffffffffffffffffff16815260200189815260200188815260200182815260200187815260200186815260200185815260200184815250600960008473ffffffffffffffffffffffffffffffffffffffff1673ffffffffffffffffffffffffffffffffffffffff1681526020019081526020016000206000820151816000015560208201518160010160006101000a81548173ffffffffffffffffffffffffffffffffffffffff021916908373ffffffffffffffffffffffffffffffffffffffff16021790555060408201518160020190805190602001906111a09291906120a5565b5060608201518160030190805190602001906111bd9291906120a5565b5060808201518160040190805190602001906111da92919061212b565b5060a08201518160050190805190602001906111f79291906120a5565b5060c08201518160060190805190602001906112149291906120a5565b5060e0820151816007015561010082015181600801559050505050505050505050565b6000339050600960008373ffffffffffffffffffffffffffffffffffffffff1673ffffffffffffffffffffffffffffffffffffffff1681526020019081526020016000206007015434146112d1578073ffffffffffffffffffffffffffffffffffffffff166108fc349081150290604051600060405180830381858888f193505050501580156112cb573d6000803e3d6000fd5b506113f6565b81600860008373ffffffffffffffffffffffffffffffffffffffff1673ffffffffffffffffffffffffffffffffffffffff16815260200190815260200160002060030160006101000a81548173ffffffffffffffffffffffffffffffffffffffff021916908373ffffffffffffffffffffffffffffffffffffffff160217905550600960008373ffffffffffffffffffffffffffffffffffffffff1673ffffffffffffffffffffffffffffffffffffffff168152602001908152602001600020600401819080600181540180825580915050600190039060005260206000200160009091909190916101000a81548173ffffffffffffffffffffffffffffffffffffffff021916908373ffffffffffffffffffffffffffffffffffffffff1602179055505b5050565b60096020528060005260406000206000915090508060000154908060010160009054906101000a900473ffffffffffffffffffffffffffffffffffffffff169080600201805461144990612950565b80601f016020809104026020016040519081016040528092919081815260200182805461147590612950565b80156114c25780601f10611497576101008083540402835291602001916114c2565b820191906000526020600020905b8154815290600101906020018083116114a557829003601f168201915b5050505050908060030180546114d790612950565b80601f016020809104026020016040519081016040528092919081815260200182805461150390612950565b80156115505780601f1061152557610100808354040283529160200191611550565b820191906000526020600020905b81548152906001019060200180831161153357829003601f168201915b50505050509080600501805461156590612950565b80601f016020809104026020016040519081016040528092919081815260200182805461159190612950565b80156115de5780601f106115b3576101008083540402835291602001916115de565b820191906000526020600020905b8154815290600101906020018083116115c157829003601f168201915b5050505050908060060180546115f390612950565b80601f016020809104026020016040519081016040528092919081815260200182805461161f90612950565b801561166c5780601f106116415761010080835404028352916020019161166c565b820191906000526020600020905b81548152906001019060200180831161164f57829003601f168201915b5050505050908060070154908060080154905088565b6060600180548060200260200160405190810160405280929190818152602001828054801561170657602002820191906000526020600020905b8160009054906101000a900473ffffffffffffffffffffffffffffffffffffffff1673ffffffffffffffffffffffffffffffffffffffff16815260200190600101908083116116bc575b5050505050905090565b6003818154811061172057600080fd5b906000526020600020016000915054906101000a900473ffffffffffffffffffffffffffffffffffffffff1681565b6001818154811061175f57600080fd5b906000526020600020016000915054906101000a900473ffffffffffffffffffffffffffffffffffffffff1681565b60086020528060005260406000206000915090508060000154908060010160009054906101000a900473ffffffffffffffffffffffffffffffffffffffff16908060020180546117dd90612950565b80601f016020809104026020016040519081016040528092919081815260200182805461180990612950565b80156118565780601f1061182b57610100808354040283529160200191611856565b820191906000526020600020905b81548152906001019060200180831161183957829003601f168201915b5050505050908060030160009054906101000a900473ffffffffffffffffffffffffffffffffffffffff169080600401805461189190612950565b80601f01602080910402602001604051908101604052809291908181526020018280546118bd90612950565b801561190a5780601f106118df5761010080835404028352916020019161190a565b820191906000526020600020905b8154815290600101906020018083116118ed57829003601f168201915b50505050509080600501805461191f90612950565b80601f016020809104026020016040519081016040528092919081815260200182805461194b90612950565b80156119985780601f1061196d57610100808354040283529160200191611998565b820191906000526020600020905b81548152906001019060200180831161197b57829003601f168201915b5050505050908060060180546119ad90612950565b80601f01602080910402602001604051908101604052809291908181526020018280546119d990612950565b8015611a265780601f106119fb57610100808354040283529160200191611a26565b820191906000526020600020905b815481529060010190602001808311611a0957829003601f168201915b505050505090806007018054611a3b90612950565b80601f0160208091040260200160405190810160405280929190818152602001828054611a6790612950565b8015611ab45780601f10611a8957610100808354040283529160200191611ab4565b820191906000526020600020905b815481529060010190602001808311611a9757829003601f168201915b5050505050905088565b600080600860008473ffffffffffffffffffffffffffffffffffffffff1673ffffffffffffffffffffffffffffffffffffffff168152602001908152602001600020600001541115611b135760019050611b18565b600090505b919050565b60066000815480929190611b30906129b3565b919050555060046000815480929190611b48906129b3565b9190505550600033905060006002829080600181540180825580915050600190039060005260206000200160009091909190916101000a81548173ffffffffffffffffffffffffffffffffffffffff021916908373ffffffffffffffffffffffffffffffffffffffff16021790555060405180610100016040528060045481526020018373ffffffffffffffffffffffffffffffffffffffff1681526020018781526020018273ffffffffffffffffffffffffffffffffffffffff16815260200188815260200186815260200185815260200184815250600860008473ffffffffffffffffffffffffffffffffffffffff1673ffffffffffffffffffffffffffffffffffffffff1681526020019081526020016000206000820151816000015560208201518160010160006101000a81548173ffffffffffffffffffffffffffffffffffffffff021916908373ffffffffffffffffffffffffffffffffffffffff1602179055506040820151816002019080519060200190611ccb9291906120a5565b5060608201518160030160006101000a81548173ffffffffffffffffffffffffffffffffffffffff021916908373ffffffffffffffffffffffffffffffffffffffff1602179055506080820151816004019080519060200190611d2f9291906120a5565b5060a0820151816005019080519060200190611d4c9291906120a5565b5060c0820151816006019080519060200190611d699291906120a5565b5060e0820151816007019080519060200190611d869291906120a5565b5090505050505050505050565b60606002805480602002602001604051908101604052809291908181526020018280548015611e1757602002820191906000526020600020905b8160009054906101000a900473ffffffffffffffffffffffffffffffffffffffff1673ffffffffffffffffffffffffffffffffffffffff1681526020019060010190808311611dcd575b5050505050905090565b60028181548110611e3157600080fd5b906000526020600020016000915054906101000a900473ffffffffffffffffffffffffffffffffffffffff1681565b600067ffffffffffffffff811115611ea1577f4e487b7100000000000000000000000000000000000000000000000000000000600052604160045260246000fd5b604051908082528060200260200182016040528015611ecf5781602001602082028036833780820191505090505b5060019080519060200190611ee592919061212b565b5060005b60038054905081101561207d57816009600060038481548110611f35577f4e487b7100000000000000000000000000000000000000000000000000000000600052603260045260246000fd5b9060005260206000200160009054906101000a900473ffffffffffffffffffffffffffffffffffffffff1673ffffffffffffffffffffffffffffffffffffffff1673ffffffffffffffffffffffffffffffffffffffff16815260200190815260200160002060080154141561206c57600160038281548110611fe0577f4e487b7100000000000000000000000000000000000000000000000000000000600052603260045260246000fd5b9060005260206000200160009054906101000a900473ffffffffffffffffffffffffffffffffffffffff169080600181540180825580915050600190039060005260206000200160009091909190916101000a81548173ffffffffffffffffffffffffffffffffffffffff021916908373ffffffffffffffffffffffffffffffffffffffff1602179055505b80612076906129b3565b9050611ee9565b5050565b60008054906101000a900473ffffffffffffffffffffffffffffffffffffffff1681565b8280546120b190612950565b90600052602060002090601f0160209004810192826120d3576000855561211a565b82601f106120ec57805160ff191683800117855561211a565b8280016001018555821561211a579182015b828111156121195782518255916020019190600101906120fe565b5b50905061212791906121b5565b5090565b8280548282559060005260206000209081019282156121a4579160200282015b828111156121a35782518260006101000a81548173ffffffffffffffffffffffffffffffffffffffff021916908373ffffffffffffffffffffffffffffffffffffffff1602179055509160200191906001019061214b565b5b5090506121b191906121b5565b5090565b5b808211156121ce5760008160009055506001016121b6565b5090565b60006121e56121e08461276f565b61274a565b9050828152602081018484840111156121fd57600080fd5b61220884828561290e565b509392505050565b60008135905061221f81612ac9565b92915050565b60008135905061223481612ae0565b92915050565b600082601f83011261224b57600080fd5b813561225b8482602086016121d2565b91505092915050565b60008135905061227381612af7565b92915050565b60006020828403121561228b57600080fd5b600061229984828501612210565b91505092915050565b6000602082840312156122b457600080fd5b60006122c284828501612225565b91505092915050565b600080600080600060a086880312156122e357600080fd5b600086013567ffffffffffffffff8111156122fd57600080fd5b6123098882890161223a565b955050602086013567ffffffffffffffff81111561232657600080fd5b6123328882890161223a565b945050604086013567ffffffffffffffff81111561234f57600080fd5b61235b8882890161223a565b935050606086013567ffffffffffffffff81111561237857600080fd5b6123848882890161223a565b925050608086013567ffffffffffffffff8111156123a157600080fd5b6123ad8882890161223a565b9150509295509295909350565b60008060008060008060c087890312156123d357600080fd5b600087013567ffffffffffffffff8111156123ed57600080fd5b6123f989828a0161223a565b965050602087013567ffffffffffffffff81111561241657600080fd5b61242289828a0161223a565b955050604087013567ffffffffffffffff81111561243f57600080fd5b61244b89828a0161223a565b945050606087013567ffffffffffffffff81111561246857600080fd5b61247489828a0161223a565b935050608061248589828a01612264565b92505060a061249689828a01612264565b9150509295509295509295565b6000602082840312156124b557600080fd5b60006124c384828501612264565b91505092915050565b60006124d883836124e4565b60208301905092915050565b6124ed816128c6565b82525050565b6124fc816128c6565b82525050565b600061250d826127b0565b61251781856127d3565b9350612522836127a0565b8060005b8381101561255357815161253a88826124cc565b9750612545836127c6565b925050600181019050612526565b5085935050505092915050565b612569816128d8565b82525050565b600061257a826127bb565b61258481856127e4565b935061259481856020860161291d565b61259d81612ab8565b840191505092915050565b6125b181612904565b82525050565b60006020820190506125cc60008301846124f3565b92915050565b600060208201905081810360008301526125ec8184612502565b905092915050565b60006020820190506126096000830184612560565b92915050565b600061010082019050612625600083018b6125a8565b612632602083018a6124f3565b8181036040830152612644818961256f565b905061265360608301886124f3565b8181036080830152612665818761256f565b905081810360a0830152612679818661256f565b905081810360c083015261268d818561256f565b905081810360e08301526126a1818461256f565b90509998505050505050505050565b6000610100820190506126c6600083018b6125a8565b6126d3602083018a6124f3565b81810360408301526126e5818961256f565b905081810360608301526126f9818861256f565b9050818103608083015261270d818761256f565b905081810360a0830152612721818661256f565b905061273060c08301856125a8565b61273d60e08301846125a8565b9998505050505050505050565b6000612754612765565b90506127608282612982565b919050565b6000604051905090565b600067ffffffffffffffff82111561278a57612789612a89565b5b61279382612ab8565b9050602081019050919050565b6000819050602082019050919050565b600081519050919050565b600081519050919050565b6000602082019050919050565b600082825260208201905092915050565b600082825260208201905092915050565b600061280082612904565b915061280b83612904565b92508261281b5761281a612a2b565b5b828204905092915050565b600061283182612904565b915061283c83612904565b9250817fffffffffffffffffffffffffffffffffffffffffffffffffffffffffffffffff0483118215151615612875576128746129fc565b5b828202905092915050565b600061288b82612904565b915061289683612904565b9250828210156128a9576128a86129fc565b5b828203905092915050565b60006128bf826128e4565b9050919050565b60006128d1826128e4565b9050919050565b60008115159050919050565b600073ffffffffffffffffffffffffffffffffffffffff82169050919050565b6000819050919050565b82818337600083830152505050565b60005b8381101561293b578082015181840152602081019050612920565b8381111561294a576000848401525b50505050565b6000600282049050600182168061296857607f821691505b6020821081141561297c5761297b612a5a565b5b50919050565b61298b82612ab8565b810181811067ffffffffffffffff821117156129aa576129a9612a89565b5b80604052505050565b60006129be82612904565b91507fffffffffffffffffffffffffffffffffffffffffffffffffffffffffffffffff8214156129f1576129f06129fc565b5b600182019050919050565b7f4e487b7100000000000000000000000000000000000000000000000000000000600052601160045260246000fd5b7f4e487b7100000000000000000000000000000000000000000000000000000000600052601260045260246000fd5b7f4e487b7100000000000000000000000000000000000000000000000000000000600052602260045260246000fd5b7f4e487b7100000000000000000000000000000000000000000000000000000000600052604160045260246000fd5b6000601f19601f8301169050919050565b612ad2816128b4565b8114612add57600080fd5b50565b612ae9816128c6565b8114612af457600080fd5b50565b612b0081612904565b8114612b0b57600080fd5b5056fea2646970667358221220a60b8aeadd7647287819a4b91f75d4a8dfbdce5460c613fc9cf354289f447e6f64736f6c63430008020033",
  "immutableReferences": {},
  "source": "//SPDX-License-Identifier: GPL-3.\npragma solidity >=0.7.0 <0.9.0;\n\n\ncontract Model {\n\n    address payable public admin;\n    constructor(){\n        usersCount =0;\n        admin = payable(msg.sender);\n        address payable sp = payable(0);\n        usersCount++;\n        address payable x = payable(0xdCad3a6d3569DF655070DEd06cb7A1b2Ccd1D3AF);\n        user_Addresses.push(x);\n        Users[x] = User(usersCount,x,\"ABCD\",sp,\"Bhuwnesh\",\"Bangalore\",\"bhuwnesh.126@gm.com\",\"263139\");\n        x = payable(0x626C16139e73fa877Ec4B2BBaD02C824C8e95bc0);\n        user_Addresses.push(x);\n        usersCount++;\n        Users[x] = User(usersCount,x,\"ABCD\",sp,\"Bhuwnesh\",\"Bangalore\",\"bhuwnesh.126@gm.com\",\"263139\");\n        x = payable(0x55dBD85Eb48a426a9075c059Fb719Ca843a1e8eE);\n        user_Addresses.push(x);\n        usersCount++;\n        Users[x] = User(usersCount,x,\"ABCD\",sp,\"Bhuwnesh\",\"Bangalore\",\"bhuwnesh.126@gm.com\",\"263139\");\n        x = payable(0x0BBC5d5D3D89B3a213c420A9630c72C0966c8b71);\n        user_Addresses.push(x);\n        usersCount++;\n        Users[x] = User(usersCount,x,\"ABCD\",sp,\"Bhuwnesh\",\"Bangalore\",\"bhuwnesh.126@gm.com\",\"263139\");\n        x = payable(0xC6d640ce6A7431bE86Eda5AF05873662aA560d40);\n        user_Addresses.push(x);\n        usersCount++;\n        Users[x] = User(usersCount,x,\"ABCD\",sp,\"Bhuwnesh\",\"Bangalore\",\"bhuwnesh.126@gm.com\",\"263139\");\n\n        address payable[] memory sp2 = new address payable[](0);\n        serviceProviderCount = 0;\n        serviceProviderCount++;\n        x = payable(0x5D2Cf9B829EA3D1D428AeE131909d2b63921eeaC);\n        sp_Addresses.push(x);\n        ServiceProviders[x] = Service_Provider(serviceProviderCount,x,\"Dada Dungeon\",\"Lahore\",sp2, 'emaiol','obofddsfa',1200000000, 1);\n\n        serviceProviderCount++;\n        x = payable(0x0f341A3FFD5af4F2112a201f109a482445fb97AE);\n        sp_Addresses.push(x);\n        ServiceProviders[x] = Service_Provider(serviceProviderCount,x,\"Dada Dungeon\",\"Lahore\",sp2, 'emaiol','obofddsfa',1200000000, 2);\n\n        serviceProviderCount++;\n        x = payable(0x110A50271a65EE265a4b4457aC412C76c9791678);\n        sp_Addresses.push(x);\n        ServiceProviders[x] = Service_Provider(serviceProviderCount,x,\"Dada Dungeon\",\"Lahore\",sp2, 'emaiol','obofddsfa',1200000000, 2);\n\n        serviceProviderCount++;\n        x = payable(0xD3B7f2A8e0EDa1b2C6a0B49c6C79Ca9a3996C2AA);\n        sp_Addresses.push(x);\n        ServiceProviders[x] = Service_Provider(serviceProviderCount,x,\"Dada Dungeon\",\"Lahore\",sp2, 'emaiol','obofddsfa',1200000000, 2);\n\n\n        serviceProviderCount++;\n        x = payable(0xd39cD70F514a0814c2Fc59350e11AA0EbA2b8CE8);\n        sp_Addresses.push(x);\n        ServiceProviders[x] = Service_Provider(serviceProviderCount,x,\"Dada Dungeon\",\"Lahore\",sp2, 'emaiol','obofddsfa',1200000000, 2);\n\n\n\n    }\n    // structure for Users\n    struct User {\n        uint id;\n        address payable Address;\n        string home_address;\n        address payable sp;\n        string name;\n        string city;\n        string email;\n        string phone;\n    }\n\n\n    // structure for Service Provider\n    struct Service_Provider {\n        uint id;\n        address payable Address;\n        string name;\n        string city;\n        address payable [] service_seeker;\n        string phone;\n        string email;\n        uint charges;\n        uint service_type;\n\n    }\n\n\n    address payable[] public service_providers;\n    address payable[] public  user_Addresses;\n    address payable[] public sp_Addresses;\n    uint usersId = 0;\n    uint serviceProviderId = 0;\n    uint usersCount = 0;\n    uint serviceProviderCount = 0;\n\n    mapping(address => User) public Users;\n    mapping(address => Service_Provider) public ServiceProviders;\n\n    // Function to add Users\n    function addUser(string memory name,string memory home_address, string memory city, string memory email, string memory phone) public payable {\n        usersCount++;\n        usersId++;\n        address payable Address = payable(msg.sender);\n        address payable sp = payable(0);\n        user_Addresses.push(Address);\n        Users[Address] = User(usersId, Address, home_address, sp, name, city, email, phone);\n    }\n\n    // Function to return the array of addresses of Users\n    function getAllUsers() public view returns (address payable [] memory){\n        return user_Addresses;\n    }\n\n    // to check if user exist already or not.\n    function userExist(address payable Address) public view returns (bool){\n        if (Users[Address].id > 0) {\n            return true;\n        }\n        else\n            return false;\n    }\n\n    // Function to check if service provider already exist.\n\n    function serviceProviderExist(address payable Address) public view returns (bool){\n        if (ServiceProviders[Address].id > 0) {\n            return true;\n        }\n        else\n            return false;\n    }\n\n\n    // Function to add service providers\n    function addServiceProvider(string memory name, string memory city, string memory email, string memory phone, uint charges, uint service_type) public payable {\n        serviceProviderCount++;\n        serviceProviderId++;\n        address payable Address = payable(msg.sender);\n        sp_Addresses.push(Address);\n        address payable [] memory service_seeker;\n        ServiceProviders[Address] = Service_Provider(serviceProviderId, Address, name, city, service_seeker, email, phone, charges, service_type);\n\n\n    }\n    // function to return a service provider list to user\n    function render_List(uint service_type) public {\n        service_providers = new address payable [](0);\n        uint i = 0;\n        for (i = 0; i < sp_Addresses.length; ++i) {\n            if (ServiceProviders[sp_Addresses[i]].service_type == service_type) {\n\n                service_providers.push(sp_Addresses[i]);}\n        }\n\n    }\n\n    function return_rendered_List() public view returns (address payable[] memory){\n        return service_providers;\n    }\n    //function to return the array of addresses of Service Providers\n    function getAllServiceProviders() public view returns (address payable [] memory){\n        return sp_Addresses;\n    }\n\n    //require(msg.value == 2 ether)\n    // function for checking ether value and registeration of user to particular service Providers\n    function requestService(address payable sp) public payable {\n        address payable user;\n\n        user = payable(msg.sender);\n\n        if (msg.value != ServiceProviders[sp].charges) {\n            user.transfer(msg.value);\n\n        }\n        else {\n            Users[user].sp = sp;\n            ServiceProviders[sp].service_seeker.push(user);\n\n        }\n\n    }\n\n    function servicecompleted() public payable {\n        address payable user;\n        user = payable(msg.sender);\n        uint i = 0;\n        uint length = ServiceProviders[Users[user].sp].service_seeker.length;\n        // loop to check whether user is present in service provider list or not\n        for (; i < length; i++)\n        {\n            if (ServiceProviders[Users[user].sp].service_seeker[i] == user)\n                break;\n        }\n        // if user not present then we transfer 0 to the service provider\n        if (i == ServiceProviders[Users[user].sp].service_seeker.length)\n            Users[user].sp.transfer(0);\n        else {\n            uint amount = (100 * ServiceProviders[Users[user].sp].charges - 95 * ServiceProviders[Users[user].sp].charges) / 100;\n            admin.transfer(amount);\n            Users[user].sp.transfer((90 * ServiceProviders[Users[user].sp].charges) / 100);\n            // this to delete the user from service provider list\n            ServiceProviders[Users[user].sp].service_seeker[i] = ServiceProviders[Users[user].sp].service_seeker[length - 1];\n            ServiceProviders[Users[user].sp].service_seeker[length - 1] = user;\n            ServiceProviders[Users[user].sp].service_seeker.pop();\n        }\n\n    }\n\n\n}",
  "sourcePath": "/home/demonwolf/WebstormProjects/SPE-final-project/contracts/Model.sol",
  "compiler": {
    "name": "solc",
    "version": "0.8.2+commit.661d1103.Emscripten.clang"
  },
  "schemaVersion": "3.3.4",
  "updatedAt": "2021-04-11T01:40:59.046Z",
  "networkType": "ethereum",
  "devdoc": {
    "kind": "dev",
    "methods": {},
    "version": 1
  },
  "userdoc": {
    "kind": "user",
    "methods": {},
    "version": 1
  }
}